{"abi":[{"type":"constructor","inputs":[{"name":"_escrowManagerAddress","type":"address","internalType":"address"},{"name":"_wrappedCbtc","type":"address","internalType":"address"},{"name":"_rollupAddress","type":"address","internalType":"address"}],"stateMutability":"nonpayable"},{"type":"fallback","stateMutability":"payable"},{"type":"receive","stateMutability":"payable"},{"type":"function","name":"ESCROW_MANAGER_ADDRESS","inputs":[],"outputs":[{"name":"","type":"address","internalType":"address"}],"stateMutability":"view"},{"type":"function","name":"OWNER","inputs":[],"outputs":[{"name":"","type":"address","internalType":"address"}],"stateMutability":"view"},{"type":"function","name":"ROLLUP_ADDRESS","inputs":[],"outputs":[{"name":"","type":"address","internalType":"address"}],"stateMutability":"view"},{"type":"function","name":"WRAPPED_CBTC","inputs":[],"outputs":[{"name":"","type":"address","internalType":"address"}],"stateMutability":"view"},{"type":"function","name":"addBurnIfSwapCreated","inputs":[{"name":"escrow","type":"tuple","internalType":"struct EscrowData","components":[{"name":"offerer","type":"address","internalType":"address"},{"name":"claimer","type":"address","internalType":"address"},{"name":"amount","type":"uint256","internalType":"uint256"},{"name":"token","type":"address","internalType":"address"},{"name":"flags","type":"uint256","internalType":"uint256"},{"name":"claimHandler","type":"address","internalType":"address"},{"name":"claimData","type":"bytes32","internalType":"bytes32"},{"name":"refundHandler","type":"address","internalType":"address"},{"name":"refundData","type":"bytes32","internalType":"bytes32"},{"name":"securityDeposit","type":"uint256","internalType":"uint256"},{"name":"claimerBounty","type":"uint256","internalType":"uint256"},{"name":"depositToken","type":"address","internalType":"address"},{"name":"successActionCommitment","type":"bytes32","internalType":"bytes32"}]},{"name":"substituteBurnKey","type":"bytes32","internalType":"bytes32"}],"outputs":[],"stateMutability":"nonpayable"},{"type":"function","name":"claimAndMintInRollup","inputs":[{"name":"escrowData","type":"tuple","internalType":"struct EscrowData","components":[{"name":"offerer","type":"address","internalType":"address"},{"name":"claimer","type":"address","internalType":"address"},{"name":"amount","type":"uint256","internalType":"uint256"},{"name":"token","type":"address","internalType":"address"},{"name":"flags","type":"uint256","internalType":"uint256"},{"name":"claimHandler","type":"address","internalType":"address"},{"name":"claimData","type":"bytes32","internalType":"bytes32"},{"name":"refundHandler","type":"address","internalType":"address"},{"name":"refundData","type":"bytes32","internalType":"bytes32"},{"name":"securityDeposit","type":"uint256","internalType":"uint256"},{"name":"claimerBounty","type":"uint256","internalType":"uint256"},{"name":"depositToken","type":"address","internalType":"address"},{"name":"successActionCommitment","type":"bytes32","internalType":"bytes32"}]},{"name":"preimage","type":"bytes32","internalType":"bytes32"},{"name":"mintHash","type":"bytes32","internalType":"bytes32"},{"name":"noteKind","type":"bytes32","internalType":"bytes32"}],"outputs":[],"stateMutability":"nonpayable"},{"type":"function","name":"getERC20Balance","inputs":[{"name":"token","type":"address","internalType":"address"}],"outputs":[{"name":"","type":"uint256","internalType":"uint256"}],"stateMutability":"view"},{"type":"function","name":"getEscrowHash","inputs":[{"name":"escrowData","type":"tuple","internalType":"struct EscrowData","components":[{"name":"offerer","type":"address","internalType":"address"},{"name":"claimer","type":"address","internalType":"address"},{"name":"amount","type":"uint256","internalType":"uint256"},{"name":"token","type":"address","internalType":"address"},{"name":"flags","type":"uint256","internalType":"uint256"},{"name":"claimHandler","type":"address","internalType":"address"},{"name":"claimData","type":"bytes32","internalType":"bytes32"},{"name":"refundHandler","type":"address","internalType":"address"},{"name":"refundData","type":"bytes32","internalType":"bytes32"},{"name":"securityDeposit","type":"uint256","internalType":"uint256"},{"name":"claimerBounty","type":"uint256","internalType":"uint256"},{"name":"depositToken","type":"address","internalType":"address"},{"name":"successActionCommitment","type":"bytes32","internalType":"bytes32"}]}],"outputs":[{"name":"result","type":"bytes32","internalType":"bytes32"}],"stateMutability":"pure"},{"type":"function","name":"getNativeBalance","inputs":[],"outputs":[{"name":"","type":"uint256","internalType":"uint256"}],"stateMutability":"view"},{"type":"function","name":"pendingBurns","inputs":[{"name":"","type":"bytes32","internalType":"bytes32"}],"outputs":[{"name":"","type":"bytes32","internalType":"bytes32"}],"stateMutability":"view"},{"type":"function","name":"verifyPreimage","inputs":[{"name":"escrowData","type":"tuple","internalType":"struct EscrowData","components":[{"name":"offerer","type":"address","internalType":"address"},{"name":"claimer","type":"address","internalType":"address"},{"name":"amount","type":"uint256","internalType":"uint256"},{"name":"token","type":"address","internalType":"address"},{"name":"flags","type":"uint256","internalType":"uint256"},{"name":"claimHandler","type":"address","internalType":"address"},{"name":"claimData","type":"bytes32","internalType":"bytes32"},{"name":"refundHandler","type":"address","internalType":"address"},{"name":"refundData","type":"bytes32","internalType":"bytes32"},{"name":"securityDeposit","type":"uint256","internalType":"uint256"},{"name":"claimerBounty","type":"uint256","internalType":"uint256"},{"name":"depositToken","type":"address","internalType":"address"},{"name":"successActionCommitment","type":"bytes32","internalType":"bytes32"}]},{"name":"preimage","type":"bytes32","internalType":"bytes32"}],"outputs":[{"name":"isValid","type":"bool","internalType":"bool"}],"stateMutability":"pure"},{"type":"function","name":"verifySwapAndBurn","inputs":[{"name":"escrow","type":"tuple","internalType":"struct EscrowData","components":[{"name":"offerer","type":"address","internalType":"address"},{"name":"claimer","type":"address","internalType":"address"},{"name":"amount","type":"uint256","internalType":"uint256"},{"name":"token","type":"address","internalType":"address"},{"name":"flags","type":"uint256","internalType":"uint256"},{"name":"claimHandler","type":"address","internalType":"address"},{"name":"claimData","type":"bytes32","internalType":"bytes32"},{"name":"refundHandler","type":"address","internalType":"address"},{"name":"refundData","type":"bytes32","internalType":"bytes32"},{"name":"securityDeposit","type":"uint256","internalType":"uint256"},{"name":"claimerBounty","type":"uint256","internalType":"uint256"},{"name":"depositToken","type":"address","internalType":"address"},{"name":"successActionCommitment","type":"bytes32","internalType":"bytes32"}]}],"outputs":[],"stateMutability":"nonpayable"},{"type":"function","name":"withdrawERC20","inputs":[{"name":"token","type":"address","internalType":"address"},{"name":"amount","type":"uint256","internalType":"uint256"},{"name":"recipient","type":"address","internalType":"address"}],"outputs":[],"stateMutability":"nonpayable"},{"type":"function","name":"withdrawNative","inputs":[{"name":"amount","type":"uint256","internalType":"uint256"},{"name":"recipient","type":"address","internalType":"address payable"}],"outputs":[],"stateMutability":"nonpayable"},{"type":"event","name":"BurnClaimed","inputs":[{"name":"substitutor","type":"address","indexed":true,"internalType":"address"},{"name":"substituteBurnKey","type":"bytes32","indexed":true,"internalType":"bytes32"}],"anonymous":false},{"type":"event","name":"BurnRegistered","inputs":[{"name":"swapHash","type":"bytes32","indexed":true,"internalType":"bytes32"},{"name":"substituteBurnKey","type":"bytes32","indexed":true,"internalType":"bytes32"}],"anonymous":false},{"type":"event","name":"NativeConverted","inputs":[{"name":"amount","type":"uint256","indexed":false,"internalType":"uint256"}],"anonymous":false},{"type":"event","name":"PreimageClaimed","inputs":[{"name":"offerer","type":"address","indexed":true,"internalType":"address"},{"name":"claimer","type":"address","indexed":true,"internalType":"address"},{"name":"escrowHash","type":"bytes32","indexed":true,"internalType":"bytes32"},{"name":"preimage","type":"bytes32","indexed":false,"internalType":"bytes32"},{"name":"token","type":"address","indexed":false,"internalType":"address"},{"name":"amount","type":"uint256","indexed":false,"internalType":"uint256"}],"anonymous":false},{"type":"event","name":"TokensWithdrawn","inputs":[{"name":"recipient","type":"address","indexed":true,"internalType":"address"},{"name":"token","type":"address","indexed":true,"internalType":"address"},{"name":"amount","type":"uint256","indexed":false,"internalType":"uint256"}],"anonymous":false},{"type":"error","name":"SafeERC20FailedOperation","inputs":[{"name":"token","type":"address","internalType":"address"}]}],"bytecode":{"object":"0x6101003461018b57601f611acd38819003918201601f19168301916001600160401b0383118484101761018f5780849260609460405283398101031261018b57610048816101a3565b90610061604061005a602084016101a3565b92016101a3565b916001600160a01b03811615610136576001600160a01b038316156100f15760805260c05260e0523360a05260405161191590816101b882396080518181816103a50152818161051b015281816107f2015261097e015260a05181818161014c0152611790015260c0518181816102c30152610a62015260e0518181816105c0015281816108990152610b530152f35b60405162461bcd60e51b815260206004820152601f60248201527f436c61696d65723a20496e76616c696420726f6c6c75702061646472657373006044820152606490fd5b60405162461bcd60e51b815260206004820152602760248201527f436c61696d65723a20496e76616c696420657363726f77206d616e61676572206044820152666164647265737360c81b6064820152608490fd5b5f80fd5b634e487b7160e01b5f52604160045260245ffd5b51906001600160a01b038216820361018b5756fe60806040526004361015610010575b005b5f3560e01c8063117803e3146100ef57806313f8eefb146100ea578063186cc5a9146100e557806321176c5f146100e057806322708eb4146100db5780633db4cb91146100d65780635fc3ea0b146100d1578063688f625b146100cc57806388a9d554146100c7578063a8360f0d146100c2578063aff187d1146100bd578063b588d225146100b8578063b8ca8dd8146100b35763dc9036790361000e57610ec9565b610d9e565b610cc0565b6108bd565b61084f565b610816565b6107a8565b6106ce565b610492565b6102e7565b610279565b61022e565b6101a0565b610102565b5f9103126100fe57565b5f80fd5b346100fe575f7ffffffffffffffffffffffffffffffffffffffffffffffffffffffffffffffffc3601126100fe57602060405173ffffffffffffffffffffffffffffffffffffffff7f0000000000000000000000000000000000000000000000000000000000000000168152f35b7ffffffffffffffffffffffffffffffffffffffffffffffffffffffffffffffffc6101a09101126100fe57600490565b346100fe576101c07ffffffffffffffffffffffffffffffffffffffffffffffffffffffffffffffffc3601126100fe576101d936610170565b60205f6102056101a43560405190848201528381526101f9604082610f3d565b60405191828092610f83565b039060025afa15610229575f5160405160c0929092013514815280602081015b0390f35b610f95565b346100fe576101a07ffffffffffffffffffffffffffffffffffffffffffffffffffffffffffffffffc3601126100fe57602061027161026c36610170565b611104565b604051908152f35b346100fe575f7ffffffffffffffffffffffffffffffffffffffffffffffffffffffffffffffffc3601126100fe57602060405173ffffffffffffffffffffffffffffffffffffffff7f0000000000000000000000000000000000000000000000000000000000000000168152f35b346100fe576101c07ffffffffffffffffffffffffffffffffffffffffffffffffffffffffffffffffc3601126100fe5761032036610170565b6101a4359061035461034d6103348361112c565b73ffffffffffffffffffffffffffffffffffffffff1690565b3314611139565b604051907f6a945ac60000000000000000000000000000000000000000000000000000000082526060828061038c84600483016110f3565b038173ffffffffffffffffffffffffffffffffffffffff7f0000000000000000000000000000000000000000000000000000000000000000165afa80156102295760ff6103ec60406103ff93610404965f91610463575b50015160ff1690565b1660018114908115610458575b5061120f565b61176a565b61041f610418825f525f60205260405f2090565b5415611274565b81610431825f525f60205260405f2090565b557ff53c36d5749b67c1a2c1667c33d047b92fef1cc4c0d9c3f95dd9424a2442aa4e5f80a3005b60029150145f6103f9565b610485915060603d60601161048b575b61047d8183610f3d565b8101906111b3565b5f6103e3565b503d610473565b346100fe576101a07ffffffffffffffffffffffffffffffffffffffffffffffffffffffffffffffffc3601126100fe576104cb36610170565b6040517f6a945ac60000000000000000000000000000000000000000000000000000000081526060818061050285600483016110f3565b038173ffffffffffffffffffffffffffffffffffffffff7f0000000000000000000000000000000000000000000000000000000000000000165afa80156102295760ff6105606040600293610567955f916104635750015160ff1690565b16146112d9565b6105708161176a565b5f6105a861059a610588845f525f60205260405f2090565b549461059586151561133e565b61112c565b925f525f60205260405f2090565b5573ffffffffffffffffffffffffffffffffffffffff7f00000000000000000000000000000000000000000000000000000000000000001690813b156100fe576040517f86d6b90100000000000000000000000000000000000000000000000000000000815273ffffffffffffffffffffffffffffffffffffffff8216600482015260248101849052915f908390604490829084905af19182156102295773ffffffffffffffffffffffffffffffffffffffff92610689575b50167f242fe9a0f8ea86b0e5b10b2571a8863f74640585e6765a5a27e04119e85617365f80a3005b806106975f61069d93610f3d565b806100f4565b5f610661565b73ffffffffffffffffffffffffffffffffffffffff8116036100fe57565b35906106cc826106a3565b565b346100fe5760607ffffffffffffffffffffffffffffffffffffffffffffffffffffffffffffffffc3601126100fe57600435610709816106a3565b602435907f6337ed398c0e8467698c581374fdce4db14922df487b5a39483079f5f59b60a4602073ffffffffffffffffffffffffffffffffffffffff60443593610752856106a3565b61075a611779565b16936107678515156113a3565b610772811515611408565b61079f8173ffffffffffffffffffffffffffffffffffffffff861695610799871515611493565b87611816565b604051908152a3005b346100fe575f7ffffffffffffffffffffffffffffffffffffffffffffffffffffffffffffffffc3601126100fe57602060405173ffffffffffffffffffffffffffffffffffffffff7f0000000000000000000000000000000000000000000000000000000000000000168152f35b346100fe575f7ffffffffffffffffffffffffffffffffffffffffffffffffffffffffffffffffc3601126100fe57602047604051908152f35b346100fe575f7ffffffffffffffffffffffffffffffffffffffffffffffffffffffffffffffffc3601126100fe57602060405173ffffffffffffffffffffffffffffffffffffffff7f0000000000000000000000000000000000000000000000000000000000000000168152f35b346100fe576102007ffffffffffffffffffffffffffffffffffffffffffffffffffffffffffffffffc3601126100fe576108f636610170565b6101a4356101c435906101e43560205f61094c6040516101f9816109208887830160209181520190565b037fffffffffffffffffffffffffffffffffffffffffffffffffffffffffffffffe08101835282610f3d565b039060025afa15610229576109675f5160c0860135146114f8565b73ffffffffffffffffffffffffffffffffffffffff7f000000000000000000000000000000000000000000000000000000000000000016604051906109e3826109b7866020830160209181520190565b037fffffffffffffffffffffffffffffffffffffffffffffffffffffffffffffffe08101845283610f3d565b803b156100fe57610a285f929183926040519485809481937fb2ff9d370000000000000000000000000000000000000000000000000000000083528c6004840161155d565b03925af1801561022957610cac575b506060840173ffffffffffffffffffffffffffffffffffffffff610a5a8261112c565b16610c9d57507f000000000000000000000000000000000000000000000000000000000000000073ffffffffffffffffffffffffffffffffffffffff8116610aa38115156115b9565b4790610ab660408801358093101561161e565b803b156100fe575f82916004604051809581937fd0e30db00000000000000000000000000000000000000000000000000000000083525af1908115610229577f61e07364d84b16b13c4fb2be6fcc63acb6b8defc71ee70576cd52ef5600121df92610b3192610c89575b506040519081529081906020820190565b0390a1935b60408101359373ffffffffffffffffffffffffffffffffffffffff7f0000000000000000000000000000000000000000000000000000000000000000610b7f87828a8516611816565b1692833b156100fe576040517f47a8d0dd0000000000000000000000000000000000000000000000000000000081526004810192909252602482018690526044820152915f908390606490829084905af1908115610229577f5a326c78d48cafe075fba1880b9da07171dffea3adfeb2923f23611cc11f25ff9273ffffffffffffffffffffffffffffffffffffffff92610c75575b50610c70610c218261112c565b95610c37610c316020850161112c565b93611104565b9784604051958695169816968473ffffffffffffffffffffffffffffffffffffffff604092959493606083019683521660208201520152565b0390a4005b806106975f610c8393610f3d565b5f610c14565b806106975f610c9793610f3d565b5f610b20565b610ca69061112c565b93610b36565b806106975f610cba93610f3d565b5f610a37565b346100fe5760207ffffffffffffffffffffffffffffffffffffffffffffffffffffffffffffffffc3601126100fe576024602073ffffffffffffffffffffffffffffffffffffffff600435610d14816106a3565b16610d208115156113a3565b604051928380927f70a082310000000000000000000000000000000000000000000000000000000082523060048301525afa8015610229575f90610d6a575b604051908152602090f35b506020813d602011610d96575b81610d8460209383610f3d565b810103126100fe576102259051610d5f565b3d9150610d77565b346100fe5760407ffffffffffffffffffffffffffffffffffffffffffffffffffffffffffffffffc3601126100fe5760043573ffffffffffffffffffffffffffffffffffffffff602435610df1816106a3565b610df9611779565b610e04831515611408565b16610e10811515611493565b814710610e6b577f6337ed398c0e8467698c581374fdce4db14922df487b5a39483079f5f59b60a4610e6683610e565f8080808099895af1610e506116a8565b50611705565b6040519081529081906020820190565b0390a3005b60646040517f08c379a000000000000000000000000000000000000000000000000000000000815260206004820152601d60248201527f436c61696d65723a20496e73756666696369656e742062616c616e63650000006044820152fd5b346100fe5760207ffffffffffffffffffffffffffffffffffffffffffffffffffffffffffffffffc3601126100fe576004355f525f602052602060405f2054604051908152f35b7f4e487b71000000000000000000000000000000000000000000000000000000005f52604160045260245ffd5b90601f7fffffffffffffffffffffffffffffffffffffffffffffffffffffffffffffffe0910116810190811067ffffffffffffffff821117610f7e57604052565b610f10565b805191908290602001825e015f815290565b6040513d5f823e3d90fd5b6101808091610fcc84610fb2836106c1565b73ffffffffffffffffffffffffffffffffffffffff169052565b610ff8610fdb602083016106c1565b73ffffffffffffffffffffffffffffffffffffffff166020860152565b6040810135604085015261102e611011606083016106c1565b73ffffffffffffffffffffffffffffffffffffffff166060860152565b6080810135608085015261106461104760a083016106c1565b73ffffffffffffffffffffffffffffffffffffffff1660a0860152565b60c081013560c085015261109a61107d60e083016106c1565b73ffffffffffffffffffffffffffffffffffffffff1660e0860152565b6101008101356101008501526101208101356101208501526101408101356101408501526110ec6110ce61016083016106c1565b73ffffffffffffffffffffffffffffffffffffffff16610160860152565b0135910152565b6101a0810192916106cc9190610fa0565b604051611115602082018093610fa0565b6101a081526111266101c082610f3d565b51902090565b35611136816106a3565b90565b1561114057565b60646040517f08c379a000000000000000000000000000000000000000000000000000000000815260206004820152601560248201527f436c61696d65723a206f6e6c79206f66666572657200000000000000000000006044820152fd5b519067ffffffffffffffff821682036100fe57565b908160609103126100fe5760405190606082019082821067ffffffffffffffff831117610f7e5760409182526111e88161119e565b83526111f66020820161119e565b6020840152015160ff811681036100fe57604082015290565b1561121657565b60646040517f08c379a000000000000000000000000000000000000000000000000000000000815260206004820152601960248201527f436c61696d65723a2073776170206e6f742063726561746564000000000000006044820152fd5b1561127b57565b60646040517f08c379a000000000000000000000000000000000000000000000000000000000815260206004820152601b60248201527f436c61696d65723a20616c7265616479207265676973746572656400000000006044820152fd5b156112e057565b60646040517f08c379a000000000000000000000000000000000000000000000000000000000815260206004820152601960248201527f436c61696d65723a2073776170206e6f7420636c61696d6564000000000000006044820152fd5b1561134557565b60646040517f08c379a000000000000000000000000000000000000000000000000000000000815260206004820152601860248201527f436c61696d65723a206e6f2070656e64696e67206275726e00000000000000006044820152fd5b156113aa57565b60646040517f08c379a000000000000000000000000000000000000000000000000000000000815260206004820152601e60248201527f436c61696d65723a20496e76616c696420746f6b656e206164647265737300006044820152fd5b1561140f57565b60846040517f08c379a000000000000000000000000000000000000000000000000000000000815260206004820152602660248201527f436c61696d65723a20416d6f756e74206d75737420626520677265617465722060448201527f7468616e203000000000000000000000000000000000000000000000000000006064820152fd5b1561149a57565b60646040517f08c379a000000000000000000000000000000000000000000000000000000000815260206004820152601a60248201527f436c61696d65723a20496e76616c696420726563697069656e740000000000006044820152fd5b156114ff57565b60646040517f08c379a000000000000000000000000000000000000000000000000000000000815260206004820152601960248201527f436c61696d65723a20496e76616c696420707265696d616765000000000000006044820152fd5b90601f60206101e094611591857fffffffffffffffffffffffffffffffffffffffffffffffffffffffffffffffe095610fa0565b6101c06101a08601528051918291826101c0880152018686015e5f8582860101520116010190565b156115c057565b60646040517f08c379a000000000000000000000000000000000000000000000000000000000815260206004820152601d60248201527f436c61696d65723a20577261707065642043425443206e6f74207365740000006044820152fd5b1561162557565b60846040517f08c379a0000000000000000000000000000000000000000000000000000000008152602060048201526024808201527f436c61696d65723a20496e73756666696369656e74206e61746976652062616c60448201527f616e6365000000000000000000000000000000000000000000000000000000006064820152fd5b3d15611700573d9067ffffffffffffffff8211610f7e57604051916116f560207fffffffffffffffffffffffffffffffffffffffffffffffffffffffffffffffe0601f8401160184610f3d565b82523d5f602084013e565b606090565b1561170c57565b60646040517f08c379a000000000000000000000000000000000000000000000000000000000815260206004820152601f60248201527f436c61696d65723a204e6174697665207472616e73666572206661696c6564006044820152fd5b6101a090816040519182372090565b73ffffffffffffffffffffffffffffffffffffffff7f00000000000000000000000000000000000000000000000000000000000000001633036117b857565b60646040517f08c379a000000000000000000000000000000000000000000000000000000000815260206004820152601360248201527f436c61696d65723a204f6e6c79206f776e6572000000000000000000000000006044820152fd5b9173ffffffffffffffffffffffffffffffffffffffff604051927fa9059cbb000000000000000000000000000000000000000000000000000000005f521660045260245260205f60448180865af160015f51148116156118c0575b6040919091521561187f5750565b7f5274afe7000000000000000000000000000000000000000000000000000000005f5273ffffffffffffffffffffffffffffffffffffffff1660045260245ffd5b60018115166118d6573d15833b15151616611871565b503d5f823e3d90fdfea26469706673582212204449e9b7babc2a3dc9fef411c8f3d67520246df2f44efc966bb51e1cee2ae5fe64736f6c634300081c0033","linkReferences":{}},"methodIdentifiers":{"ESCROW_MANAGER_ADDRESS()":"688f625b","OWNER()":"117803e3","ROLLUP_ADDRESS()":"a8360f0d","WRAPPED_CBTC()":"21176c5f","addBurnIfSwapCreated((address,address,uint256,address,uint256,address,bytes32,address,bytes32,uint256,uint256,address,bytes32),bytes32)":"22708eb4","claimAndMintInRollup((address,address,uint256,address,uint256,address,bytes32,address,bytes32,uint256,uint256,address,bytes32),bytes32,bytes32,bytes32)":"aff187d1","getERC20Balance(address)":"b588d225","getEscrowHash((address,address,uint256,address,uint256,address,bytes32,address,bytes32,uint256,uint256,address,bytes32))":"186cc5a9","getNativeBalance()":"88a9d554","pendingBurns(bytes32)":"dc903679","verifyPreimage((address,address,uint256,address,uint256,address,bytes32,address,bytes32,uint256,uint256,address,bytes32),bytes32)":"13f8eefb","verifySwapAndBurn((address,address,uint256,address,uint256,address,bytes32,address,bytes32,uint256,uint256,address,bytes32))":"3db4cb91","withdrawERC20(address,uint256,address)":"5fc3ea0b","withdrawNative(uint256,address)":"b8ca8dd8"},"id":56}