{
  "_format": "hh3-artifact-1",
  "contractName": "SocialRecovery",
  "sourceName": "contracts/SocialRecovery.sol",
  "abi": [
    {
      "inputs": [
        {
          "internalType": "address",
          "name": "initialOwner",
          "type": "address"
        }
      ],
      "stateMutability": "nonpayable",
      "type": "constructor"
    },
    {
      "inputs": [
        {
          "internalType": "address",
          "name": "owner",
          "type": "address"
        }
      ],
      "name": "OwnableInvalidOwner",
      "type": "error"
    },
    {
      "inputs": [
        {
          "internalType": "address",
          "name": "account",
          "type": "address"
        }
      ],
      "name": "OwnableUnauthorizedAccount",
      "type": "error"
    },
    {
      "anonymous": false,
      "inputs": [
        {
          "indexed": false,
          "internalType": "string",
          "name": "oldCID",
          "type": "string"
        },
        {
          "indexed": false,
          "internalType": "string",
          "name": "newCID",
          "type": "string"
        }
      ],
      "name": "ChildLitActionCIDUpdated",
      "type": "event"
    },
    {
      "anonymous": false,
      "inputs": [
        {
          "indexed": true,
          "internalType": "address",
          "name": "user",
          "type": "address"
        },
        {
          "indexed": false,
          "internalType": "string",
          "name": "guardianCID",
          "type": "string"
        }
      ],
      "name": "GuardianCIDAdded",
      "type": "event"
    },
    {
      "anonymous": false,
      "inputs": [
        {
          "indexed": true,
          "internalType": "address",
          "name": "previousOwner",
          "type": "address"
        },
        {
          "indexed": true,
          "internalType": "address",
          "name": "newOwner",
          "type": "address"
        }
      ],
      "name": "OwnershipTransferred",
      "type": "event"
    },
    {
      "inputs": [
        {
          "internalType": "address",
          "name": "user",
          "type": "address"
        },
        {
          "internalType": "string",
          "name": "guardianCID",
          "type": "string"
        },
        {
          "internalType": "string",
          "name": "guardianValue",
          "type": "string"
        }
      ],
      "name": "addGuardianCID",
      "outputs": [],
      "stateMutability": "nonpayable",
      "type": "function"
    },
    {
      "inputs": [],
      "name": "childLitActionCID",
      "outputs": [
        {
          "internalType": "string",
          "name": "",
          "type": "string"
        }
      ],
      "stateMutability": "view",
      "type": "function"
    },
    {
      "inputs": [],
      "name": "getChildLitActionCID",
      "outputs": [
        {
          "internalType": "string",
          "name": "",
          "type": "string"
        }
      ],
      "stateMutability": "view",
      "type": "function"
    },
    {
      "inputs": [
        {
          "internalType": "address",
          "name": "user",
          "type": "address"
        }
      ],
      "name": "getGuardianConfig",
      "outputs": [
        {
          "internalType": "uint256",
          "name": "threshold",
          "type": "uint256"
        },
        {
          "internalType": "bool",
          "name": "enabled",
          "type": "bool"
        },
        {
          "internalType": "uint256",
          "name": "guardianCount",
          "type": "uint256"
        },
        {
          "components": [
            {
              "internalType": "bytes32",
              "name": "cidHash",
              "type": "bytes32"
            },
            {
              "internalType": "bytes",
              "name": "guardianValue",
              "type": "bytes"
            }
          ],
          "internalType": "struct SocialRecovery.GuardianEntry[]",
          "name": "guardians",
          "type": "tuple[]"
        }
      ],
      "stateMutability": "view",
      "type": "function"
    },
    {
      "inputs": [
        {
          "internalType": "address",
          "name": "",
          "type": "address"
        }
      ],
      "name": "guardianConfigs",
      "outputs": [
        {
          "internalType": "uint256",
          "name": "threshold",
          "type": "uint256"
        },
        {
          "internalType": "bool",
          "name": "enabled",
          "type": "bool"
        }
      ],
      "stateMutability": "view",
      "type": "function"
    },
    {
      "inputs": [],
      "name": "owner",
      "outputs": [
        {
          "internalType": "address",
          "name": "",
          "type": "address"
        }
      ],
      "stateMutability": "view",
      "type": "function"
    },
    {
      "inputs": [],
      "name": "renounceOwnership",
      "outputs": [],
      "stateMutability": "nonpayable",
      "type": "function"
    },
    {
      "inputs": [
        {
          "internalType": "string",
          "name": "newCID",
          "type": "string"
        }
      ],
      "name": "setChildLitActionCID",
      "outputs": [],
      "stateMutability": "nonpayable",
      "type": "function"
    },
    {
      "inputs": [
        {
          "internalType": "address",
          "name": "newOwner",
          "type": "address"
        }
      ],
      "name": "transferOwnership",
      "outputs": [],
      "stateMutability": "nonpayable",
      "type": "function"
    },
    {
      "inputs": [
        {
          "internalType": "address",
          "name": "user",
          "type": "address"
        },
        {
          "internalType": "uint256",
          "name": "newThreshold",
          "type": "uint256"
        }
      ],
      "name": "updateThreshold",
      "outputs": [],
      "stateMutability": "nonpayable",
      "type": "function"
    }
  ],
  "bytecode": "0x6080346100b957601f610dec38819003918201601f19168301916001600160401b038311848410176100bd578084926020946040528339810103126100b957516001600160a01b0390818116908190036100b95780156100a1575f80546001600160a01b03198116831782556040519316907f8be0079c531659141344cd1fd0a4f28419497f9722a3daafe3b4186f6b6457e09080a3610d1a90816100d28239f35b604051631e4fbdf760e01b81525f6004820152602490fd5b5f80fd5b634e487b7160e01b5f52604160045260245ffdfe608060409080825260049081361015610016575f80fd5b5f3560e01c9081630bb6094a146108cf57508063223b0a9b1461089b57806342e7f44e1461089b5780634e546bd1146106565780635eb0bad0146102bf578063715018a6146102685780638da5cb5b14610241578063924af1bc14610162578063bf00169f1461011d5763f2fde38b1461008e575f80fd5b34610119576020366003190112610119576100a7610aac565b906100b0610cb9565b6001600160a01b039182169283156101035750505f54826bffffffffffffffffffffffff60a01b8216175f55167f8be0079c531659141344cd1fd0a4f28419497f9722a3daafe3b4186f6b6457e05f80a3005b905f6024925191631e4fbdf760e01b8352820152fd5b5f80fd5b8234610119576020366003190112610119576001600160a01b0361013f610aac565b165f526001602052805f2060ff6001825492015416825191825215156020820152f35b50903461011957806003193601126101195761017c610aac565b9160243592610189610cb9565b60018060a01b03165f526001602052815f2091600283015480156101fe5784151590816101f3575b50156101bc57505055005b906020606492519162461bcd60e51b83528201526011602482015270125b9d985b1a59081d1a1c995cda1bdb19607a1b6044820152fd5b90508411155f6101b1565b815162461bcd60e51b8152602081850152601760248201527f4e6f20677561726469616e7320636f6e666967757265640000000000000000006044820152606490fd5b8234610119575f366003190112610119575f5490516001600160a01b039091168152602090f35b34610119575f36600319011261011957610280610cb9565b5f80546001600160a01b0319811682556001600160a01b03167f8be0079c531659141344cd1fd0a4f28419497f9722a3daafe3b4186f6b6457e08280a3005b509034610119576060366003190112610119576102da610aac565b9160249167ffffffffffffffff8335818111610119576102fd9036908501610c4d565b93604435828111610119576103159036908601610c4d565b9561031e610cb9565b60018060a01b031695865f52600192602095848752855f2093600285018054908115610644575b60ff888801541615610602578a51156105c0578a518a8c01209184880190835f52818c5260ff8b5f20541661057e57835f52600389018c528a5f20558a52885f208860ff1982541617905588519161039c83610b38565b82528982019586528054906801000000000000000082101561056c5788820180825582101561055a57908892915f528a5f2090831b01905181550193519182519384116105495750506103ef8354610b00565b601f8111610510575b508690601f831160011461048657827fcd5e9273c5e2a31f16cb4cda551d1671f482e8540f9dac80d99e3b0d01271851999897959361046e979593610452935f9261047b575b50508160011b915f199060031b1c19161790565b90555b805415610473575b505051928284938452830190610ac2565b0390a2005b555f8061045d565b015190505f8061043e565b90601f19831691845f52885f20925f5b8181106104fb5750928795939285927fcd5e9273c5e2a31f16cb4cda551d1671f482e8540f9dac80d99e3b0d012718519c9b9a989661046e9a95106104e3575b505050811b019055610455565b01515f1960f88460031b161c191690555f80806104d6565b82840151855593880193928a01928a01610496565b61053990845f52885f20601f850160051c8101918a861061053f575b601f0160051c0190610ca3565b5f6103f8565b909150819061052c565b604190634e487b7160e01b5f52525ffd5b83603286634e487b7160e01b5f52525ffd5b83604186634e487b7160e01b5f52525ffd5b8a5162461bcd60e51b81528087018d90526017818701527f477561726469616e20416c7265616479206578697374730000000000000000006044820152606490fd5b885162461bcd60e51b81528085018b9052601c818501527f477561726469616e204349442063616e6e6f7420626520656d707479000000006044820152606490fd5b885162461bcd60e51b81528085018b9052601a818501527f477561726469616e207265636f766572792064697361626c65640000000000006044820152606490fd5b868801805460ff191689179055610345565b503461011957602091826003193601126101195767ffffffffffffffff8235818111610119576106899036908501610c4d565b90610692610cb9565b81511561084c576106a1610b8a565b93825191821161083957506106b7600254610b00565b601f81116107ec575b5084601f82116001146107475791610713827f6044ce709730a788d06eb07d22b9177941c23ceecefb7a3c56d9dcf69fd4e86f9793610737955f9161073c575b508160011b915f199060031b1c19161790565b6002555b61072a8451958587968752860190610ac2565b9184830390850152610ac2565b0390a1005b90508301515f610700565b601f1982169060025f527f405787fa12a823e0f2b7631cc41b3ba8828b3321ca811111fa75cd3aa3bb5ace915f5b8181106107d55750926107379492600192827f6044ce709730a788d06eb07d22b9177941c23ceecefb7a3c56d9dcf69fd4e86f9a96106107bd575b5050811b01600255610717565b8401515f1960f88460031b161c191690555f806107b0565b919288600181928689015181550194019201610775565b6108339060025f527f405787fa12a823e0f2b7631cc41b3ba8828b3321ca811111fa75cd3aa3bb5ace601f840160051c81019188851061053f57601f0160051c0190610ca3565b5f6106c0565b604190634e487b7160e01b5f525260245ffd5b825162461bcd60e51b81528085018690526024808201527f4368696c64204c697420416374696f6e204349442063616e6e6f7420626520656044820152636d70747960e01b6064820152608490fd5b8234610119575f366003190112610119576108cb906108b8610b8a565b9051918291602083526020830190610ac2565b0390f35b8284346101195760209283600319360112610119576001600160a01b036108f4610aac565b165f52600193848152825f209283549260ff87860154169560028096019586549167ffffffffffffffff831161083957506005989698959493959061093e858460051b0185610b68565b828452848401809a5f52855f205f915b8583106109d85750505050508451966080880194885215158388015284870152608060608701525180925260a085019260a08360051b87010196935f915b8483106109995787890388f35b90919293949584806109c6839b609f198c820301875285838c518051845201519181858201520190610ac2565b9a98019695949190910192019061098c565b998388829e9c8c9a9b9c516109ec81610b38565b855481528b5185870180545f91610a0282610b00565b9182855284888b831692835f14610a8c57505050600114610a45575b505081610a2c910382610b68565b838201528152019201920191909b999b9897969861094e565b9091505f52845f2090875f925b828410610a69575050508101840181610a2c610a1e565b809192949698509692949654838688010152019201899593918f95938890610a52565b60ff1916818301529315158f1b81019093019350610a2c9150610a1e9050565b600435906001600160a01b038216820361011957565b91908251928382525f5b848110610aec575050825f602080949584010152601f8019910116010190565b602081830181015184830182015201610acc565b90600182811c92168015610b2e575b6020831014610b1a57565b634e487b7160e01b5f52602260045260245ffd5b91607f1691610b0f565b6040810190811067ffffffffffffffff821117610b5457604052565b634e487b7160e01b5f52604160045260245ffd5b90601f8019910116810190811067ffffffffffffffff821117610b5457604052565b604051905f8260025491610b9d83610b00565b80835292602090600190818116908115610c295750600114610bca575b5050610bc892500383610b68565b565b91509260025f527f405787fa12a823e0f2b7631cc41b3ba8828b3321ca811111fa75cd3aa3bb5ace935f925b828410610c115750610bc89450505081016020015f80610bba565b85548885018301529485019487945092810192610bf6565b91505060209250610bc894915060ff191682840152151560051b8201015f80610bba565b81601f820112156101195780359067ffffffffffffffff8211610b545760405192610c82601f8401601f191660200185610b68565b8284526020838301011161011957815f926020809301838601378301015290565b818110610cae575050565b5f8155600101610ca3565b5f546001600160a01b03163303610ccc57565b60405163118cdaa760e01b8152336004820152602490fdfea264697066735822122022657b86d01322d71294d3f282e5b78936d62b7a7f4ae95b8157ea569196b19764736f6c63430008180033",
  "linkReferences": {},
  "deployedLinkReferences": {},
  "immutableReferences": {},
  "inputSourceName": "project/contracts/SocialRecovery.sol",
  "buildInfoId": "solc-0_8_24-c7693908c84493de65f92af846f00ffad19901f8"
}