{
  "_format": "hh3-artifact-1",
  "contractName": "Eip7702SimpleAccount",
  "sourceName": "contracts/Eip7702SimpleAccount.sol",
  "abi": [
    {
      "inputs": [],
      "stateMutability": "nonpayable",
      "type": "constructor"
    },
    {
      "inputs": [],
      "name": "ECDSAInvalidSignature",
      "type": "error"
    },
    {
      "inputs": [
        {
          "internalType": "uint256",
          "name": "length",
          "type": "uint256"
        }
      ],
      "name": "ECDSAInvalidSignatureLength",
      "type": "error"
    },
    {
      "inputs": [
        {
          "internalType": "bytes32",
          "name": "s",
          "type": "bytes32"
        }
      ],
      "name": "ECDSAInvalidSignatureS",
      "type": "error"
    },
    {
      "anonymous": false,
      "inputs": [
        {
          "indexed": true,
          "internalType": "uint256",
          "name": "nonce",
          "type": "uint256"
        }
      ],
      "name": "NonceUsed",
      "type": "event"
    },
    {
      "inputs": [],
      "name": "domainSeparator",
      "outputs": [
        {
          "internalType": "bytes32",
          "name": "",
          "type": "bytes32"
        }
      ],
      "stateMutability": "view",
      "type": "function"
    },
    {
      "inputs": [
        {
          "components": [
            {
              "internalType": "address",
              "name": "target",
              "type": "address"
            },
            {
              "internalType": "uint256",
              "name": "value",
              "type": "uint256"
            },
            {
              "internalType": "bytes",
              "name": "data",
              "type": "bytes"
            }
          ],
          "internalType": "struct Eip7702SimpleAccount.Call[]",
          "name": "calls",
          "type": "tuple[]"
        },
        {
          "internalType": "uint256",
          "name": "_nonce",
          "type": "uint256"
        },
        {
          "internalType": "uint256",
          "name": "validAfter",
          "type": "uint256"
        },
        {
          "internalType": "uint256",
          "name": "validUntil",
          "type": "uint256"
        },
        {
          "internalType": "bytes",
          "name": "signature",
          "type": "bytes"
        }
      ],
      "name": "executeMeta",
      "outputs": [],
      "stateMutability": "nonpayable",
      "type": "function"
    },
    {
      "inputs": [
        {
          "components": [
            {
              "internalType": "address",
              "name": "target",
              "type": "address"
            },
            {
              "internalType": "uint256",
              "name": "value",
              "type": "uint256"
            },
            {
              "internalType": "bytes",
              "name": "data",
              "type": "bytes"
            }
          ],
          "internalType": "struct Eip7702SimpleAccount.Call[]",
          "name": "calls",
          "type": "tuple[]"
        }
      ],
      "name": "hashCalls",
      "outputs": [
        {
          "internalType": "bytes32",
          "name": "",
          "type": "bytes32"
        }
      ],
      "stateMutability": "pure",
      "type": "function"
    },
    {
      "inputs": [
        {
          "internalType": "uint256",
          "name": "_nonce",
          "type": "uint256"
        }
      ],
      "name": "isNonceUsed",
      "outputs": [
        {
          "internalType": "bool",
          "name": "",
          "type": "bool"
        }
      ],
      "stateMutability": "view",
      "type": "function"
    },
    {
      "inputs": [
        {
          "internalType": "bytes32",
          "name": "hash",
          "type": "bytes32"
        },
        {
          "internalType": "bytes",
          "name": "signature",
          "type": "bytes"
        }
      ],
      "name": "isValidSignature",
      "outputs": [
        {
          "internalType": "bytes4",
          "name": "",
          "type": "bytes4"
        }
      ],
      "stateMutability": "view",
      "type": "function"
    },
    {
      "inputs": [
        {
          "internalType": "bytes",
          "name": "data",
          "type": "bytes"
        },
        {
          "internalType": "bytes",
          "name": "signature",
          "type": "bytes"
        }
      ],
      "name": "isValidSignature",
      "outputs": [
        {
          "internalType": "bytes4",
          "name": "",
          "type": "bytes4"
        }
      ],
      "stateMutability": "view",
      "type": "function"
    },
    {
      "inputs": [
        {
          "internalType": "bytes4",
          "name": "interfaceId",
          "type": "bytes4"
        }
      ],
      "name": "supportsInterface",
      "outputs": [
        {
          "internalType": "bool",
          "name": "",
          "type": "bool"
        }
      ],
      "stateMutability": "pure",
      "type": "function"
    },
    {
      "inputs": [
        {
          "internalType": "uint256",
          "name": "",
          "type": "uint256"
        }
      ],
      "name": "usedNonces",
      "outputs": [
        {
          "internalType": "bool",
          "name": "",
          "type": "bool"
        }
      ],
      "stateMutability": "view",
      "type": "function"
    }
  ],
  "bytecode": "0x6080806040523461001657610afd908161001b8239f35b5f80fdfe6080604090808252600480361015610015575f80fd5b5f3560e01c91826301ffc9a714610511575081631626ba7e146104d457816320c13b0b1461046c5781635d00bb12146100da5781635df4c239146101055781636717e41c146100da5781637b6d6a181461009e575063f698da2514610078575f80fd5b3461009a575f36600319011261009a57602090610093610901565b9051908152f35b5f80fd5b823461009a57602036600319011261009a5781359167ffffffffffffffff831161009a576100d461009391602094369101610591565b906107c4565b823461009a57602036600319011261009a57602091355f525f825260ff815f20541690519015158152f35b823461009a5760a036600319011261009a5767ffffffffffffffff90823582811161009a576101379036908501610591565b93909160248035946044928335976064359260843581811161009a576101609036908901610563565b918a5f526020955f875260ff865f205416610436578c42106103f5578042116103bc578b9c610195868d9e999a9b9c9d6107c4565b918751918a8301937f19667787bf8e4e28ff931080c268a52496d168906174261eda235b32144164f38552898401526060996060840152608083015260a082015260a081526101e3816105c2565b5190206101ee610901565b918651918983019361190160f01b855260228401526042830152604282526080820190828210908211176103aa5786525190206102439261023a92610234913691610630565b90610991565b90929192610a58565b306001600160a01b039091160361037957885f525f8452815f2098600199600160ff198254161790557f1be5cb2f29a4876ca6fdf1177257bc6f2671bc7e036db0815016a6b766ecd1155f80a25f5b81811061029b57005b5f806102b06102ab84868e61072f565b610765565b8b6102d66102cd86888c6102c583838861072f565b01359461072f565b88810190610779565b91908289519384928337810185815203925af13d15610372573d906102fa82610614565b91610307865193846105f2565b82523d5f8884013e5b1561031d57508901610292565b878988888094885195869462461bcd60e51b8652850152805180938501525f5b83811061035c5750505f83830185015250601f01601f19168101030190fd5b818101830151878201870152869450820161033d565b8490610310565b815162461bcd60e51b8152808801859052600d818701526c626164207369676e617475726560981b81880152606490fd5b8960418d634e487b7160e01b5f52525ffd5b855162461bcd60e51b8152808b018890526015818a015274185d5d1a1bdc9a5e985d1a5bdb88195e1c1a5c9959605a1b818b0152606490fd5b855162461bcd60e51b8152808b01889052601b818a01527f617574686f72697a6174696f6e206e6f74207965742076616c69640000000000818b0152606490fd5b855162461bcd60e51b8152808b018890526012818a0152711b9bdb98d948185b1c9958591e481d5cd95960721b818b0152606490fd5b823461009a578060031936011261009a5767ffffffffffffffff91803583811161009a5761049d9036908301610563565b9060243594851161009a576104ba6104c293602096369101610563565b9290916106cb565b90516001600160e01b03199091168152f35b823461009a578060031936011261009a5760243567ffffffffffffffff811161009a5760209261050a6104c29236908301610563565b9135610666565b903461009a57602036600319011261009a57359063ffffffff60e01b821680920361009a576020916301ffc9a760e01b8114908115610552575b5015158152f35b630b135d3f60e11b1490508361054b565b9181601f8401121561009a5782359167ffffffffffffffff831161009a576020838186019501011161009a57565b9181601f8401121561009a5782359167ffffffffffffffff831161009a576020808501948460051b01011161009a57565b60c0810190811067ffffffffffffffff8211176105de57604052565b634e487b7160e01b5f52604160045260245ffd5b90601f8019910116810190811067ffffffffffffffff8211176105de57604052565b67ffffffffffffffff81116105de57601f01601f191660200190565b92919261063c82610614565b9161064a60405193846105f2565b82948184528183011161009a578281602093845f960137010152565b9061023490610676933691610630565b5060048110156106b7571590816106a4575b50610699576001600160e01b031990565b630b135d3f60e11b90565b6001600160a01b0316301490505f610688565b634e487b7160e01b5f52602160045260245ffd5b916106df6106ee9493610234933691610630565b60208151910120923691610630565b5060048110156106b75715908161071c575b50610711576001600160e01b031990565b6320c13b0b60e01b90565b6001600160a01b0316301490505f610700565b91908110156107515760051b81013590605e198136030182121561009a570190565b634e487b7160e01b5f52603260045260245ffd5b356001600160a01b038116810361009a5790565b903590601e198136030182121561009a570180359067ffffffffffffffff821161009a5760200191813603831361009a57565b67ffffffffffffffff81116105de5760051b60200190565b6107cd826107ac565b9160406107dc815194856105f2565b8184526107e8826107ac565b60209385850193601f19939284013686375f5b81811061084b575050505183819482018096519094915f5b828110610834575050505061082e92039081018352826105f2565b51902090565b835187529581019587945092810192600101610813565b61085981838598979861072f565b61086281610765565b9061087961087287830183610779565b3691610630565b89815191012089875192818401947f84fa2cf05cd88e992eae77e851af68a4ee278dcff6ef504e487a55b3baadfbe5865260018060a01b0316898501520135606083015260809081830152815260a0810181811067ffffffffffffffff8211176105de57865251902090885181101561075157600191888260051b8b010152019493946107fb565b60405160208101907f8b73c3c69bb8fe3d512ecc4cf759cc79239f7b179b0ffacaa9a75d522b39400f82527f0617916c66cf2f8bef8f2360f69f42e7fb36391164667ba437bda5f2f137968b60408201527fc89efdaa54c0f20c7adf612882df0950f5a951637e0307cdcb4c672f298b8bc660608201524660808201523060a082015260a0815261082e816105c2565b81519190604183036109c1576109ba9250602082015190606060408401519301515f1a906109cb565b9192909190565b50505f9160029190565b91907f7fffffffffffffffffffffffffffffff5d576e7357a4501ddfe92f46681b20a08411610a4d579160209360809260ff5f9560405194855216868401526040830152606082015282805260015afa15610a42575f516001600160a01b03811615610a3857905f905f90565b505f906001905f90565b6040513d5f823e3d90fd5b5050505f9160039190565b60048110156106b75780610a6a575050565b60018103610a845760405163f645eedf60e01b8152600490fd5b60028103610aa55760405163fce698f760e01b815260048101839052602490fd5b600314610aaf5750565b602490604051906335e2f38360e21b82526004820152fdfea264697066735822122076b43f5cafc5505f88cb1a19cff56cceed04ad7839fc21aacf5509b60e293dba64736f6c63430008180033",
  "linkReferences": {},
  "deployedLinkReferences": {},
  "immutableReferences": {},
  "inputSourceName": "project/contracts/Eip7702SimpleAccount.sol",
  "buildInfoId": "solc-0_8_24-c7693908c84493de65f92af846f00ffad19901f8"
}