{
  "_format": "hh3-artifact-1",
  "contractName": "RollupV1",
  "sourceName": "contracts/rollup/RollupV1.sol",
  "abi": [
    {
      "inputs": [],
      "stateMutability": "nonpayable",
      "type": "constructor"
    },
    {
      "inputs": [],
      "name": "ECDSAInvalidSignature",
      "type": "error"
    },
    {
      "inputs": [
        {
          "internalType": "uint256",
          "name": "length",
          "type": "uint256"
        }
      ],
      "name": "ECDSAInvalidSignatureLength",
      "type": "error"
    },
    {
      "inputs": [
        {
          "internalType": "bytes32",
          "name": "s",
          "type": "bytes32"
        }
      ],
      "name": "ECDSAInvalidSignatureS",
      "type": "error"
    },
    {
      "inputs": [],
      "name": "InvalidInitialization",
      "type": "error"
    },
    {
      "inputs": [],
      "name": "NotInitializing",
      "type": "error"
    },
    {
      "inputs": [
        {
          "internalType": "address",
          "name": "owner",
          "type": "address"
        }
      ],
      "name": "OwnableInvalidOwner",
      "type": "error"
    },
    {
      "inputs": [
        {
          "internalType": "address",
          "name": "account",
          "type": "address"
        }
      ],
      "name": "OwnableUnauthorizedAccount",
      "type": "error"
    },
    {
      "inputs": [
        {
          "internalType": "address",
          "name": "token",
          "type": "address"
        }
      ],
      "name": "SafeERC20FailedOperation",
      "type": "error"
    },
    {
      "anonymous": false,
      "inputs": [
        {
          "indexed": true,
          "internalType": "address",
          "name": "token",
          "type": "address"
        },
        {
          "indexed": true,
          "internalType": "bytes32",
          "name": "burn_hash",
          "type": "bytes32"
        },
        {
          "indexed": true,
          "internalType": "address",
          "name": "recipient",
          "type": "address"
        },
        {
          "indexed": false,
          "internalType": "bool",
          "name": "substitute",
          "type": "bool"
        },
        {
          "indexed": false,
          "internalType": "bool",
          "name": "success",
          "type": "bool"
        }
      ],
      "name": "Burned",
      "type": "event"
    },
    {
      "anonymous": false,
      "inputs": [
        {
          "indexed": false,
          "internalType": "uint64",
          "name": "version",
          "type": "uint64"
        }
      ],
      "name": "Initialized",
      "type": "event"
    },
    {
      "anonymous": false,
      "inputs": [
        {
          "indexed": true,
          "internalType": "bytes32",
          "name": "mint_hash",
          "type": "bytes32"
        },
        {
          "indexed": false,
          "internalType": "uint256",
          "name": "value",
          "type": "uint256"
        },
        {
          "indexed": false,
          "internalType": "bytes32",
          "name": "note_kind",
          "type": "bytes32"
        }
      ],
      "name": "MintAdded",
      "type": "event"
    },
    {
      "anonymous": false,
      "inputs": [
        {
          "indexed": true,
          "internalType": "bytes32",
          "name": "hash",
          "type": "bytes32"
        },
        {
          "indexed": false,
          "internalType": "bytes32",
          "name": "value",
          "type": "bytes32"
        },
        {
          "indexed": false,
          "internalType": "bytes32",
          "name": "note_kind",
          "type": "bytes32"
        }
      ],
      "name": "Minted",
      "type": "event"
    },
    {
      "anonymous": false,
      "inputs": [
        {
          "indexed": true,
          "internalType": "address",
          "name": "previousOwner",
          "type": "address"
        },
        {
          "indexed": true,
          "internalType": "address",
          "name": "newOwner",
          "type": "address"
        }
      ],
      "name": "OwnershipTransferred",
      "type": "event"
    },
    {
      "anonymous": false,
      "inputs": [
        {
          "indexed": true,
          "internalType": "uint256",
          "name": "height",
          "type": "uint256"
        },
        {
          "indexed": false,
          "internalType": "bytes32",
          "name": "root",
          "type": "bytes32"
        }
      ],
      "name": "RollupVerified",
      "type": "event"
    },
    {
      "anonymous": false,
      "inputs": [
        {
          "indexed": true,
          "internalType": "bytes32",
          "name": "oldRoot",
          "type": "bytes32"
        },
        {
          "indexed": true,
          "internalType": "bytes32",
          "name": "newRoot",
          "type": "bytes32"
        }
      ],
      "name": "RootHashUpdated",
      "type": "event"
    },
    {
      "anonymous": false,
      "inputs": [
        {
          "indexed": false,
          "internalType": "uint256",
          "name": "index",
          "type": "uint256"
        },
        {
          "indexed": false,
          "internalType": "uint256",
          "name": "validFrom",
          "type": "uint256"
        }
      ],
      "name": "ValidatorSetAdded",
      "type": "event"
    },
    {
      "anonymous": false,
      "inputs": [
        {
          "indexed": false,
          "internalType": "bytes32",
          "name": "verificationKey",
          "type": "bytes32"
        },
        {
          "indexed": false,
          "internalType": "address",
          "name": "zkVerifierAddress",
          "type": "address"
        },
        {
          "indexed": false,
          "internalType": "uint32",
          "name": "messages_length",
          "type": "uint32"
        }
      ],
      "name": "VerifierAdded",
      "type": "event"
    },
    {
      "anonymous": false,
      "inputs": [
        {
          "indexed": false,
          "internalType": "bytes32",
          "name": "verificationKey",
          "type": "bytes32"
        },
        {
          "indexed": false,
          "internalType": "address",
          "name": "zkVerifierAddress",
          "type": "address"
        }
      ],
      "name": "VerifierRemoved",
      "type": "event"
    },
    {
      "inputs": [],
      "name": "DOMAIN_SEPARATOR",
      "outputs": [
        {
          "internalType": "bytes32",
          "name": "",
          "type": "bytes32"
        }
      ],
      "stateMutability": "view",
      "type": "function"
    },
    {
      "inputs": [
        {
          "internalType": "address",
          "name": "burnSubstitutor",
          "type": "address"
        }
      ],
      "name": "addBurnSubstitutor",
      "outputs": [],
      "stateMutability": "nonpayable",
      "type": "function"
    },
    {
      "inputs": [
        {
          "internalType": "bytes32",
          "name": "noteKind",
          "type": "bytes32"
        },
        {
          "internalType": "address",
          "name": "tokenAddress",
          "type": "address"
        }
      ],
      "name": "addToken",
      "outputs": [],
      "stateMutability": "nonpayable",
      "type": "function"
    },
    {
      "inputs": [
        {
          "internalType": "bytes32",
          "name": "verificationKeyHash",
          "type": "bytes32"
        },
        {
          "internalType": "address",
          "name": "verifierAddress",
          "type": "address"
        },
        {
          "internalType": "uint32",
          "name": "messages_length",
          "type": "uint32"
        }
      ],
      "name": "addZkVerifier",
      "outputs": [],
      "stateMutability": "nonpayable",
      "type": "function"
    },
    {
      "inputs": [],
      "name": "blockHeight",
      "outputs": [
        {
          "internalType": "uint256",
          "name": "",
          "type": "uint256"
        }
      ],
      "stateMutability": "view",
      "type": "function"
    },
    {
      "inputs": [],
      "name": "currentRootHash",
      "outputs": [
        {
          "internalType": "bytes32",
          "name": "",
          "type": "bytes32"
        }
      ],
      "stateMutability": "view",
      "type": "function"
    },
    {
      "inputs": [
        {
          "internalType": "bytes32",
          "name": "newRoot",
          "type": "bytes32"
        },
        {
          "internalType": "uint256",
          "name": "height",
          "type": "uint256"
        },
        {
          "internalType": "bytes32",
          "name": "otherHashFromBlockHash",
          "type": "bytes32"
        }
      ],
      "name": "debugGetIntermediateHashes",
      "outputs": [
        {
          "internalType": "bytes32",
          "name": "proposalHash",
          "type": "bytes32"
        },
        {
          "internalType": "bytes32",
          "name": "acceptMsg",
          "type": "bytes32"
        },
        {
          "internalType": "bytes32",
          "name": "sigMsg",
          "type": "bytes32"
        }
      ],
      "stateMutability": "pure",
      "type": "function"
    },
    {
      "inputs": [
        {
          "internalType": "bytes32",
          "name": "acceptMsg",
          "type": "bytes32"
        }
      ],
      "name": "debugGetPackedBytes",
      "outputs": [
        {
          "internalType": "bytes",
          "name": "",
          "type": "bytes"
        }
      ],
      "stateMutability": "pure",
      "type": "function"
    },
    {
      "inputs": [
        {
          "internalType": "bytes32",
          "name": "newRoot",
          "type": "bytes32"
        },
        {
          "internalType": "uint256",
          "name": "height",
          "type": "uint256"
        },
        {
          "internalType": "bytes32",
          "name": "otherHashFromBlockHash",
          "type": "bytes32"
        }
      ],
      "name": "debugGetSignatureMessageHash",
      "outputs": [
        {
          "internalType": "bytes32",
          "name": "",
          "type": "bytes32"
        }
      ],
      "stateMutability": "pure",
      "type": "function"
    },
    {
      "inputs": [],
      "name": "escrowManager",
      "outputs": [
        {
          "internalType": "address",
          "name": "",
          "type": "address"
        }
      ],
      "stateMutability": "view",
      "type": "function"
    },
    {
      "inputs": [
        {
          "internalType": "bytes32",
          "name": "hash",
          "type": "bytes32"
        }
      ],
      "name": "getMint",
      "outputs": [
        {
          "components": [
            {
              "internalType": "bytes32",
              "name": "note_kind",
              "type": "bytes32"
            },
            {
              "internalType": "uint256",
              "name": "amount",
              "type": "uint256"
            },
            {
              "internalType": "bool",
              "name": "spent",
              "type": "bool"
            }
          ],
          "internalType": "struct Mint",
          "name": "",
          "type": "tuple"
        }
      ],
      "stateMutability": "view",
      "type": "function"
    },
    {
      "inputs": [
        {
          "internalType": "uint256",
          "name": "from",
          "type": "uint256"
        }
      ],
      "name": "getValidatorSets",
      "outputs": [
        {
          "components": [
            {
              "internalType": "address[]",
              "name": "validators",
              "type": "address[]"
            },
            {
              "internalType": "uint256",
              "name": "validFrom",
              "type": "uint256"
            }
          ],
          "internalType": "struct PublicValidatorSet[]",
          "name": "",
          "type": "tuple[]"
        }
      ],
      "stateMutability": "view",
      "type": "function"
    },
    {
      "inputs": [
        {
          "internalType": "bytes32",
          "name": "verificationKeyHash",
          "type": "bytes32"
        }
      ],
      "name": "getZkVerifier",
      "outputs": [
        {
          "internalType": "address",
          "name": "",
          "type": "address"
        },
        {
          "internalType": "uint32",
          "name": "",
          "type": "uint32"
        }
      ],
      "stateMutability": "view",
      "type": "function"
    },
    {
      "inputs": [
        {
          "internalType": "address",
          "name": "owner",
          "type": "address"
        },
        {
          "internalType": "address",
          "name": "_escrowManager",
          "type": "address"
        },
        {
          "internalType": "address",
          "name": "_tokenAddress",
          "type": "address"
        },
        {
          "internalType": "address",
          "name": "_verifierAddress",
          "type": "address"
        },
        {
          "internalType": "address[]",
          "name": "initialValidators",
          "type": "address[]"
        },
        {
          "internalType": "bytes32",
          "name": "verifierKeyHash",
          "type": "bytes32"
        }
      ],
      "name": "initialize",
      "outputs": [],
      "stateMutability": "nonpayable",
      "type": "function"
    },
    {
      "inputs": [
        {
          "internalType": "bytes32",
          "name": "mint_hash",
          "type": "bytes32"
        },
        {
          "internalType": "bytes32",
          "name": "value",
          "type": "bytes32"
        },
        {
          "internalType": "bytes32",
          "name": "note_kind",
          "type": "bytes32"
        }
      ],
      "name": "mint",
      "outputs": [],
      "stateMutability": "nonpayable",
      "type": "function"
    },
    {
      "inputs": [
        {
          "internalType": "bytes32",
          "name": "mint_hash",
          "type": "bytes32"
        },
        {
          "internalType": "uint256",
          "name": "value",
          "type": "uint256"
        },
        {
          "internalType": "bytes32",
          "name": "note_kind",
          "type": "bytes32"
        }
      ],
      "name": "mintClaimed",
      "outputs": [],
      "stateMutability": "nonpayable",
      "type": "function"
    },
    {
      "inputs": [
        {
          "internalType": "bytes32",
          "name": "",
          "type": "bytes32"
        }
      ],
      "name": "mints",
      "outputs": [
        {
          "internalType": "bytes32",
          "name": "note_kind",
          "type": "bytes32"
        },
        {
          "internalType": "uint256",
          "name": "amount",
          "type": "uint256"
        },
        {
          "internalType": "bool",
          "name": "spent",
          "type": "bool"
        }
      ],
      "stateMutability": "view",
      "type": "function"
    },
    {
      "inputs": [
        {
          "internalType": "bytes32",
          "name": "noteKind",
          "type": "bytes32"
        }
      ],
      "name": "noteKindTokenAddress",
      "outputs": [
        {
          "internalType": "address",
          "name": "",
          "type": "address"
        }
      ],
      "stateMutability": "view",
      "type": "function"
    },
    {
      "inputs": [],
      "name": "owner",
      "outputs": [
        {
          "internalType": "address",
          "name": "",
          "type": "address"
        }
      ],
      "stateMutability": "view",
      "type": "function"
    },
    {
      "inputs": [],
      "name": "pendingMintsCount",
      "outputs": [
        {
          "internalType": "uint256",
          "name": "",
          "type": "uint256"
        }
      ],
      "stateMutability": "view",
      "type": "function"
    },
    {
      "inputs": [],
      "name": "pendingSubstitutedBurnsCount",
      "outputs": [
        {
          "internalType": "uint256",
          "name": "",
          "type": "uint256"
        }
      ],
      "stateMutability": "view",
      "type": "function"
    },
    {
      "inputs": [
        {
          "internalType": "address",
          "name": "burnSubstitutor",
          "type": "address"
        }
      ],
      "name": "removeBurnSubstitutor",
      "outputs": [],
      "stateMutability": "nonpayable",
      "type": "function"
    },
    {
      "inputs": [
        {
          "internalType": "bytes32",
          "name": "verificationKeyHash",
          "type": "bytes32"
        }
      ],
      "name": "removeZkVerifier",
      "outputs": [],
      "stateMutability": "nonpayable",
      "type": "function"
    },
    {
      "inputs": [],
      "name": "renounceOwnership",
      "outputs": [],
      "stateMutability": "nonpayable",
      "type": "function"
    },
    {
      "inputs": [],
      "name": "rootHash",
      "outputs": [
        {
          "internalType": "bytes32",
          "name": "",
          "type": "bytes32"
        }
      ],
      "stateMutability": "view",
      "type": "function"
    },
    {
      "inputs": [
        {
          "internalType": "bytes32",
          "name": "newRoot",
          "type": "bytes32"
        },
        {
          "internalType": "uint256",
          "name": "height",
          "type": "uint256"
        },
        {
          "internalType": "bytes32",
          "name": "otherHash",
          "type": "bytes32"
        },
        {
          "components": [
            {
              "internalType": "bytes32",
              "name": "r",
              "type": "bytes32"
            },
            {
              "internalType": "bytes32",
              "name": "s",
              "type": "bytes32"
            },
            {
              "internalType": "uint256",
              "name": "v",
              "type": "uint256"
            }
          ],
          "internalType": "struct Signature[]",
          "name": "signatures",
          "type": "tuple[]"
        }
      ],
      "name": "setCheckpoint",
      "outputs": [],
      "stateMutability": "nonpayable",
      "type": "function"
    },
    {
      "inputs": [
        {
          "internalType": "address",
          "name": "newEscrowManagerAddress",
          "type": "address"
        }
      ],
      "name": "setEscrowManager",
      "outputs": [],
      "stateMutability": "nonpayable",
      "type": "function"
    },
    {
      "inputs": [
        {
          "internalType": "bytes32",
          "name": "newRoot",
          "type": "bytes32"
        }
      ],
      "name": "setRoot",
      "outputs": [],
      "stateMutability": "nonpayable",
      "type": "function"
    },
    {
      "inputs": [
        {
          "internalType": "uint256",
          "name": "validFrom",
          "type": "uint256"
        },
        {
          "internalType": "address[]",
          "name": "validators",
          "type": "address[]"
        }
      ],
      "name": "setValidators",
      "outputs": [],
      "stateMutability": "nonpayable",
      "type": "function"
    },
    {
      "inputs": [
        {
          "internalType": "address",
          "name": "burnAddress",
          "type": "address"
        },
        {
          "internalType": "bytes32",
          "name": "note_kind",
          "type": "bytes32"
        },
        {
          "internalType": "bytes32",
          "name": "hash",
          "type": "bytes32"
        },
        {
          "internalType": "uint256",
          "name": "amount",
          "type": "uint256"
        },
        {
          "internalType": "uint256",
          "name": "burnBlockHeight",
          "type": "uint256"
        }
      ],
      "name": "substituteBurn",
      "outputs": [],
      "stateMutability": "nonpayable",
      "type": "function"
    },
    {
      "inputs": [
        {
          "internalType": "bytes32",
          "name": "",
          "type": "bytes32"
        }
      ],
      "name": "substitutedBurns",
      "outputs": [
        {
          "internalType": "address",
          "name": "",
          "type": "address"
        }
      ],
      "stateMutability": "view",
      "type": "function"
    },
    {
      "inputs": [],
      "name": "token",
      "outputs": [
        {
          "internalType": "contract IERC20",
          "name": "",
          "type": "address"
        }
      ],
      "stateMutability": "view",
      "type": "function"
    },
    {
      "inputs": [
        {
          "internalType": "address",
          "name": "newOwner",
          "type": "address"
        }
      ],
      "name": "transferOwnership",
      "outputs": [],
      "stateMutability": "nonpayable",
      "type": "function"
    },
    {
      "inputs": [
        {
          "internalType": "uint256",
          "name": "height",
          "type": "uint256"
        },
        {
          "internalType": "bytes32",
          "name": "verificationKeyHash",
          "type": "bytes32"
        },
        {
          "internalType": "bytes",
          "name": "aggrProof",
          "type": "bytes"
        },
        {
          "internalType": "bytes32[]",
          "name": "publicInputs",
          "type": "bytes32[]"
        },
        {
          "internalType": "bytes32",
          "name": "otherHashFromBlockHash",
          "type": "bytes32"
        },
        {
          "components": [
            {
              "internalType": "bytes32",
              "name": "r",
              "type": "bytes32"
            },
            {
              "internalType": "bytes32",
              "name": "s",
              "type": "bytes32"
            },
            {
              "internalType": "uint256",
              "name": "v",
              "type": "uint256"
            }
          ],
          "internalType": "struct Signature[]",
          "name": "signatures",
          "type": "tuple[]"
        }
      ],
      "name": "verifyRollup",
      "outputs": [],
      "stateMutability": "nonpayable",
      "type": "function"
    },
    {
      "inputs": [],
      "name": "version",
      "outputs": [
        {
          "internalType": "uint8",
          "name": "",
          "type": "uint8"
        }
      ],
      "stateMutability": "view",
      "type": "function"
    },
    {
      "inputs": [
        {
          "internalType": "address",
          "name": "burn_address",
          "type": "address"
        },
        {
          "internalType": "bytes32",
          "name": "note_kind",
          "type": "bytes32"
        },
        {
          "internalType": "bytes32",
          "name": "hash",
          "type": "bytes32"
        },
        {
          "internalType": "uint256",
          "name": "amount",
          "type": "uint256"
        },
        {
          "internalType": "uint256",
          "name": "burnBlockHeight",
          "type": "uint256"
        }
      ],
      "name": "wasBurnSubstituted",
      "outputs": [
        {
          "internalType": "bool",
          "name": "",
          "type": "bool"
        }
      ],
      "stateMutability": "view",
      "type": "function"
    },
    {
      "inputs": [],
      "name": "wrappedCBTC",
      "outputs": [
        {
          "internalType": "address",
          "name": "",
          "type": "address"
        }
      ],
      "stateMutability": "view",
      "type": "function"
    },
    {
      "inputs": [
        {
          "internalType": "uint256",
          "name": "",
          "type": "uint256"
        }
      ],
      "name": "zkVerifierKeys",
      "outputs": [
        {
          "internalType": "bytes32",
          "name": "",
          "type": "bytes32"
        }
      ],
      "stateMutability": "view",
      "type": "function"
    },
    {
      "inputs": [
        {
          "internalType": "bytes32",
          "name": "",
          "type": "bytes32"
        }
      ],
      "name": "zkVerifiers",
      "outputs": [
        {
          "internalType": "contract IVerifier",
          "name": "verifier",
          "type": "address"
        },
        {
          "internalType": "uint32",
          "name": "messages_length",
          "type": "uint32"
        },
        {
          "internalType": "bool",
          "name": "enabled",
          "type": "bool"
        }
      ],
      "stateMutability": "view",
      "type": "function"
    }
  ],
  "bytecode": "0x6080806040523460aa575f51602061303f5f395f51905f525460ff8160401c16609b576002600160401b03196001600160401b038216016049575b604051612f9090816100af8239f35b6001600160401b0319166001600160401b039081175f51602061303f5f395f51905f525581527fc7f505b2f371ae2175ee4913f4499e1f2633a7b5936321eed1cdaeb6115181d290602090a15f80603a565b63f92ee8a960e01b5f5260045ffd5b5f80fdfe60806040526004361015610011575f80fd5b5f5f3560e01c80630d647a9a1461216d578063166fc789146121455780631d80009a1461212857806326e31a9414611fcc5780632a2bc73a14611f9a5780633520f3eb14611f7d5780633644e51514611ed657806339b7933d14611e9c57806347a8d0dd14611de05780634d76c3b914611b9f5780634eeb381e14611a7457806354fd4d5014611a5557806356dc63cb14611a0f5780635d5fa0d1146119ac5780636b2bd2ec14611974578063715018a61461190d57806387ca08e5146114605780638da5cb5b1461142b5780639776aacf1461137b578063a2ce9c1f146112fc578063a91eebf5146112de578063ab1c29011461109e578063b2142b501461105d578063b72e88cb14611019578063b7c8b78a14610f77578063b8cdbd2714610b70578063bb254e7a14610b4e578063c12255c414610b25578063c1b1535914610af2578063c34975bb14610aa2578063d82cbdd9146108dc578063dab5f34014610891578063e795594d14610503578063ef0feff914610322578063f2fde38b146102f5578063f41686c7146102d7578063f44ff712146102b9578063f9038cf3146101f25763fc0c546a146101c7575f80fd5b346101ef57806003193601126101ef576003546040516001600160a01b039091168152602090f35b80fd5b50346101ef5761022f61023d61020736612229565b6040949293919451928391866020840196876040919493926060820195825260208201520152565b03601f1981018352826122f1565b51902090600181018091116102a55760609250604051602081019182528260408201526040815261026e84826122f1565b519020610279612312565b60405161028f8161022f85602083019586612337565b5190209060405192835260208301526040820152f35b634e487b7160e01b83526011600452602483fd5b50346101ef57806003193601126101ef576020600454604051908152f35b50346101ef57806003193601126101ef576020600e54604051908152f35b50346101ef5760203660031901126101ef5761031f6103126121cb565b61031a6125c6565b612555565b80f35b50346101ef5760203660031901126101ef5760095460043561034481836123b4565b9161034e8361250e565b9261035c60405194856122f1565b80845261036b601f199161250e565b01845b8181106104df575050815b818110610433578385604051918291602083016020845282518091526040840191602060408360051b870101940192815b8383106103b75786860387f35b919395509193603f19878203018352855190604081019180519260408352835180915260206060840194019085905b80821061041157505050600192602092838080940151910152970193019301909286959492936103aa565b82516001600160a01b03168652602095860195909201916001909101906103e6565b600161043e82612525565b5001600261044b83612525565b5001546040519161045b836122d6565b6040519081602082549182815201918a5260208a20908a905b8082106104bd57505050918161049360019695936104b69503826122f1565b825260208201526104a486846123b4565b906104af8289612541565b5286612541565b5001610379565b82546001600160a01b0316845260209093019260019283019290910190610474565b6020906040516104ee816122d6565b6060815287838201528282880101520161036e565b50346101ef5760403660031901126101ef576004356024356001600160401b03811161088d5761053790369060040161228b565b6105429291926125c6565b600954928315801561086c575b156107ed57821580156107c3575b1561075857600160401b84101561074457600184018060095561057f85612525565b505084116107305782600261059386612525565b50015560016105a185612525565b50016001600160401b03831161071c57600160401b831161071c5780548382558084106106f6575b5085526020852081865b8481106106db57505050845b82811061061a57857ffd204c7043da2bcc4dc261ed00edac3bb5e2b8c5c60c7535c4d17144759fc7326040878782519182526020820152a180f35b61062385612525565b506106376106328386866124e6565b612937565b60018060a01b03165f5260205260ff60405f20541661068b5760019061065c86612525565b5061066b6106328387876124e6565b838060a01b03165f5260205260405f208260ff19825416179055016105df565b60405162461bcd60e51b815260206004820152602260248201527f526f6c6c757056313a2056616c696461746f7220616c72656164792065786973604482015261747360f01b6064820152608490fd5b60019060206106e984612937565b93019281850155016105d3565b818752836020882091820191015b81811061071157506105c9565b878155600101610704565b634e487b7160e01b86526041600452602486fd5b634e487b7160e01b85526011600452602485fd5b634e487b7160e01b85526041600452602485fd5b60405162461bcd60e51b815260206004820152603d60248201527f526f6c6c757056313a2076616c696446726f6d2063616e6e6f74206265206d6f60448201527f7265207468616e203330206461797320696e20746865206675747572650000006064820152608490fd5b5062278d0043018043116107d95783111561055d565b634e487b7160e01b86526011600452602486fd5b60405162461bcd60e51b815260206004820152604b60248201527f526f6c6c757056313a204e65772076616c696461746f7220736574206d75737460448201527f206861766520612076616c696446726f6d2067726561746572207468616e207460648201526a1a19481b185cdd081cd95d60aa1b608482015260a490fd5b505f1984018481116107d95760026108848592612525565b5001541061054f565b8280fd5b50346101ef5760203660031901126101ef576108ab6125c6565b600435600554816005557f2c5e454ab10a3bb8f13831cd35da5f0dbef2c5ac1c80c171157ab07519e097485f80a380f35b50346101ef5760603660031901126101ef576004356108f96121e1565b906044359063ffffffff8216808303610a9e576109146125c6565b6001600160a01b038416938415610a4b573b156109f6577fdb2a4be964bb3f5ba0504bccdbceaa478be8d73af2238cd9be0ba0c8efc107ca93606093838752600160205260ff604088205460c01c16156109e8575b838752600160208181526040808a2080546001600160a01b0319166001600160a01b038716179055868a52828252808a20805463ffffffff60a01b191660a09590951b63ffffffff60a01b1694909417909355858952908152818820805460ff60c01b1916600160c01b1790558151948552840191909152820152a180f35b6109f18461249d565b610969565b60405162461bcd60e51b815260206004820152602760248201527f526f6c6c757056313a205a4b207665726966696572206973206e6f74206120636044820152661bdb9d1c9858dd60ca1b6064820152608490fd5b60405162461bcd60e51b815260206004820152602560248201527f526f6c6c757056313a20496e76616c6964207a6b207665726966696572206164604482015264647265737360d81b6064820152608490fd5b8480fd5b50346101ef5760203660031901126101ef57604060609160043581526001602052205460ff6040519160018060a01b038116835263ffffffff8160a01c16602084015260c01c1615156040820152f35b50346101ef5760203660031901126101ef57602090600435815260078252604060018060a01b0391205416604051908152f35b50346101ef57806003193601126101ef57600c546040516001600160a01b039091168152602090f35b50346101ef576020610b68610b6236612229565b9161294b565b604051908152f35b50346101ef5760c03660031901126101ef576004356024356044356001600160401b038111610f735736602382011215610f735780600401356001600160401b038111610a9e573660248284010111610a9e576064356001600160401b038111610f6f57610be290369060040161228b565b909160a4356001600160401b038111610e2a57610c03903690600401612243565b9590818952600160205260ff60408a205460c01c1615610f20578189526001602052600363ffffffff60408b205460a01c160163ffffffff8111610e3c5763ffffffff168403610ecd578315610eb9578360011015610eb9576020850135968460021015610ea557600554863503610e5057610c83916084358a8a612678565b808852600160205263ffffffff604089205460a01c1660039060030180600311610e3c57905b888587848410610e2e5750505050508752600160205260018060a01b036040882054169080602460405196633a94343960e21b88526040600489015282604489015201606487013784810160649081018990526060601f909201601f191686018681039290920160248701528101839052916001600160fb1b038111610e2a57602085606482968296839560051b8092608483013701010301915afa908115610e1f578491610df0575b5015610d9c576020817f401f796450733fd22827ddc018ca37051459a8035c4026f533c294797bb8a49e92600555610d8e600454851161242b565b83600455604051908152a280f35b60405162461bcd60e51b815260206004820152602660248201527f526f6c6c757056313a205a4b2070726f6f6620766572696669636174696f6e2060448201526519985a5b195960d21b6064820152608490fd5b610e12915060203d602011610e18575b610e0a81836122f1565b8101906124f6565b5f610d53565b503d610e00565b6040513d86823e3d90fd5b8780fd5b610e3793612a42565b610ca9565b634e487b7160e01b8a52601160045260248afd5b60405162461bcd60e51b815260206004820152602760248201527f526f6c6c757056313a20526f6f74206861736820766572696669636174696f6e6044820152660819985a5b195960ca1b6064820152608490fd5b634e487b7160e01b8a52603260045260248afd5b634e487b7160e01b89526032600452602489fd5b60405162461bcd60e51b815260206004820152602560248201527f526f6c6c757056313a20496e76616c6964207075626c6963496e70757473206c6044820152640cadccee8d60db1b6064820152608490fd5b60405162461bcd60e51b815260206004820152602160248201527f526f6c6c757056313a205a4b207665726966696572206e6f7420616c6c6f77656044820152601960fa1b6064820152608490fd5b8580fd5b8380fd5b50346101ef5760203660031901126101ef57610f916121cb565b610f996125c6565b6001600160a01b03168015610fc3576bffffffffffffffffffffffff60a01b600c541617600c5580f35b60405162461bcd60e51b815260206004820152602860248201527f526f6c6c757056313a20496e76616c696420657363726f77206d616e61676572604482015267206164647265737360c01b6064820152608490fd5b50346101ef5760203660031901126101ef576110336121cb565b61103b6125c6565b6001600160a01b03168152600b60205260408120805460ff1916600117905580f35b50346101ef5760203660031901126101ef576110776121cb565b61107f6125c6565b6001600160a01b03168152600b60205260408120805460ff1916905580f35b50346101ef576110ad366121f7565b9392338652600b602052600160ff604088205416151503611288576110d585838387876125f9565b808752600760205260408720549095906001600160a01b03166112385760045410156111e2578552600860205260408520546001600160a01b031690611133906111208315156123c1565b61112c81303386612895565b8483612e55565b9160405191600183527f25bab1ec4b6635a8e0740834e52ce1aee362e9c38447738aa7b75b7e06275b0760408515968715602087015260018060a01b031694a4506111a557815260076020526040812080546001600160a01b03191633179055600f5461119f9061241d565b600f5580f35b60405162461bcd60e51b8152602060048201526015602482015274149bdb1b1d5c158c4e88109d5c9b8819985a5b1959605a1b6044820152606490fd5b60405162461bcd60e51b815260206004820152602860248201527f526f6c6c757056313a20426c6f636b2068656967687420616c7265616479207260448201526706f6c6c65642075760c41b6064820152608490fd5b60405162461bcd60e51b815260206004820152602260248201527f526f6c6c757056313a204275726e20616c726561647920737562737469747574604482015261195960f21b6064820152608490fd5b60405162461bcd60e51b815260206004820152602860248201527f526f6c6c757056313a20596f7520617265206e6f742061206275726e2073756260448201526739ba34ba3aba37b960c11b6064820152608490fd5b50346101ef57806003193601126101ef576020600554604051908152f35b50346101ef5760203660031901126101ef57604081606092828051611320816122bb565b82815282602082015201526004358152600660205220604051611342816122bb565b815491828252604060ff600260018401549360208601948552015416920191151582526040519283525160208301525115156040820152f35b50346101ef5760403660031901126101ef576004356113986121e1565b906113a16125c6565b808352600860205260408320546001600160a01b03166113e657825260086020526040822080546001600160a01b0319166001600160a01b0390921691909117905580f35b60405162461bcd60e51b815260206004820152601e60248201527f526f6c6c757056313a20546f6b656e20616c72656164792065786973747300006044820152606490fd5b50346101ef57806003193601126101ef575f516020612f1b5f395f51905f52546040516001600160a01b039091168152602090f35b346119095760c0366003190112611909576114796121cb565b6114816121e1565b6044356001600160a01b03811690819003611909576064356001600160a01b0381169290839003611909576084356001600160401b038111611909576114cb90369060040161228b565b60a4355f516020612f3b5f395f51905f52549060ff8260401c1615966001600160401b03831680159081611901575b60011490816118f7575b1590816118ee575b506118df5767ffffffffffffffff1983166001175f516020612f3b5f395f51905f52556115b792886118b3575b50600160ff195f5416175f5561154d6129c3565b6115556129c3565b61155e89612555565b600380546001600160a01b031916881790555f828152600160205260409020805460ff60c01b196001600160c01b03199091166001600160a01b0390931692909217600f60a11b1791909116600160c01b17905561249d565b6009549182158015611896575b156107ed57600160401b83101561186e5760018301806009556115e684612525565b50508311611882575f60026115fa85612525565b500155600161160884612525565b50016001600160401b03831161186e57600160401b831161186e578054838255808410611848575b5081905f5260205f20905f5b84811061182d575050505f5b8281106117c15750505060407ffd204c7043da2bcc4dc261ed00edac3bb5e2b8c5c60c7535c4d17144759fc7329181519081525f6020820152a1600554937f0577b5b4aa3eaba75b2a919d5d7c63b7258aa507d38e346bf2ff1d48790379ff6005557f0577b5b4aa3eaba75b2a919d5d7c63b7258aa507d38e346bf2ff1d48790379ff604051957f2c5e454ab10a3bb8f13831cd35da5f0dbef2c5ac1c80c171157ab07519e097485f80a37f154dc6546aae50b4d3772d636c3f1949122dcebaeda2ba647059f85ff99f1cc880546001600160a01b031990811685179091556001600160a01b039182165f908152600b60205260409020805460ff19166001179055600c8054821693909216929092179055600d8054909116909117905561176c57005b60207fc7f505b2f371ae2175ee4913f4499e1f2633a7b5936321eed1cdaeb6115181d29168ff0000000000000000195f516020612f3b5f395f51905f5254165f516020612f3b5f395f51905f525560018152a1005b6117ca84612525565b506117d96106328386866124e6565b60018060a01b03165f5260205260ff60405f20541661068b576001906117fe85612525565b5061180d6106328387876124e6565b838060a01b03165f5260205260405f208260ff1982541617905501611648565b600190602061183b84612937565b930192818501550161163c565b815f528360205f2091820191015b8181106118635750611630565b5f8155600101611856565b634e487b7160e01b5f52604160045260245ffd5b634e487b7160e01b5f52601160045260245ffd5b505f198301838111611882576118ab90612525565b50505f6115c4565b68ffffffffffffffffff191668010000000000000001175f516020612f3b5f395f51905f525589611539565b63f92ee8a960e01b5f5260045ffd5b9050158a61150c565b303b159150611504565b8991506114fa565b5f80fd5b34611909575f366003190112611909576119256125c6565b5f516020612f1b5f395f51905f5280546001600160a01b031981169091555f906001600160a01b03167f8be0079c531659141344cd1fd0a4f28419497f9722a3daafe3b4186f6b6457e08280a3005b34611909576020366003190112611909576004356002548110156119095761199d602091612273565b90549060031b1c604051908152f35b34611909576020366003190112611909576040600435805f5260016020526119dc60ff835f205460c01c1661235c565b5f90815260016020908152908290205482516001600160a01b038216815260a09190911c63ffffffff1691810191909152f35b34611909576020366003190112611909576004355f526006602052606060405f2080549060ff600260018301549201541690604051928352602083015215156040820152f35b34611909575f36600319011261190957602060ff5f5416604051908152f35b3461190957606036600319011261190957600435602435604435825f526006602052600160405f200154611b5a577fc4adcac6a89d730f3a6da5d846bba3d858a8fc5884e0f80940a3a3b96a4ae6f191816040925f526008602052611af38260018060a01b03855f205416611aea8115156123c1565b30903390612895565b611b3f8351611b01816122bb565b828152600260208201858152868301905f8252895f526006602052875f209351845551600184015551151591019060ff801983541691151516179055565b611b4a600e5461241d565b600e5582519182526020820152a2005b60405162461bcd60e51b815260206004820152601d60248201527f526f6c6c757056313a204d696e7420616c7265616479206578697374730000006044820152606490fd5b34611909576080366003190112611909576024356004356064356001600160401b03811161190957611bd5903690600401612243565b9091600e54611d9b57600f54611d4457611bf2600454851161242b565b611bfb8461263a565b6001611c08600a54612525565b5001805415611cff57805415611ceb575f90815260209020546001600160a01b03163303611c9b57611c626020927f401f796450733fd22827ddc018ca37051459a8035c4026f533c294797bb8a49e946044358785612678565b80600554816005557f2c5e454ab10a3bb8f13831cd35da5f0dbef2c5ac1c80c171157ab07519e097485f80a383600455604051908152a2005b60405162461bcd60e51b815260206004820152602260248201527f526f6c6c757056313a2043616c6c6572206973206e6f7420746865206c65616460448201526132b960f11b6064820152608490fd5b634e487b7160e01b5f52603260045260245ffd5b60405162461bcd60e51b815260206004820152601760248201527f526f6c6c757056313a204e6f2076616c696461746f72730000000000000000006044820152606490fd5b60405162461bcd60e51b815260206004820152602960248201527f526f6c6c757056313a2050656e64696e672073756273746974757465642062756044820152681c9b9cc8195e1a5cdd60ba1b6064820152608490fd5b60405162461bcd60e51b815260206004820152601d60248201527f526f6c6c757056313a2050656e64696e67206d696e74732065786973740000006044820152606490fd5b3461190957611dee36612229565b600c546001600160a01b03163303611e5757825f526006602052600160405f200154611b5a577fc4adcac6a89d730f3a6da5d846bba3d858a8fc5884e0f80940a3a3b96a4ae6f191816040925f526008602052611af360018060a01b03845f20541615156123c1565b60405162461bcd60e51b815260206004820152601d60248201527f526f6c6c757056313a204f6e6c7920657363726f77206d616e616765720000006044820152606490fd5b3461190957611eb6611ead366121f7565b939092916125f9565b5f526007602052602060018060a01b0360405f2054161515604051908152f35b34611909575f36600319011261190957602060406006828251611ef984826122f1565b82815201650526f6c6c75760d41b8152206001838351611f1985826122f1565b82815201603160f81b815220825190848201927f8b73c3c69bb8fe3d512ecc4cf759cc79239f7b179b0ffacaa9a75d522b39400f84528483015260608201524660808201523060a082015260a08152611f7360c0826122f1565b5190209051908152f35b34611909575f366003190112611909576020600f54604051908152f35b34611909576020366003190112611909576004355f526008602052602060018060a01b0360405f205416604051908152f35b3461190957602036600319011261190957600435611fe86125c6565b805f52600160205261200360ff60405f205460c01c1661235c565b5f8181526001602052604081208054908290556002546001600160a01b0390911692915b818110612061575b7fa67e94ae6f2b34c76ff45db881989225caa876cbe2d8215c01650a104557573d6040848682519182526020820152a1005b8261206b82612273565b90549060031b1c1461207f57600101612027565b905f198101908111611882576120a761209a6120bd92612273565b90549060031b1c92612273565b819391549060031b91821b915f19901b19161790565b9055600254908115612114577fa67e94ae6f2b34c76ff45db881989225caa876cbe2d8215c01650a104557573d926040925f19016120fa81612273565b8154905f199060031b1b191690556002559281925061202f565b634e487b7160e01b5f52603160045260245ffd5b34611909575f366003190112611909576020600554604051908152f35b34611909575f36600319011261190957600d546040516001600160a01b039091168152602090f35b3461190957602036600319011261190957612186612312565b604080516121a08161022f60208201956004359087612337565b8151928391602083525180918160208501528484015e5f828201840152601f01601f19168101030190f35b600435906001600160a01b038216820361190957565b602435906001600160a01b038216820361190957565b60a0906003190112611909576004356001600160a01b0381168103611909579060243590604435906064359060843590565b606090600319011261190957600435906024359060443590565b9181601f84011215611909578235916001600160401b038311611909576020808501946060850201011161190957565b600254811015611ceb5760025f5260205f2001905f90565b9181601f84011215611909578235916001600160401b038311611909576020808501948460051b01011161190957565b606081019081106001600160401b0382111761186e57604052565b604081019081106001600160401b0382111761186e57604052565b90601f801991011681019081106001600160401b0382111761186e57604052565b604051906123216040836122f1565b60078252664369706865726160c81b6020830152565b600760c01b81528151602893929091908290602001600883015e019060088201520190565b1561236357565b60405162461bcd60e51b8152602060048201526024808201527f526f6c6c757056313a205a4b20766572696669657220646f6573206e6f7420656044820152631e1a5cdd60e21b6064820152608490fd5b9190820391821161188257565b156123c857565b60405162461bcd60e51b815260206004820152602760248201527f526f6c6c757056313a20546f6b656e206e6f7420666f756e6420666f72206e6f6044820152661d19481ada5b9960ca1b6064820152608490fd5b5f1981146118825760010190565b1561243257565b60405162461bcd60e51b815260206004820152603760248201527f526f6c6c757056313a204e657720626c6f636b20686569676874206d7573742060448201527f62652067726561746572207468616e2063757272656e740000000000000000006064820152608490fd5b600254600160401b81101561186e5760018101600255600254811015611ceb5760025f527f405787fa12a823e0f2b7631cc41b3ba8828b3321ca811111fa75cd3aa3bb5ace0155565b9190811015611ceb5760051b0190565b90816020910312611909575180151581036119095790565b6001600160401b03811161186e5760051b60200190565b600954811015611ceb5760095f52600360205f20910201905f90565b8051821015611ceb5760209160051b010190565b6001600160a01b031680156125b3575f516020612f1b5f395f51905f5280546001600160a01b0319811683179091556001600160a01b03167f8be0079c531659141344cd1fd0a4f28419497f9722a3daafe3b4186f6b6457e05f80a3565b631e4fbdf760e01b5f525f60045260245ffd5b5f516020612f1b5f395f51905f52546001600160a01b031633036125e657565b63118cdaa760e01b5f523360045260245ffd5b9391929092604051936020850195865260018060a01b031660408501526060840152608083015260a082015260a0815261263460c0826122f1565b51902090565b600a5460018101809111611882575b6009548110156126745781600261265f83612525565b500154116126745780600191600a5501612649565b5050565b90919492946126868361263a565b612691600a54612525565b509285156128505760018401548060011b90808204600214901517156118825760039004600181018091116118825786106127e5576126cf9261294b565b935f92835b858510156127dc57612708906126ff60608702850160208101359060ff60408235920135168b612d5f565b90939193612de1565b60018060a01b0382165f5284602052600160ff60405f20541615150361278b576001600160a01b039081169082161115612747576001909401936126d4565b606460405162461bcd60e51b815260206004820152602060248201527f526f6c6c757056313a205369676e65727320617265206e6f7420736f727465646044820152fd5b60405162461bcd60e51b815260206004820152602360248201527f526f6c6c757056313a205369676e6572206973206e6f7420612076616c6964616044820152623a37b960e91b6064820152608490fd5b50945050505050565b60405162461bcd60e51b815260206004820152603f60248201527f526f6c6c757056313a204e6f7420656e6f756768207369676e6174757265732060448201527f66726f6d2076616c696461746f727320746f2076657269667920626c6f636b006064820152608490fd5b60405162461bcd60e51b815260206004820152601760248201527f526f6c6c757056313a204e6f207369676e6174757265730000000000000000006044820152606490fd5b6040516323b872dd60e01b60208083019182526001600160a01b039485166024840152949093166044820152606480820195909552938452925f91906128dc6084826122f1565b519082855af11561292c575f513d61292357506001600160a01b0381163b155b6129035750565b635274afe760e01b5f9081526001600160a01b0391909116600452602490fd5b600114156128fc565b6040513d5f823e3d90fd5b356001600160a01b03811681036119095790565b604080516020810192835290810183905260608101939093529091612973816080810161022f565b519020600182018092116118825760405190602082019283526040820152604081526129a06060826122f1565b51902061022f6126346129b1612312565b92604051928391602083019586612337565b60ff5f516020612f3b5f395f51905f525460401c16156129df57565b631afcd79f60e31b5f5260045ffd5b9190926129fc908484612e55565b604080515f8152821515602082015291946001600160a01b039081169416917f25bab1ec4b6635a8e0740834e52ce1aee362e9c38447738aa7b75b7e06275b079190a490565b92919091612a518483856124e6565b3580612a695750505050600181018091116118825790565b60028103612c2d5750506001830180841161188257612a899082846124e6565b35916002840180851161188257612aa19083836124e6565b3591600385019081861161188257612ab8926124e6565b3591825f52600660205281600160405f20015403612be857825f5260066020528060405f205403612ba457825f52600660205260ff600260405f20015416612b5f577f948ecd827e77afeeebdc95f4d34a294c53d7e28501dcd56c8d89e88e61b53a5091604091845f5260066020526002835f2001600160ff19825416179055612b43600e54612f0e565b600e5582519182526020820152a2600481018091116118825790565b60405162461bcd60e51b815260206004820152601c60248201527f526f6c6c757056313a204d696e7420616c7265616479207370656e74000000006044820152606490fd5b606460405162461bcd60e51b815260206004820152602060248201527f526f6c6c757056313a204d696e74206e6f7465206b696e6420696e76616c69646044820152fd5b60405162461bcd60e51b815260206004820152601c60248201527f526f6c6c757056313a204d696e742076616c756520696e76616c6964000000006044820152606490fd5b909290600303612d1a576001840180851161188257612c4d9083836124e6565b35926002850180861161188257612c659084846124e6565b35926003860180871161188257612c7d9082856124e6565b3592600487019182881161188257612cc3926001600160a01b0392612ca292906124e6565b351691855f5260086020528460018060a01b0360405f2054169684866125f9565b5f908152600760205260409020546001600160a01b0316908115612d095750612ceb936129ee565b50612cf7600f54612f0e565b600f555b600581018091116118825790565b9050612d14936129ee565b50612cfb565b60405162461bcd60e51b815260206004820152601e60248201527f526f6c6c757056313a20496e76616c6964206d657373616765206b696e6400006044820152606490fd5b91907f7fffffffffffffffffffffffffffffff5d576e7357a4501ddfe92f46681b20a08411612dd6579160209360809260ff5f9560405194855216868401526040830152606082015282805260015afa1561292c575f516001600160a01b03811615612dcc57905f905f90565b505f906001905f90565b5050505f9160039190565b6004811015612e415780612df3575050565b60018103612e0a5763f645eedf60e01b5f5260045ffd5b60028103612e25575063fce698f760e01b5f5260045260245ffd5b600314612e2f5750565b6335e2f38360e21b5f5260045260245ffd5b634e487b7160e01b5f52602160045260245ffd5b5f929183809360405190602082019363a9059cbb60e01b855260018060a01b03166024830152604482015260448152612e8f6064826122f1565b51925af13d15612f06573d906001600160401b03821161186e5760405191612ec1601f8201601f1916602001846122f1565b82523d5f602084013e5b15612f015780519081612ee0575b5050600190565b602080612ef19383010191016124f6565b15612efd575f80612ed9565b5f90565b505f90565b606090612ecb565b8015611882575f19019056fe9016d09d72d40fdae2fd8ceac6b6234c7706214fd39c1cd1e609a0528c199300f0c57e16840df040f15088dc2f81fe391c3923bec73e23a9662efc9c229c6a00a26469706673582212207cbbab6fbe1d108b7d3fae83b3cf4320ae04e19e939460bb3d721b021e31ad0264736f6c634300081c0033f0c57e16840df040f15088dc2f81fe391c3923bec73e23a9662efc9c229c6a00",
  "linkReferences": {},
  "deployedLinkReferences": {},
  "immutableReferences": {},
  "inputSourceName": "project/contracts/rollup/RollupV1.sol",
  "buildInfoId": "solc-0_8_28-7f8c78da8b96e8ba39e66d02b8ef6f952c1888da"
}