{
  "_format": "hh3-artifact-1",
  "contractName": "RollupV1",
  "sourceName": "contracts/rollup/RollupV1.sol",
  "abi": [
    {
      "inputs": [],
      "stateMutability": "nonpayable",
      "type": "constructor"
    },
    {
      "inputs": [],
      "name": "ECDSAInvalidSignature",
      "type": "error"
    },
    {
      "inputs": [
        {
          "internalType": "uint256",
          "name": "length",
          "type": "uint256"
        }
      ],
      "name": "ECDSAInvalidSignatureLength",
      "type": "error"
    },
    {
      "inputs": [
        {
          "internalType": "bytes32",
          "name": "s",
          "type": "bytes32"
        }
      ],
      "name": "ECDSAInvalidSignatureS",
      "type": "error"
    },
    {
      "inputs": [],
      "name": "InvalidInitialization",
      "type": "error"
    },
    {
      "inputs": [],
      "name": "NotInitializing",
      "type": "error"
    },
    {
      "inputs": [
        {
          "internalType": "address",
          "name": "owner",
          "type": "address"
        }
      ],
      "name": "OwnableInvalidOwner",
      "type": "error"
    },
    {
      "inputs": [
        {
          "internalType": "address",
          "name": "account",
          "type": "address"
        }
      ],
      "name": "OwnableUnauthorizedAccount",
      "type": "error"
    },
    {
      "inputs": [
        {
          "internalType": "address",
          "name": "token",
          "type": "address"
        }
      ],
      "name": "SafeERC20FailedOperation",
      "type": "error"
    },
    {
      "anonymous": false,
      "inputs": [
        {
          "indexed": true,
          "internalType": "address",
          "name": "token",
          "type": "address"
        },
        {
          "indexed": true,
          "internalType": "bytes32",
          "name": "burn_hash",
          "type": "bytes32"
        },
        {
          "indexed": true,
          "internalType": "address",
          "name": "recipient",
          "type": "address"
        },
        {
          "indexed": false,
          "internalType": "bool",
          "name": "substitute",
          "type": "bool"
        },
        {
          "indexed": false,
          "internalType": "bool",
          "name": "success",
          "type": "bool"
        }
      ],
      "name": "Burned",
      "type": "event"
    },
    {
      "anonymous": false,
      "inputs": [
        {
          "indexed": false,
          "internalType": "uint64",
          "name": "version",
          "type": "uint64"
        }
      ],
      "name": "Initialized",
      "type": "event"
    },
    {
      "anonymous": false,
      "inputs": [
        {
          "indexed": true,
          "internalType": "bytes32",
          "name": "mint_hash",
          "type": "bytes32"
        },
        {
          "indexed": false,
          "internalType": "uint256",
          "name": "value",
          "type": "uint256"
        },
        {
          "indexed": false,
          "internalType": "bytes32",
          "name": "note_kind",
          "type": "bytes32"
        }
      ],
      "name": "MintAdded",
      "type": "event"
    },
    {
      "anonymous": false,
      "inputs": [
        {
          "indexed": true,
          "internalType": "bytes32",
          "name": "hash",
          "type": "bytes32"
        },
        {
          "indexed": false,
          "internalType": "bytes32",
          "name": "value",
          "type": "bytes32"
        },
        {
          "indexed": false,
          "internalType": "bytes32",
          "name": "note_kind",
          "type": "bytes32"
        }
      ],
      "name": "Minted",
      "type": "event"
    },
    {
      "anonymous": false,
      "inputs": [
        {
          "indexed": true,
          "internalType": "address",
          "name": "previousOwner",
          "type": "address"
        },
        {
          "indexed": true,
          "internalType": "address",
          "name": "newOwner",
          "type": "address"
        }
      ],
      "name": "OwnershipTransferred",
      "type": "event"
    },
    {
      "anonymous": false,
      "inputs": [
        {
          "indexed": true,
          "internalType": "address",
          "name": "prover",
          "type": "address"
        }
      ],
      "name": "ProverAdded",
      "type": "event"
    },
    {
      "anonymous": false,
      "inputs": [
        {
          "indexed": true,
          "internalType": "address",
          "name": "prover",
          "type": "address"
        }
      ],
      "name": "ProverRemoved",
      "type": "event"
    },
    {
      "anonymous": false,
      "inputs": [
        {
          "indexed": true,
          "internalType": "uint256",
          "name": "height",
          "type": "uint256"
        },
        {
          "indexed": false,
          "internalType": "bytes32",
          "name": "root",
          "type": "bytes32"
        }
      ],
      "name": "RollupVerified",
      "type": "event"
    },
    {
      "anonymous": false,
      "inputs": [
        {
          "indexed": true,
          "internalType": "bytes32",
          "name": "oldRoot",
          "type": "bytes32"
        },
        {
          "indexed": true,
          "internalType": "bytes32",
          "name": "newRoot",
          "type": "bytes32"
        }
      ],
      "name": "RootHashUpdated",
      "type": "event"
    },
    {
      "anonymous": false,
      "inputs": [
        {
          "indexed": false,
          "internalType": "uint256",
          "name": "index",
          "type": "uint256"
        },
        {
          "indexed": false,
          "internalType": "uint256",
          "name": "validFrom",
          "type": "uint256"
        }
      ],
      "name": "ValidatorSetAdded",
      "type": "event"
    },
    {
      "anonymous": false,
      "inputs": [
        {
          "indexed": false,
          "internalType": "bytes32",
          "name": "verificationKey",
          "type": "bytes32"
        },
        {
          "indexed": false,
          "internalType": "address",
          "name": "zkVerifierAddress",
          "type": "address"
        },
        {
          "indexed": false,
          "internalType": "uint32",
          "name": "messages_length",
          "type": "uint32"
        }
      ],
      "name": "VerifierAdded",
      "type": "event"
    },
    {
      "anonymous": false,
      "inputs": [
        {
          "indexed": false,
          "internalType": "bytes32",
          "name": "verificationKey",
          "type": "bytes32"
        },
        {
          "indexed": false,
          "internalType": "address",
          "name": "zkVerifierAddress",
          "type": "address"
        }
      ],
      "name": "VerifierRemoved",
      "type": "event"
    },
    {
      "inputs": [],
      "name": "DOMAIN_SEPARATOR",
      "outputs": [
        {
          "internalType": "bytes32",
          "name": "",
          "type": "bytes32"
        }
      ],
      "stateMutability": "view",
      "type": "function"
    },
    {
      "inputs": [
        {
          "internalType": "address",
          "name": "burnSubstitutor",
          "type": "address"
        }
      ],
      "name": "addBurnSubstitutor",
      "outputs": [],
      "stateMutability": "nonpayable",
      "type": "function"
    },
    {
      "inputs": [
        {
          "internalType": "address",
          "name": "prover",
          "type": "address"
        }
      ],
      "name": "addProver",
      "outputs": [],
      "stateMutability": "nonpayable",
      "type": "function"
    },
    {
      "inputs": [
        {
          "internalType": "bytes32",
          "name": "noteKind",
          "type": "bytes32"
        },
        {
          "internalType": "address",
          "name": "tokenAddress",
          "type": "address"
        }
      ],
      "name": "addToken",
      "outputs": [],
      "stateMutability": "nonpayable",
      "type": "function"
    },
    {
      "inputs": [
        {
          "internalType": "bytes32",
          "name": "verificationKeyHash",
          "type": "bytes32"
        },
        {
          "internalType": "address",
          "name": "verifierAddress",
          "type": "address"
        },
        {
          "internalType": "uint32",
          "name": "messages_length",
          "type": "uint32"
        }
      ],
      "name": "addZkVerifier",
      "outputs": [],
      "stateMutability": "nonpayable",
      "type": "function"
    },
    {
      "inputs": [],
      "name": "blockHeight",
      "outputs": [
        {
          "internalType": "uint256",
          "name": "",
          "type": "uint256"
        }
      ],
      "stateMutability": "view",
      "type": "function"
    },
    {
      "inputs": [],
      "name": "currentRootHash",
      "outputs": [
        {
          "internalType": "bytes32",
          "name": "",
          "type": "bytes32"
        }
      ],
      "stateMutability": "view",
      "type": "function"
    },
    {
      "inputs": [
        {
          "internalType": "bytes32",
          "name": "newRoot",
          "type": "bytes32"
        },
        {
          "internalType": "uint256",
          "name": "height",
          "type": "uint256"
        },
        {
          "internalType": "bytes32",
          "name": "otherHashFromBlockHash",
          "type": "bytes32"
        }
      ],
      "name": "debugGetIntermediateHashes",
      "outputs": [
        {
          "internalType": "bytes32",
          "name": "proposalHash",
          "type": "bytes32"
        },
        {
          "internalType": "bytes32",
          "name": "acceptMsg",
          "type": "bytes32"
        },
        {
          "internalType": "bytes32",
          "name": "sigMsg",
          "type": "bytes32"
        }
      ],
      "stateMutability": "pure",
      "type": "function"
    },
    {
      "inputs": [
        {
          "internalType": "bytes32",
          "name": "acceptMsg",
          "type": "bytes32"
        }
      ],
      "name": "debugGetPackedBytes",
      "outputs": [
        {
          "internalType": "bytes",
          "name": "",
          "type": "bytes"
        }
      ],
      "stateMutability": "pure",
      "type": "function"
    },
    {
      "inputs": [
        {
          "internalType": "bytes32",
          "name": "newRoot",
          "type": "bytes32"
        },
        {
          "internalType": "uint256",
          "name": "height",
          "type": "uint256"
        },
        {
          "internalType": "bytes32",
          "name": "otherHashFromBlockHash",
          "type": "bytes32"
        }
      ],
      "name": "debugGetSignatureMessageHash",
      "outputs": [
        {
          "internalType": "bytes32",
          "name": "",
          "type": "bytes32"
        }
      ],
      "stateMutability": "pure",
      "type": "function"
    },
    {
      "inputs": [
        {
          "internalType": "bytes32",
          "name": "hash",
          "type": "bytes32"
        }
      ],
      "name": "getMint",
      "outputs": [
        {
          "components": [
            {
              "internalType": "bytes32",
              "name": "note_kind",
              "type": "bytes32"
            },
            {
              "internalType": "uint256",
              "name": "amount",
              "type": "uint256"
            },
            {
              "internalType": "bool",
              "name": "spent",
              "type": "bool"
            }
          ],
          "internalType": "struct Mint",
          "name": "",
          "type": "tuple"
        }
      ],
      "stateMutability": "view",
      "type": "function"
    },
    {
      "inputs": [
        {
          "internalType": "uint256",
          "name": "from",
          "type": "uint256"
        }
      ],
      "name": "getValidatorSets",
      "outputs": [
        {
          "components": [
            {
              "internalType": "address[]",
              "name": "validators",
              "type": "address[]"
            },
            {
              "internalType": "uint256",
              "name": "validFrom",
              "type": "uint256"
            }
          ],
          "internalType": "struct PublicValidatorSet[]",
          "name": "",
          "type": "tuple[]"
        }
      ],
      "stateMutability": "view",
      "type": "function"
    },
    {
      "inputs": [
        {
          "internalType": "bytes32",
          "name": "verificationKeyHash",
          "type": "bytes32"
        }
      ],
      "name": "getZkVerifier",
      "outputs": [
        {
          "internalType": "address",
          "name": "",
          "type": "address"
        },
        {
          "internalType": "uint32",
          "name": "",
          "type": "uint32"
        }
      ],
      "stateMutability": "view",
      "type": "function"
    },
    {
      "inputs": [
        {
          "internalType": "address",
          "name": "owner",
          "type": "address"
        },
        {
          "internalType": "address",
          "name": "_tokenAddress",
          "type": "address"
        },
        {
          "internalType": "address",
          "name": "_verifierAddress",
          "type": "address"
        },
        {
          "internalType": "address",
          "name": "prover",
          "type": "address"
        },
        {
          "internalType": "address[]",
          "name": "initialValidators",
          "type": "address[]"
        },
        {
          "internalType": "bytes32",
          "name": "verifierKeyHash",
          "type": "bytes32"
        }
      ],
      "name": "initialize",
      "outputs": [],
      "stateMutability": "nonpayable",
      "type": "function"
    },
    {
      "inputs": [
        {
          "internalType": "bytes32",
          "name": "mint_hash",
          "type": "bytes32"
        },
        {
          "internalType": "bytes32",
          "name": "value",
          "type": "bytes32"
        },
        {
          "internalType": "bytes32",
          "name": "note_kind",
          "type": "bytes32"
        }
      ],
      "name": "mint",
      "outputs": [],
      "stateMutability": "nonpayable",
      "type": "function"
    },
    {
      "inputs": [
        {
          "internalType": "bytes32",
          "name": "",
          "type": "bytes32"
        }
      ],
      "name": "mints",
      "outputs": [
        {
          "internalType": "bytes32",
          "name": "note_kind",
          "type": "bytes32"
        },
        {
          "internalType": "uint256",
          "name": "amount",
          "type": "uint256"
        },
        {
          "internalType": "bool",
          "name": "spent",
          "type": "bool"
        }
      ],
      "stateMutability": "view",
      "type": "function"
    },
    {
      "inputs": [
        {
          "internalType": "bytes32",
          "name": "noteKind",
          "type": "bytes32"
        }
      ],
      "name": "noteKindTokenAddress",
      "outputs": [
        {
          "internalType": "address",
          "name": "",
          "type": "address"
        }
      ],
      "stateMutability": "view",
      "type": "function"
    },
    {
      "inputs": [],
      "name": "owner",
      "outputs": [
        {
          "internalType": "address",
          "name": "",
          "type": "address"
        }
      ],
      "stateMutability": "view",
      "type": "function"
    },
    {
      "inputs": [
        {
          "internalType": "address",
          "name": "burnSubstitutor",
          "type": "address"
        }
      ],
      "name": "removeBurnSubstitutor",
      "outputs": [],
      "stateMutability": "nonpayable",
      "type": "function"
    },
    {
      "inputs": [
        {
          "internalType": "address",
          "name": "prover",
          "type": "address"
        }
      ],
      "name": "removeProver",
      "outputs": [],
      "stateMutability": "nonpayable",
      "type": "function"
    },
    {
      "inputs": [
        {
          "internalType": "bytes32",
          "name": "verificationKeyHash",
          "type": "bytes32"
        }
      ],
      "name": "removeZkVerifier",
      "outputs": [],
      "stateMutability": "nonpayable",
      "type": "function"
    },
    {
      "inputs": [],
      "name": "renounceOwnership",
      "outputs": [],
      "stateMutability": "nonpayable",
      "type": "function"
    },
    {
      "inputs": [],
      "name": "rootHash",
      "outputs": [
        {
          "internalType": "bytes32",
          "name": "",
          "type": "bytes32"
        }
      ],
      "stateMutability": "view",
      "type": "function"
    },
    {
      "inputs": [
        {
          "internalType": "bytes32",
          "name": "newRoot",
          "type": "bytes32"
        }
      ],
      "name": "setRoot",
      "outputs": [],
      "stateMutability": "nonpayable",
      "type": "function"
    },
    {
      "inputs": [
        {
          "internalType": "uint256",
          "name": "validFrom",
          "type": "uint256"
        },
        {
          "internalType": "address[]",
          "name": "validators",
          "type": "address[]"
        }
      ],
      "name": "setValidators",
      "outputs": [],
      "stateMutability": "nonpayable",
      "type": "function"
    },
    {
      "inputs": [
        {
          "internalType": "address",
          "name": "burnAddress",
          "type": "address"
        },
        {
          "internalType": "bytes32",
          "name": "note_kind",
          "type": "bytes32"
        },
        {
          "internalType": "bytes32",
          "name": "hash",
          "type": "bytes32"
        },
        {
          "internalType": "uint256",
          "name": "amount",
          "type": "uint256"
        },
        {
          "internalType": "uint256",
          "name": "burnBlockHeight",
          "type": "uint256"
        }
      ],
      "name": "substituteBurn",
      "outputs": [],
      "stateMutability": "nonpayable",
      "type": "function"
    },
    {
      "inputs": [
        {
          "internalType": "bytes32",
          "name": "",
          "type": "bytes32"
        }
      ],
      "name": "substitutedBurns",
      "outputs": [
        {
          "internalType": "address",
          "name": "",
          "type": "address"
        }
      ],
      "stateMutability": "view",
      "type": "function"
    },
    {
      "inputs": [],
      "name": "token",
      "outputs": [
        {
          "internalType": "contract IERC20",
          "name": "",
          "type": "address"
        }
      ],
      "stateMutability": "view",
      "type": "function"
    },
    {
      "inputs": [
        {
          "internalType": "address",
          "name": "newOwner",
          "type": "address"
        }
      ],
      "name": "transferOwnership",
      "outputs": [],
      "stateMutability": "nonpayable",
      "type": "function"
    },
    {
      "inputs": [
        {
          "internalType": "uint256",
          "name": "height",
          "type": "uint256"
        },
        {
          "internalType": "bytes32",
          "name": "verificationKeyHash",
          "type": "bytes32"
        },
        {
          "internalType": "bytes",
          "name": "aggrProof",
          "type": "bytes"
        },
        {
          "internalType": "bytes32[]",
          "name": "publicInputs",
          "type": "bytes32[]"
        },
        {
          "internalType": "bytes32",
          "name": "otherHashFromBlockHash",
          "type": "bytes32"
        },
        {
          "components": [
            {
              "internalType": "bytes32",
              "name": "r",
              "type": "bytes32"
            },
            {
              "internalType": "bytes32",
              "name": "s",
              "type": "bytes32"
            },
            {
              "internalType": "uint256",
              "name": "v",
              "type": "uint256"
            }
          ],
          "internalType": "struct Signature[]",
          "name": "signatures",
          "type": "tuple[]"
        }
      ],
      "name": "verifyRollup",
      "outputs": [],
      "stateMutability": "nonpayable",
      "type": "function"
    },
    {
      "inputs": [],
      "name": "version",
      "outputs": [
        {
          "internalType": "uint8",
          "name": "",
          "type": "uint8"
        }
      ],
      "stateMutability": "view",
      "type": "function"
    },
    {
      "inputs": [
        {
          "internalType": "address",
          "name": "burn_address",
          "type": "address"
        },
        {
          "internalType": "bytes32",
          "name": "note_kind",
          "type": "bytes32"
        },
        {
          "internalType": "bytes32",
          "name": "hash",
          "type": "bytes32"
        },
        {
          "internalType": "uint256",
          "name": "amount",
          "type": "uint256"
        },
        {
          "internalType": "uint256",
          "name": "burnBlockHeight",
          "type": "uint256"
        }
      ],
      "name": "wasBurnSubstituted",
      "outputs": [
        {
          "internalType": "bool",
          "name": "",
          "type": "bool"
        }
      ],
      "stateMutability": "view",
      "type": "function"
    },
    {
      "inputs": [
        {
          "internalType": "uint256",
          "name": "",
          "type": "uint256"
        }
      ],
      "name": "zkVerifierKeys",
      "outputs": [
        {
          "internalType": "bytes32",
          "name": "",
          "type": "bytes32"
        }
      ],
      "stateMutability": "view",
      "type": "function"
    },
    {
      "inputs": [
        {
          "internalType": "bytes32",
          "name": "",
          "type": "bytes32"
        }
      ],
      "name": "zkVerifiers",
      "outputs": [
        {
          "internalType": "contract IVerifier",
          "name": "verifier",
          "type": "address"
        },
        {
          "internalType": "uint32",
          "name": "messages_length",
          "type": "uint32"
        },
        {
          "internalType": "bool",
          "name": "enabled",
          "type": "bool"
        }
      ],
      "stateMutability": "view",
      "type": "function"
    }
  ],
  "bytecode": "0x608080604052346100b9577ff0c57e16840df040f15088dc2f81fe391c3923bec73e23a9662efc9c229c6a009081549060ff8260401c166100aa57506001600160401b036002600160401b031982821601610065575b604051612ccc9081620000be8239f35b6001600160401b031990911681179091556040519081527fc7f505b2f371ae2175ee4913f4499e1f2633a7b5936321eed1cdaeb6115181d290602090a15f8080610055565b63f92ee8a960e01b8152600490fd5b5f80fdfe60806040526004361015610011575f80fd5b5f3560e01c80630d647a9a1461216e5780631d49e4571461210d5780631d80009a1461152157806326e31a9414611fb15780632a2bc73a14611f7f5780633644e51514611e9c57806339b7933d14611e625780634eeb381e14611d5057806354fd4d5014611d3157806356dc63cb14611ceb5780635d5fa0d114611c915780636b2bd2ec14611c5a578063715018a614611bf357806387ca08e5146116a05780638da5cb5b1461166c5780639776aacf146115bd578063a2ce9c1f1461153e578063a91eebf514611521578063ab1c290114611305578063b2142b50146112c4578063b571d3dd1461120c578063b72e88cb146111c8578063b8cdbd2714610ab5578063bb254e7a14610a94578063c1b1535914610a62578063c34975bb14610a13578063d82cbdd914610889578063dab5f34014610840578063e795594d146104c4578063ef0feff9146102d8578063f2fde38b146102ad578063f44ff71214610290578063f9038cf3146101bb5763fc0c546a1461018f575f80fd5b346101b7575f3660031901126101b7576003546040516001600160a01b039091168152602090f35b5f80fd5b346101b7576101f36101cc366122bf565b60409392919351928391856020840194856040919493926060820195825260208201520152565b0391610207601f199384810183528261232a565b519020906001830180931161027c576060926040516020810191825283604082015260408152610236816122d9565b5190209061024261234b565b90610266604051918261025a8660208301968761236e565b0390810183528261232a565b5190209060405192835260208301526040820152f35b634e487b7160e01b5f52601160045260245ffd5b346101b7575f3660031901126101b7576020600454604051908152f35b346101b75760203660031901126101b7576102d66102c96121fc565b6102d161257d565b61250c565b005b346101b7576020806003193601126101b75760043590600a546102fb83826123f1565b9261031e610308856124a8565b94610316604051968761232a565b8086526124a8565b601f19015f5b81811061049a575050805b8281106103e657505050604051918183928301818452825180915260408401918060408360051b8701019401925f905b83821061036c5786860387f35b919395509193603f19878203018252838651604083019080519160408552825180915283606086019301905f905b8082106103c357505050906001938380809401519101529701920192018695949293919361035f565b82516001600160a01b03168552899594850194909201916001919091019061039a565b6103f381959394956124bf565b506001809101906002610405846124bf565b5001549060405192610416846122f4565b60405191828a83549182815201925f528a5f20915f915b8c81841061047c575050505050918161044f600196959361047195038261232a565b82528882015261045f85846123f1565b9061046a82886124f8565b52856124f8565b50019392919361032f565b84546001600160a01b0316865290940193928101929181019161042d565b93809593946040516104ab816122f4565b606081525f838201528282870101520194939294610324565b346101b75760403660031901126101b75760246001600160401b0360043582358281116101b7576104f990369060040161228f565b61050493919361257d565b600a54938415801561081f575b156107a15783158015610778575b1561070e57600160401b95868610156106d35760019687870180600a55610545886124bf565b505087116106fa57856002610559896124bf565b50015587610566886124bf565b50019484116106e65783116106d35783548385558084106106ab575b5081935f52602093845f2090885f5b86811061069257505050505f5b8381106105d6577ffd204c7043da2bcc4dc261ed00edac3bb5e2b8c5c60c7535c4d17144759fc73260408888888351928352820152a1005b6105df876124bf565b506001600160a01b0390816105fd6105f8858989612480565b612690565b165f52865260ff60405f2054166106435790889161061a896124bf565b509061062a6105f8848989612480565b165f52865260405f208260ff198254161790550161059e565b60405162461bcd60e51b8152600481018790526022818501527f526f6c6c757056313a2056616c696461746f7220616c72656164792065786973604482015261747360f01b6064820152608490fd5b8761069c84612690565b93019281850155018990610591565b845f52878460205f2092830192015b8281106106c8575050610582565b5f81550188906106ba565b634e487b7160e01b5f9081526041600452fd5b50634e487b7160e01b5f9081526041600452fd5b50634e487b7160e01b5f9081526011600452fd5b60405162461bcd60e51b815260206004820152603d818801527f526f6c6c757056313a2076616c696446726f6d2063616e6e6f74206265206d6f60448201527f7265207468616e203330206461797320696e20746865206675747572650000006064820152608490fd5b5062278d00430180431161078e5784111561051f565b86634e487b7160e01b5f5260116004525ffd5b60405162461bcd60e51b815260206004820152604b818801527f526f6c6c757056313a204e65772076616c696461746f7220736574206d75737460448201527f206861766520612076616c696446726f6d2067726561746572207468616e207460648201526a1a19481b185cdd081cd95d60aa1b608482015260a490fd5b505f19850185811161078e57600261083786926124bf565b50015410610511565b346101b75760203660031901126101b75760043561085c61257d565b600554816005557f2c5e454ab10a3bb8f13831cd35da5f0dbef2c5ac1c80c171157ab07519e097485f80a3005b346101b75760603660031901126101b7576004356108a5612212565b906044359063ffffffff82168083036101b7576108c061257d565b6001600160a01b0384169384156109c0573b1561096b577fdb2a4be964bb3f5ba0504bccdbceaa478be8d73af2238cd9be0ba0c8efc107ca93606093835f52600160205260ff60405f205460c01c161561095d575b835f52600160205260405f2090815483600160c01b9263ffffffff60a01b9060a01b169166ffffffffffffff60c81b16171717905560405192835260208301526040820152a1005b6109668461245a565b610915565b60405162461bcd60e51b815260206004820152602760248201527f526f6c6c757056313a205a4b207665726966696572206973206e6f74206120636044820152661bdb9d1c9858dd60ca1b6064820152608490fd5b60405162461bcd60e51b815260206004820152602560248201527f526f6c6c757056313a20496e76616c6964207a6b207665726966696572206164604482015264647265737360d81b6064820152608490fd5b346101b75760203660031901126101b7576004355f526001602052606060405f205460ff6040519160018060a01b038116835263ffffffff8160a01c16602084015260c01c1615156040820152f35b346101b75760203660031901126101b7576004355f526007602052602060018060a01b0360405f205416604051908152f35b346101b7576020610aad610aa7366122bf565b916126a4565b604051908152f35b346101b75760c03660031901126101b7576001600160401b0380604435116101b7573660236044350112156101b7578060443560040135116101b757366024604435600401356044350101116101b7576064358181116101b757610b1d90369060040161228f565b90918060a435116101b75736602360a4350112156101b75760a43560040135116101b757366024606060a435600401350260a4350101116101b757335f526009602052600160405f20540361118c576024355f52600160205260ff60405f205460c01c161561113d576024355f526001602052600363ffffffff60405f205460a01c160163ffffffff811161027c5763ffffffff1681036110ea5780156110d65780600110156110d65780600210156110d65760055482350361108157600b5460018101811161027c576001015b600a5481101561107b57610bfe816124bf565b50600260043591015411610c195780600191600b5501610beb565b505b610c26600b546124bf565b5060a43560040135156110365760018101548060011b908082046002149015171561027c57600390046001810180911161027c5760a4356004013510610fcb57610c7960843560043560208601356126a4565b905f805b60a435600401358210610ed05785856024355f52600160205263ffffffff60405f205460a01c166003908060030160031161027c57905b816003018110610ebc5750506024355f52600160205260018060a01b0360405f2054169060405191633a94343960e21b8352604060048401526044356004013560448401526044356004013560246044350160648501375f60046044350135848101606490810192909252601f01601f191684018481036060016024860152908101839052906001600160fb1b0383116101b75783608481809460209660051b90818a85830137010301915afa908115610eb1575f91610e82575b5015610e2e5760208101356005556004546004351115610dc357600435600455602060405191013581527f401f796450733fd22827ddc018ca37051459a8035c4026f533c294797bb8a49e602060043592a2005b60405162461bcd60e51b815260206004820152603760248201527f526f6c6c757056313a204e657720626c6f636b20686569676874206d7573742060448201527f62652067726561746572207468616e2063757272656e740000000000000000006064820152608490fd5b60405162461bcd60e51b815260206004820152602660248201527f526f6c6c757056313a205a4b2070726f6f6620766572696669636174696f6e2060448201526519985a5b195960d21b6064820152608490fd5b610ea4915060203d602011610eaa575b610e9c818361232a565b810190612490565b82610d6f565b503d610e92565b6040513d5f823e3d90fd5b610ecb908385600435926127a3565b610cb4565b610f0190610ef86060840260a4350160448101359060ff606460248301359201351688612b51565b90939193612bd3565b60018060a01b0380831691825f5285602052600160ff60405f205416151503610f7a57161015610f3657600190910190610c7d565b606460405162461bcd60e51b815260206004820152602060248201527f526f6c6c757056313a205369676e65727320617265206e6f7420736f727465646044820152fd5b60405162461bcd60e51b815260206004820152602360248201527f526f6c6c757056313a205369676e6572206973206e6f7420612076616c6964616044820152623a37b960e91b6064820152608490fd5b60405162461bcd60e51b815260206004820152603f60248201527f526f6c6c757056313a204e6f7420656e6f756768207369676e6174757265732060448201527f66726f6d2076616c696461746f727320746f2076657269667920626c6f636b006064820152608490fd5b60405162461bcd60e51b815260206004820152601760248201527f526f6c6c757056313a204e6f207369676e6174757265730000000000000000006044820152606490fd5b50610c1b565b60405162461bcd60e51b815260206004820152602760248201527f526f6c6c757056313a20526f6f74206861736820766572696669636174696f6e6044820152660819985a5b195960ca1b6064820152608490fd5b634e487b7160e01b5f52603260045260245ffd5b60405162461bcd60e51b815260206004820152602560248201527f526f6c6c757056313a20496e76616c6964207075626c6963496e70757473206c6044820152640cadccee8d60db1b6064820152608490fd5b60405162461bcd60e51b815260206004820152602160248201527f526f6c6c757056313a205a4b207665726966696572206e6f7420616c6c6f77656044820152601960fa1b6064820152608490fd5b60405162461bcd60e51b81526020600482015260146024820152732cb7ba9030b932903737ba103090383937bb32b960611b6044820152606490fd5b346101b75760203660031901126101b7576111e16121fc565b6111e961257d565b6001600160a01b03165f908152600c60205260409020805460ff19166001179055005b346101b75760203660031901126101b7576112256121fc565b61122d61257d565b6001600160a01b03165f818152600960205260409020545f190161127f57805f5260096020525f60408120557fd64d11086d859b73cf85a91ca06cbc484398acabe3d9a1b26d4366dff377d9855f80a2005b60405162461bcd60e51b815260206004820152601760248201527f41646472657373206973206e6f7420612070726f7665720000000000000000006044820152606490fd5b346101b75760203660031901126101b7576112dd6121fc565b6112e561257d565b6001600160a01b03165f908152600c60205260409020805460ff19169055005b346101b75761131336612228565b90929391335f52602093600c8552600160ff60405f2054161515036114cb5761133f83828887866125b5565b95865f526007865260018060a01b03938460405f20541661147b576004541015611425575f52600885527f25bab1ec4b6635a8e0740834e52ce1aee362e9c38447738aa7b75b7e06275b0760406113b485825f205416936113a18515156123fe565b6113ad813033886125f4565b8785612a8c565b948151956001875215968715898801521694a46113e9575f918252600790526040902080546001600160a01b03191633179055005b6064906040519062461bcd60e51b825260048201526015602482015274149bdb1b1d5c158c4e88109d5c9b8819985a5b1959605a1b6044820152fd5b60405162461bcd60e51b815260048101879052602860248201527f526f6c6c757056313a20426c6f636b2068656967687420616c7265616479207260448201526706f6c6c65642075760c41b6064820152608490fd5b60405162461bcd60e51b815260048101889052602260248201527f526f6c6c757056313a204275726e20616c726561647920737562737469747574604482015261195960f21b6064820152608490fd5b60405162461bcd60e51b815260048101869052602860248201527f526f6c6c757056313a20596f7520617265206e6f742061206275726e2073756260448201526739ba34ba3aba37b960c11b6064820152608490fd5b346101b7575f3660031901126101b7576020600554604051908152f35b346101b75760203660031901126101b7575f6040805161155d816122d9565b82815282602082015201526004355f526006602052606060405f20604051611584816122d9565b815491828252604060ff600260018401549360208601948552015416920191151582526040519283525160208301525115156040820152f35b346101b75760403660031901126101b7576004356115d9612212565b906115e261257d565b5f818152600860205260409020546001600160a01b0391908216611627575f52600860205260405f2091166bffffffffffffffffffffffff60a01b8254161790555f80f35b60405162461bcd60e51b815260206004820152601e60248201527f526f6c6c757056313a20546f6b656e20616c72656164792065786973747300006044820152606490fd5b346101b7575f3660031901126101b7575f80516020612c57833981519152546040516001600160a01b039091168152602090f35b346101b75760c03660031901126101b7576116b96121fc565b6116c1612212565b6044356001600160a01b03811681036101b757606435926001600160a01b03841684036101b7576084356001600160401b0381116101b75761170790369060040161228f565b945f80516020612c7783398151915254936001600160401b0385161580611be5575b60016001600160401b038716149081611bdb575b159081611bd2575b50611bc05760016001600160401b03198616175f80516020612c778339815191525560ff8560401c1615611b94575b600160ff195f5416175f55611787612721565b61178f612721565b6117988461250c565b600380546001600160a01b0319166001600160a01b038881169190911790915560a4355f81815260016020526040902080546001600160c81b0319169390921692909217638000000f60a11b1790556117f09061245a565b6001600160a01b03165f90815260096020526040902060019055600a549485158015611b77575b15611af857600160401b861015611ae4576001860180600a55611839876124bf565b5050861161027c575f600261184d886124bf565b500155611859866124bf565b506001600160401b038211611ae457600160401b8211611ae4576001810154826001830155808310611aba575b5060018391015f5260205f20905f5b838110611a9f575050505f5b8181106119e2575050507ffd204c7043da2bcc4dc261ed00edac3bb5e2b8c5c60c7535c4d17144759fc732604060ff949581519081525f6020820152a1600554937f0577b5b4aa3eaba75b2a919d5d7c63b7258aa507d38e346bf2ff1d48790379ff80600555604051957f2c5e454ab10a3bb8f13831cd35da5f0dbef2c5ac1c80c171157ab07519e097485f80a37f154dc6546aae50b4d3772d636c3f1949122dcebaeda2ba647059f85ff99f1cc880546001600160a01b0319166001600160a01b03928316179055165f908152600c602052604090819020805484191660011790551c161561198d57005b60207fc7f505b2f371ae2175ee4913f4499e1f2633a7b5936321eed1cdaeb6115181d29168ff0000000000000000195f80516020612c7783398151915254165f80516020612c778339815191525560018152a1005b6119eb876124bf565b506001600160a01b03611a026105f8848688612480565b165f5260205260ff60405f205416611a4f57600190611a20886124bf565b50828060a01b03611a356105f8848789612480565b165f5260205260405f208260ff19825416179055016118a1565b60405162461bcd60e51b815260206004820152602260248201527f526f6c6c757056313a2056616c696461746f7220616c72656164792065786973604482015261747360f01b6064820152608490fd5b6001906020611aad84612690565b9301928185015501611895565b600182015f5260205f20908382015b8183018110611ad9575050611886565b5f8155600101611ac9565b634e487b7160e01b5f52604160045260245ffd5b60405162461bcd60e51b815260206004820152604b60248201527f526f6c6c757056313a204e65772076616c696461746f7220736574206d75737460448201527f206861766520612076616c696446726f6d2067726561746572207468616e207460648201526a1a19481b185cdd081cd95d60aa1b608482015260a490fd5b505f19860186811161027c57611b8c906124bf565b50505f611817565b68ffffffffffffffffff19851668010000000000000001175f80516020612c7783398151915255611774565b60405163f92ee8a960e01b8152600490fd5b90501588611745565b303b15915061173d565b5060ff8560401c1615611729565b346101b7575f3660031901126101b757611c0b61257d565b5f80516020612c5783398151915280546001600160a01b031981169091555f906001600160a01b03167f8be0079c531659141344cd1fd0a4f28419497f9722a3daafe3b4186f6b6457e08280a3005b346101b75760203660031901126101b7576004356002548110156101b757611c8360209161225a565b90546040519160031b1c8152f35b346101b75760203660031901126101b757600435805f526001602052611cc060ff60405f205460c01c16612399565b5f5260016020526040805f205463ffffffff82519160018060a01b038116835260a01c166020820152f35b346101b75760203660031901126101b7576004355f526006602052606060405f2080549060ff600260018301549201541690604051928352602083015215156040820152f35b346101b7575f3660031901126101b757602060ff5f5416604051908152f35b346101b75760603660031901126101b757600435602435604435825f52602060068152600160405f200154611e1e5791817fc4adcac6a89d730f3a6da5d846bba3d858a8fc5884e0f80940a3a3b96a4ae6f1936040935f5260088152611dd08360018060a01b03865f205416611dc78115156123fe565b309033906125f4565b8351611ddb816122d9565b828152600282820191858352868101925f8452895f5260068552875f2091518255516001820155019051151560ff801983541691161790558351928352820152a2005b6064906040519062461bcd60e51b82526004820152601d60248201527f526f6c6c757056313a204d696e7420616c7265616479206578697374730000006044820152fd5b346101b757611e7c611e7336612228565b939092916125b5565b5f526007602052602060018060a01b0360405f2054161515604051908152f35b346101b7575f3660031901126101b757650526f6c6c75760d41b6020604051611ec4816122f4565b600681520152603160f81b6020604051611edd816122f4565b6001815201526020604051818101907f8b73c3c69bb8fe3d512ecc4cf759cc79239f7b179b0ffacaa9a75d522b39400f82527fc82a8a13fc2fdda879509bc5c45bfffe0508f437994e87b6b3cb003a4d486c1960408201527fc89efdaa54c0f20c7adf612882df0950f5a951637e0307cdcb4c672f298b8bc660608201524660808201523060a082015260a08152611f748161230f565b519020604051908152f35b346101b75760203660031901126101b7576004355f526008602052602060018060a01b0360405f205416604051908152f35b346101b75760203660031901126101b757600435611fcd61257d565b805f526001906001602052611feb60ff60405f205460c01c16612399565b805f52600160205260405f20915f60018060a01b038454169355600280545f5b818110612045575b7fa67e94ae6f2b34c76ff45db881989225caa876cbe2d8215c01650a104557573d6040868882519182526020820152a1005b8461204f8261225a565b919054600392831b1c146120655750830161200b565b5f1996939594509186810190811161027c576120926120866120a89261225a565b905490851b1c9261225a565b819391549060031b91821b915f19901b19161790565b905583549384156120f957857fa67e94ae6f2b34c76ff45db881989225caa876cbe2d8215c01650a104557573d9660409601926120e48461225a565b81939154921b1b191690555592819285612013565b634e487b7160e01b5f52603160045260245ffd5b346101b75760203660031901126101b7576121266121fc565b61212e61257d565b6001600160a01b03165f818152600960205260408120600190557fef1fa0a4d797341645c201a742cf59be633da0589e0e3cda511cfc90cd0396849080a2005b346101b75760203660031901126101b7576121d2604061218c61234b565b815190601f826121a46020820193600435908561236e565b03916121b782199384810186528561232a565b845195869460208652518092816020880152878701906121db565b01168101030190f35b5f5b8381106121ec5750505f910152565b81810151838201526020016121dd565b600435906001600160a01b03821682036101b757565b602435906001600160a01b03821682036101b757565b60a09060031901126101b7576004356001600160a01b03811681036101b7579060243590604435906064359060843590565b6002548110156110d65760025f527f405787fa12a823e0f2b7631cc41b3ba8828b3321ca811111fa75cd3aa3bb5ace01905f90565b9181601f840112156101b7578235916001600160401b0383116101b7576020808501948460051b0101116101b757565b60609060031901126101b757600435906024359060443590565b606081019081106001600160401b03821117611ae457604052565b604081019081106001600160401b03821117611ae457604052565b60c081019081106001600160401b03821117611ae457604052565b90601f801991011681019081106001600160401b03821117611ae457604052565b60405190612358826122f4565b60078252664369706865726160c81b6020830152565b9060289291600760c01b815261238e8251809360206008850191016121db565b019060088201520190565b156123a057565b60405162461bcd60e51b8152602060048201526024808201527f526f6c6c757056313a205a4b20766572696669657220646f6573206e6f7420656044820152631e1a5cdd60e21b6064820152608490fd5b9190820391821161027c57565b1561240557565b60405162461bcd60e51b815260206004820152602760248201527f526f6c6c757056313a20546f6b656e206e6f7420666f756e6420666f72206e6f6044820152661d19481ada5b9960ca1b6064820152608490fd5b600254600160401b811015611ae45761209281600161247c930160025561225a565b9055565b91908110156110d65760051b0190565b908160209103126101b7575180151581036101b75790565b6001600160401b038111611ae45760051b60200190565b600a548110156110d657600390600a5f52027fc65a7bb8d6351c1cf70c95a316cc6a92839c986682d98bc35f958f4883f9d2a801905f90565b80518210156110d65760209160051b010190565b6001600160a01b03908116908115612565575f80516020612c5783398151915280546001600160a01b031981168417909155167f8be0079c531659141344cd1fd0a4f28419497f9722a3daafe3b4186f6b6457e05f80a3565b604051631e4fbdf760e01b81525f6004820152602490fd5b5f80516020612c57833981519152546001600160a01b0316330361259d57565b60405163118cdaa760e01b8152336004820152602490fd5b9391929092604051936020850195865260018060a01b031660408501526060840152608083015260a082015260a081526125ee8161230f565b51902090565b6040516323b872dd60e01b602082019081526001600160a01b039384166024830152938316604482015260648082019590955293845292909160a08201906001600160401b03821183831017611ae4576020925f92604052519082865af115610eb1575f513d61268757508082163b155b61266d575050565b604051635274afe760e01b81529116600482015260249150fd5b60011415612665565b356001600160a01b03811681036101b75790565b6040805160208101928352908101839052606080820194909452928352601f19926126d060808261232a565b5190206001820180921161027c5761025a916125ee916040519060208201928352604082015260408152612703816122d9565b5190209261270f61234b565b9360405193849160208301968761236e565b60ff5f80516020612c778339815191525460401c161561273d57565b604051631afcd79f60e31b8152600490fd5b91909261275d908484612a8c565b604080515f8152821515602082015291946001600160a01b039081169416917f25bab1ec4b6635a8e0740834e52ce1aee362e9c38447738aa7b75b7e06275b079190a490565b9291906127b1848383612480565b35806127c957505050506001810180911161027c5790565b6002810361297757509091506001830180841161027c576127eb908383612480565b35906002840180851161027c57612803908483612480565b3592600385019081861161027c5761281a92612480565b3591825f5260209160068352604092826001855f2001540361293457845f526006815281845f2054036128f257845f526006815260ff6002855f200154166128af575f85815260068252849020600201805460ff1916600117905583519283528201527f948ecd827e77afeeebdc95f4d34a294c53d7e28501dcd56c8d89e88e61b53a509190a26004810180911161027c5790565b60649084519062461bcd60e51b82526004820152601c60248201527f526f6c6c757056313a204d696e7420616c7265616479207370656e74000000006044820152fd5b60649084519062461bcd60e51b825280600483015260248201527f526f6c6c757056313a204d696e74206e6f7465206b696e6420696e76616c69646044820152fd5b60649084519062461bcd60e51b82526004820152601c60248201527f526f6c6c757056313a204d696e742076616c756520696e76616c6964000000006044820152fd5b600303612a47576001840180851161027c57612994908383612480565b35926002850180861161027c576129ac908484612480565b35926003860180871161027c576129c4908285612480565b3592600487019081881161027c576001600160a01b0392612a069284926129eb9290612480565b351692865f526008602052858360405f2054169785876125b5565b5f9081526007602052604090205416908115612a365750612a269361274f565b505b6005810180911161027c5790565b9050612a419361274f565b50612a28565b60405162461bcd60e51b815260206004820152601e60248201527f526f6c6c757056313a20496e76616c6964206d657373616765206b696e6400006044820152606490fd5b909160405190602082019363a9059cbb60e01b855260018060a01b0316602483015260448201526044815260808101916001600160401b039382841085851117611ae4575f809493819460405251925af13d15612b48573d918211611ae45760405191612b03601f8201601f19166020018461232a565b82523d5f602084013e5b15612b435780519081612b22575b5050600190565b602080612b33938301019101612490565b15612b3f575f80612b1b565b5f90565b505f90565b60609150612b0d565b91907f7fffffffffffffffffffffffffffffff5d576e7357a4501ddfe92f46681b20a08411612bc8579160209360809260ff5f9560405194855216868401526040830152606082015282805260015afa15610eb1575f516001600160a01b03811615612bbe57905f905f90565b505f906001905f90565b5050505f9160039190565b6004811015612c425780612be5575050565b60018103612bff5760405163f645eedf60e01b8152600490fd5b60028103612c205760405163fce698f760e01b815260048101839052602490fd5b600314612c2a5750565b602490604051906335e2f38360e21b82526004820152fd5b634e487b7160e01b5f52602160045260245ffdfe9016d09d72d40fdae2fd8ceac6b6234c7706214fd39c1cd1e609a0528c199300f0c57e16840df040f15088dc2f81fe391c3923bec73e23a9662efc9c229c6a00a2646970667358221220cc919a3e19e3bd7776db2dabaf273ef4e0e9f16772666188ef6c37bcb8dff4dd64736f6c63430008180033",
  "linkReferences": {},
  "deployedLinkReferences": {},
  "immutableReferences": {},
  "inputSourceName": "project/contracts/rollup/RollupV1.sol",
  "buildInfoId": "solc-0_8_24-db82b98d099e3d8fa3fbc342abc8ff83323ba4e4"
}