{
  "_format": "hh3-artifact-1",
  "contractName": "RollupV1",
  "sourceName": "contracts/rollup/RollupV1.sol",
  "abi": [
    {
      "inputs": [],
      "stateMutability": "nonpayable",
      "type": "constructor"
    },
    {
      "inputs": [],
      "name": "ECDSAInvalidSignature",
      "type": "error"
    },
    {
      "inputs": [
        {
          "internalType": "uint256",
          "name": "length",
          "type": "uint256"
        }
      ],
      "name": "ECDSAInvalidSignatureLength",
      "type": "error"
    },
    {
      "inputs": [
        {
          "internalType": "bytes32",
          "name": "s",
          "type": "bytes32"
        }
      ],
      "name": "ECDSAInvalidSignatureS",
      "type": "error"
    },
    {
      "inputs": [],
      "name": "InvalidInitialization",
      "type": "error"
    },
    {
      "inputs": [],
      "name": "NotInitializing",
      "type": "error"
    },
    {
      "inputs": [
        {
          "internalType": "address",
          "name": "owner",
          "type": "address"
        }
      ],
      "name": "OwnableInvalidOwner",
      "type": "error"
    },
    {
      "inputs": [
        {
          "internalType": "address",
          "name": "account",
          "type": "address"
        }
      ],
      "name": "OwnableUnauthorizedAccount",
      "type": "error"
    },
    {
      "inputs": [
        {
          "internalType": "address",
          "name": "token",
          "type": "address"
        }
      ],
      "name": "SafeERC20FailedOperation",
      "type": "error"
    },
    {
      "anonymous": false,
      "inputs": [
        {
          "indexed": true,
          "internalType": "address",
          "name": "token",
          "type": "address"
        },
        {
          "indexed": true,
          "internalType": "bytes32",
          "name": "burn_hash",
          "type": "bytes32"
        },
        {
          "indexed": true,
          "internalType": "address",
          "name": "recipient",
          "type": "address"
        },
        {
          "indexed": false,
          "internalType": "bool",
          "name": "substitute",
          "type": "bool"
        },
        {
          "indexed": false,
          "internalType": "bool",
          "name": "success",
          "type": "bool"
        }
      ],
      "name": "Burned",
      "type": "event"
    },
    {
      "anonymous": false,
      "inputs": [
        {
          "indexed": false,
          "internalType": "uint64",
          "name": "version",
          "type": "uint64"
        }
      ],
      "name": "Initialized",
      "type": "event"
    },
    {
      "anonymous": false,
      "inputs": [
        {
          "indexed": true,
          "internalType": "bytes32",
          "name": "mint_hash",
          "type": "bytes32"
        },
        {
          "indexed": false,
          "internalType": "uint256",
          "name": "value",
          "type": "uint256"
        },
        {
          "indexed": false,
          "internalType": "bytes32",
          "name": "note_kind",
          "type": "bytes32"
        }
      ],
      "name": "MintAdded",
      "type": "event"
    },
    {
      "anonymous": false,
      "inputs": [
        {
          "indexed": true,
          "internalType": "bytes32",
          "name": "hash",
          "type": "bytes32"
        },
        {
          "indexed": false,
          "internalType": "bytes32",
          "name": "value",
          "type": "bytes32"
        },
        {
          "indexed": false,
          "internalType": "bytes32",
          "name": "note_kind",
          "type": "bytes32"
        }
      ],
      "name": "Minted",
      "type": "event"
    },
    {
      "anonymous": false,
      "inputs": [
        {
          "indexed": true,
          "internalType": "address",
          "name": "previousOwner",
          "type": "address"
        },
        {
          "indexed": true,
          "internalType": "address",
          "name": "newOwner",
          "type": "address"
        }
      ],
      "name": "OwnershipTransferred",
      "type": "event"
    },
    {
      "anonymous": false,
      "inputs": [
        {
          "indexed": true,
          "internalType": "address",
          "name": "prover",
          "type": "address"
        }
      ],
      "name": "ProverAdded",
      "type": "event"
    },
    {
      "anonymous": false,
      "inputs": [
        {
          "indexed": true,
          "internalType": "address",
          "name": "prover",
          "type": "address"
        }
      ],
      "name": "ProverRemoved",
      "type": "event"
    },
    {
      "anonymous": false,
      "inputs": [
        {
          "indexed": true,
          "internalType": "uint256",
          "name": "height",
          "type": "uint256"
        },
        {
          "indexed": false,
          "internalType": "bytes32",
          "name": "root",
          "type": "bytes32"
        }
      ],
      "name": "RollupVerified",
      "type": "event"
    },
    {
      "anonymous": false,
      "inputs": [
        {
          "indexed": true,
          "internalType": "bytes32",
          "name": "oldRoot",
          "type": "bytes32"
        },
        {
          "indexed": true,
          "internalType": "bytes32",
          "name": "newRoot",
          "type": "bytes32"
        }
      ],
      "name": "RootHashUpdated",
      "type": "event"
    },
    {
      "anonymous": false,
      "inputs": [
        {
          "indexed": false,
          "internalType": "uint256",
          "name": "index",
          "type": "uint256"
        },
        {
          "indexed": false,
          "internalType": "uint256",
          "name": "validFrom",
          "type": "uint256"
        }
      ],
      "name": "ValidatorSetAdded",
      "type": "event"
    },
    {
      "anonymous": false,
      "inputs": [
        {
          "indexed": false,
          "internalType": "bytes32",
          "name": "verificationKey",
          "type": "bytes32"
        },
        {
          "indexed": false,
          "internalType": "address",
          "name": "zkVerifierAddress",
          "type": "address"
        },
        {
          "indexed": false,
          "internalType": "uint32",
          "name": "messages_length",
          "type": "uint32"
        }
      ],
      "name": "VerifierAdded",
      "type": "event"
    },
    {
      "anonymous": false,
      "inputs": [
        {
          "indexed": false,
          "internalType": "bytes32",
          "name": "verificationKey",
          "type": "bytes32"
        },
        {
          "indexed": false,
          "internalType": "address",
          "name": "zkVerifierAddress",
          "type": "address"
        }
      ],
      "name": "VerifierRemoved",
      "type": "event"
    },
    {
      "inputs": [],
      "name": "DOMAIN_SEPARATOR",
      "outputs": [
        {
          "internalType": "bytes32",
          "name": "",
          "type": "bytes32"
        }
      ],
      "stateMutability": "view",
      "type": "function"
    },
    {
      "inputs": [
        {
          "internalType": "address",
          "name": "burnSubstitutor",
          "type": "address"
        }
      ],
      "name": "addBurnSubstitutor",
      "outputs": [],
      "stateMutability": "nonpayable",
      "type": "function"
    },
    {
      "inputs": [
        {
          "internalType": "address",
          "name": "prover",
          "type": "address"
        }
      ],
      "name": "addProver",
      "outputs": [],
      "stateMutability": "nonpayable",
      "type": "function"
    },
    {
      "inputs": [
        {
          "internalType": "bytes32",
          "name": "noteKind",
          "type": "bytes32"
        },
        {
          "internalType": "address",
          "name": "tokenAddress",
          "type": "address"
        }
      ],
      "name": "addToken",
      "outputs": [],
      "stateMutability": "nonpayable",
      "type": "function"
    },
    {
      "inputs": [
        {
          "internalType": "bytes32",
          "name": "verificationKeyHash",
          "type": "bytes32"
        },
        {
          "internalType": "address",
          "name": "verifierAddress",
          "type": "address"
        },
        {
          "internalType": "uint32",
          "name": "messages_length",
          "type": "uint32"
        }
      ],
      "name": "addZkVerifier",
      "outputs": [],
      "stateMutability": "nonpayable",
      "type": "function"
    },
    {
      "inputs": [],
      "name": "blockHeight",
      "outputs": [
        {
          "internalType": "uint256",
          "name": "",
          "type": "uint256"
        }
      ],
      "stateMutability": "view",
      "type": "function"
    },
    {
      "inputs": [],
      "name": "currentRootHash",
      "outputs": [
        {
          "internalType": "bytes32",
          "name": "",
          "type": "bytes32"
        }
      ],
      "stateMutability": "view",
      "type": "function"
    },
    {
      "inputs": [
        {
          "internalType": "bytes32",
          "name": "newRoot",
          "type": "bytes32"
        },
        {
          "internalType": "uint256",
          "name": "height",
          "type": "uint256"
        },
        {
          "internalType": "bytes32",
          "name": "otherHashFromBlockHash",
          "type": "bytes32"
        }
      ],
      "name": "debugGetIntermediateHashes",
      "outputs": [
        {
          "internalType": "bytes32",
          "name": "proposalHash",
          "type": "bytes32"
        },
        {
          "internalType": "bytes32",
          "name": "acceptMsg",
          "type": "bytes32"
        },
        {
          "internalType": "bytes32",
          "name": "sigMsg",
          "type": "bytes32"
        }
      ],
      "stateMutability": "pure",
      "type": "function"
    },
    {
      "inputs": [
        {
          "internalType": "bytes32",
          "name": "acceptMsg",
          "type": "bytes32"
        }
      ],
      "name": "debugGetPackedBytes",
      "outputs": [
        {
          "internalType": "bytes",
          "name": "",
          "type": "bytes"
        }
      ],
      "stateMutability": "pure",
      "type": "function"
    },
    {
      "inputs": [
        {
          "internalType": "bytes32",
          "name": "newRoot",
          "type": "bytes32"
        },
        {
          "internalType": "uint256",
          "name": "height",
          "type": "uint256"
        },
        {
          "internalType": "bytes32",
          "name": "otherHashFromBlockHash",
          "type": "bytes32"
        }
      ],
      "name": "debugGetSignatureMessageHash",
      "outputs": [
        {
          "internalType": "bytes32",
          "name": "",
          "type": "bytes32"
        }
      ],
      "stateMutability": "pure",
      "type": "function"
    },
    {
      "inputs": [],
      "name": "escrowManager",
      "outputs": [
        {
          "internalType": "address",
          "name": "",
          "type": "address"
        }
      ],
      "stateMutability": "view",
      "type": "function"
    },
    {
      "inputs": [
        {
          "internalType": "bytes32",
          "name": "hash",
          "type": "bytes32"
        }
      ],
      "name": "getMint",
      "outputs": [
        {
          "components": [
            {
              "internalType": "bytes32",
              "name": "note_kind",
              "type": "bytes32"
            },
            {
              "internalType": "uint256",
              "name": "amount",
              "type": "uint256"
            },
            {
              "internalType": "bool",
              "name": "spent",
              "type": "bool"
            }
          ],
          "internalType": "struct Mint",
          "name": "",
          "type": "tuple"
        }
      ],
      "stateMutability": "view",
      "type": "function"
    },
    {
      "inputs": [
        {
          "internalType": "uint256",
          "name": "from",
          "type": "uint256"
        }
      ],
      "name": "getValidatorSets",
      "outputs": [
        {
          "components": [
            {
              "internalType": "address[]",
              "name": "validators",
              "type": "address[]"
            },
            {
              "internalType": "uint256",
              "name": "validFrom",
              "type": "uint256"
            }
          ],
          "internalType": "struct PublicValidatorSet[]",
          "name": "",
          "type": "tuple[]"
        }
      ],
      "stateMutability": "view",
      "type": "function"
    },
    {
      "inputs": [
        {
          "internalType": "bytes32",
          "name": "verificationKeyHash",
          "type": "bytes32"
        }
      ],
      "name": "getZkVerifier",
      "outputs": [
        {
          "internalType": "address",
          "name": "",
          "type": "address"
        },
        {
          "internalType": "uint32",
          "name": "",
          "type": "uint32"
        }
      ],
      "stateMutability": "view",
      "type": "function"
    },
    {
      "inputs": [
        {
          "internalType": "address",
          "name": "owner",
          "type": "address"
        },
        {
          "internalType": "address",
          "name": "_escrowManager",
          "type": "address"
        },
        {
          "internalType": "address",
          "name": "_tokenAddress",
          "type": "address"
        },
        {
          "internalType": "address",
          "name": "_verifierAddress",
          "type": "address"
        },
        {
          "internalType": "address",
          "name": "prover",
          "type": "address"
        },
        {
          "internalType": "address[]",
          "name": "initialValidators",
          "type": "address[]"
        },
        {
          "internalType": "bytes32",
          "name": "verifierKeyHash",
          "type": "bytes32"
        }
      ],
      "name": "initialize",
      "outputs": [],
      "stateMutability": "nonpayable",
      "type": "function"
    },
    {
      "inputs": [
        {
          "internalType": "bytes32",
          "name": "mint_hash",
          "type": "bytes32"
        },
        {
          "internalType": "bytes32",
          "name": "value",
          "type": "bytes32"
        },
        {
          "internalType": "bytes32",
          "name": "note_kind",
          "type": "bytes32"
        }
      ],
      "name": "mint",
      "outputs": [],
      "stateMutability": "nonpayable",
      "type": "function"
    },
    {
      "inputs": [
        {
          "internalType": "bytes32",
          "name": "mint_hash",
          "type": "bytes32"
        },
        {
          "internalType": "uint256",
          "name": "value",
          "type": "uint256"
        },
        {
          "internalType": "bytes32",
          "name": "note_kind",
          "type": "bytes32"
        }
      ],
      "name": "mintClaimed",
      "outputs": [],
      "stateMutability": "nonpayable",
      "type": "function"
    },
    {
      "inputs": [
        {
          "internalType": "bytes32",
          "name": "",
          "type": "bytes32"
        }
      ],
      "name": "mints",
      "outputs": [
        {
          "internalType": "bytes32",
          "name": "note_kind",
          "type": "bytes32"
        },
        {
          "internalType": "uint256",
          "name": "amount",
          "type": "uint256"
        },
        {
          "internalType": "bool",
          "name": "spent",
          "type": "bool"
        }
      ],
      "stateMutability": "view",
      "type": "function"
    },
    {
      "inputs": [
        {
          "internalType": "bytes32",
          "name": "noteKind",
          "type": "bytes32"
        }
      ],
      "name": "noteKindTokenAddress",
      "outputs": [
        {
          "internalType": "address",
          "name": "",
          "type": "address"
        }
      ],
      "stateMutability": "view",
      "type": "function"
    },
    {
      "inputs": [],
      "name": "owner",
      "outputs": [
        {
          "internalType": "address",
          "name": "",
          "type": "address"
        }
      ],
      "stateMutability": "view",
      "type": "function"
    },
    {
      "inputs": [
        {
          "internalType": "address",
          "name": "burnSubstitutor",
          "type": "address"
        }
      ],
      "name": "removeBurnSubstitutor",
      "outputs": [],
      "stateMutability": "nonpayable",
      "type": "function"
    },
    {
      "inputs": [
        {
          "internalType": "address",
          "name": "prover",
          "type": "address"
        }
      ],
      "name": "removeProver",
      "outputs": [],
      "stateMutability": "nonpayable",
      "type": "function"
    },
    {
      "inputs": [
        {
          "internalType": "bytes32",
          "name": "verificationKeyHash",
          "type": "bytes32"
        }
      ],
      "name": "removeZkVerifier",
      "outputs": [],
      "stateMutability": "nonpayable",
      "type": "function"
    },
    {
      "inputs": [],
      "name": "renounceOwnership",
      "outputs": [],
      "stateMutability": "nonpayable",
      "type": "function"
    },
    {
      "inputs": [],
      "name": "rootHash",
      "outputs": [
        {
          "internalType": "bytes32",
          "name": "",
          "type": "bytes32"
        }
      ],
      "stateMutability": "view",
      "type": "function"
    },
    {
      "inputs": [
        {
          "internalType": "address",
          "name": "newEscrowManagerAddress",
          "type": "address"
        }
      ],
      "name": "setEscrowManager",
      "outputs": [],
      "stateMutability": "nonpayable",
      "type": "function"
    },
    {
      "inputs": [
        {
          "internalType": "bytes32",
          "name": "newRoot",
          "type": "bytes32"
        }
      ],
      "name": "setRoot",
      "outputs": [],
      "stateMutability": "nonpayable",
      "type": "function"
    },
    {
      "inputs": [
        {
          "internalType": "uint256",
          "name": "validFrom",
          "type": "uint256"
        },
        {
          "internalType": "address[]",
          "name": "validators",
          "type": "address[]"
        }
      ],
      "name": "setValidators",
      "outputs": [],
      "stateMutability": "nonpayable",
      "type": "function"
    },
    {
      "inputs": [
        {
          "internalType": "address",
          "name": "burnAddress",
          "type": "address"
        },
        {
          "internalType": "bytes32",
          "name": "note_kind",
          "type": "bytes32"
        },
        {
          "internalType": "bytes32",
          "name": "hash",
          "type": "bytes32"
        },
        {
          "internalType": "uint256",
          "name": "amount",
          "type": "uint256"
        },
        {
          "internalType": "uint256",
          "name": "burnBlockHeight",
          "type": "uint256"
        }
      ],
      "name": "substituteBurn",
      "outputs": [],
      "stateMutability": "nonpayable",
      "type": "function"
    },
    {
      "inputs": [
        {
          "internalType": "bytes32",
          "name": "",
          "type": "bytes32"
        }
      ],
      "name": "substitutedBurns",
      "outputs": [
        {
          "internalType": "address",
          "name": "",
          "type": "address"
        }
      ],
      "stateMutability": "view",
      "type": "function"
    },
    {
      "inputs": [],
      "name": "token",
      "outputs": [
        {
          "internalType": "contract IERC20",
          "name": "",
          "type": "address"
        }
      ],
      "stateMutability": "view",
      "type": "function"
    },
    {
      "inputs": [
        {
          "internalType": "address",
          "name": "newOwner",
          "type": "address"
        }
      ],
      "name": "transferOwnership",
      "outputs": [],
      "stateMutability": "nonpayable",
      "type": "function"
    },
    {
      "inputs": [
        {
          "internalType": "uint256",
          "name": "height",
          "type": "uint256"
        },
        {
          "internalType": "bytes32",
          "name": "verificationKeyHash",
          "type": "bytes32"
        },
        {
          "internalType": "bytes",
          "name": "aggrProof",
          "type": "bytes"
        },
        {
          "internalType": "bytes32[]",
          "name": "publicInputs",
          "type": "bytes32[]"
        },
        {
          "internalType": "bytes32",
          "name": "otherHashFromBlockHash",
          "type": "bytes32"
        },
        {
          "components": [
            {
              "internalType": "bytes32",
              "name": "r",
              "type": "bytes32"
            },
            {
              "internalType": "bytes32",
              "name": "s",
              "type": "bytes32"
            },
            {
              "internalType": "uint256",
              "name": "v",
              "type": "uint256"
            }
          ],
          "internalType": "struct Signature[]",
          "name": "signatures",
          "type": "tuple[]"
        }
      ],
      "name": "verifyRollup",
      "outputs": [],
      "stateMutability": "nonpayable",
      "type": "function"
    },
    {
      "inputs": [],
      "name": "version",
      "outputs": [
        {
          "internalType": "uint8",
          "name": "",
          "type": "uint8"
        }
      ],
      "stateMutability": "view",
      "type": "function"
    },
    {
      "inputs": [
        {
          "internalType": "address",
          "name": "burn_address",
          "type": "address"
        },
        {
          "internalType": "bytes32",
          "name": "note_kind",
          "type": "bytes32"
        },
        {
          "internalType": "bytes32",
          "name": "hash",
          "type": "bytes32"
        },
        {
          "internalType": "uint256",
          "name": "amount",
          "type": "uint256"
        },
        {
          "internalType": "uint256",
          "name": "burnBlockHeight",
          "type": "uint256"
        }
      ],
      "name": "wasBurnSubstituted",
      "outputs": [
        {
          "internalType": "bool",
          "name": "",
          "type": "bool"
        }
      ],
      "stateMutability": "view",
      "type": "function"
    },
    {
      "inputs": [],
      "name": "wrappedCBTC",
      "outputs": [
        {
          "internalType": "address",
          "name": "",
          "type": "address"
        }
      ],
      "stateMutability": "view",
      "type": "function"
    },
    {
      "inputs": [
        {
          "internalType": "uint256",
          "name": "",
          "type": "uint256"
        }
      ],
      "name": "zkVerifierKeys",
      "outputs": [
        {
          "internalType": "bytes32",
          "name": "",
          "type": "bytes32"
        }
      ],
      "stateMutability": "view",
      "type": "function"
    },
    {
      "inputs": [
        {
          "internalType": "bytes32",
          "name": "",
          "type": "bytes32"
        }
      ],
      "name": "zkVerifiers",
      "outputs": [
        {
          "internalType": "contract IVerifier",
          "name": "verifier",
          "type": "address"
        },
        {
          "internalType": "uint32",
          "name": "messages_length",
          "type": "uint32"
        },
        {
          "internalType": "bool",
          "name": "enabled",
          "type": "bool"
        }
      ],
      "stateMutability": "view",
      "type": "function"
    }
  ],
  "bytecode": "0x6080806040523460aa575f516020612e6f5f395f51905f525460ff8160401c16609b576002600160401b03196001600160401b038216016049575b604051612dc090816100af8239f35b6001600160401b0319166001600160401b039081175f516020612e6f5f395f51905f525581527fc7f505b2f371ae2175ee4913f4499e1f2633a7b5936321eed1cdaeb6115181d290602090a15f80603a565b63f92ee8a960e01b5f5260045ffd5b5f80fdfe60806040526004361015610011575f80fd5b5f5f3560e01c80630d647a9a146122db578063166fc789146122b35780631d49e457146122525780631d80009a14611b2257806326e31a94146120f65780632a2bc73a146120c45780633644e5151461201d57806339b7933d14611fe357806347a8d0dd14611f275780634eeb381e14611e0a57806354fd4d5014611deb57806356dc63cb14611da55780635d5fa0d114611d425780636b2bd2ec14611d0a578063715018a614611ca35780638da5cb5b14611c6f5780639776aacf14611bbe578063a2ce9c1f14611b3f578063a91eebf514611b22578063ab1c2901146118ee578063b2142b50146118ad578063b571d3dd146117f5578063b72e88cb146117b1578063b7c8b78a1461170f578063b8cdbd2714611019578063b93bb2a814610b47578063bb254e7a14610b25578063c12255c414610afc578063c1b1535914610ac9578063c34975bb14610a79578063d82cbdd9146108b3578063dab5f34014610868578063e795594d146104da578063ef0feff9146102f9578063f2fde38b146102cc578063f44ff712146102ae578063f9038cf3146101e75763fc0c546a146101bc575f80fd5b346101e457806003193601126101e4576003546040516001600160a01b039091168152602090f35b80fd5b50346101e4576102246102326101fc36612397565b6040949293919451928391866020840196876040919493926060820195825260208201520152565b03601f19810183528261242f565b519020906001810180911161029a57606092506040516020810191825282604082015260408152610263848261242f565b51902061026e612450565b6040516102848161022485602083019586612475565b5190209060405192835260208301526040820152f35b634e487b7160e01b83526011600452602483fd5b50346101e457806003193601126101e4576020600454604051908152f35b50346101e45760203660031901126101e4576102f66102e9612339565b6102f1612684565b612613565b80f35b50346101e45760203660031901126101e457600a5460043561031b81836124f2565b91610325836125cc565b92610333604051948561242f565b808452610342601f19916125cc565b01845b8181106104b6575050815b81811061040a578385604051918291602083016020845282518091526040840191602060408360051b870101940192815b83831061038e5786860387f35b919395509193603f19878203018352855190604081019180519260408352835180915260206060840194019085905b8082106103e85750505060019260209283808094015191015297019301930190928695949293610381565b82516001600160a01b03168652602095860195909201916001909101906103bd565b6001610415826125e3565b50016002610422836125e3565b5001546040519161043283612414565b6040519081602082549182815201918a5260208a20908a905b80821061049457505050918161046a600196959361048d95038261242f565b8252602082015261047b86846124f2565b9061048682896125ff565b52866125ff565b5001610350565b82546001600160a01b031684526020909301926001928301929091019061044b565b6020906040516104c581612414565b60608152878382015282828801015201610345565b50346101e45760403660031901126101e4576004356024356001600160401b0381116108645761050e9036906004016123c9565b610519929192612684565b600a549283158015610843575b156107c4578215801561079a575b1561072f57600160401b84101561071b576001840180600a55610556856125e3565b505084116107075782600261056a866125e3565b5001556001610578856125e3565b50016001600160401b0383116106f357600160401b83116106f35780548382558084106106cd575b5085526020852081865b8481106106b257505050845b8281106105f157857ffd204c7043da2bcc4dc261ed00edac3bb5e2b8c5c60c7535c4d17144759fc7326040878782519182526020820152a180f35b6105fa856125e3565b5061060e61060983868661255b565b61278f565b60018060a01b03165f5260205260ff60405f20541661066257600190610633866125e3565b5061064261060983878761255b565b838060a01b03165f5260205260405f208260ff19825416179055016105b6565b60405162461bcd60e51b815260206004820152602260248201527f526f6c6c757056313a2056616c696461746f7220616c72656164792065786973604482015261747360f01b6064820152608490fd5b60019060206106c08461278f565b93019281850155016105aa565b818752836020882091820191015b8181106106e857506105a0565b8781556001016106db565b634e487b7160e01b86526041600452602486fd5b634e487b7160e01b85526011600452602485fd5b634e487b7160e01b85526041600452602485fd5b60405162461bcd60e51b815260206004820152603d60248201527f526f6c6c757056313a2076616c696446726f6d2063616e6e6f74206265206d6f60448201527f7265207468616e203330206461797320696e20746865206675747572650000006064820152608490fd5b5062278d0043018043116107b057831115610534565b634e487b7160e01b86526011600452602486fd5b60405162461bcd60e51b815260206004820152604b60248201527f526f6c6c757056313a204e65772076616c696461746f7220736574206d75737460448201527f206861766520612076616c696446726f6d2067726561746572207468616e207460648201526a1a19481b185cdd081cd95d60aa1b608482015260a490fd5b505f1984018481116107b057600261085b85926125e3565b50015410610526565b8280fd5b50346101e45760203660031901126101e457600435610885612684565b600554816005557f2c5e454ab10a3bb8f13831cd35da5f0dbef2c5ac1c80c171157ab07519e097488380a380f35b50346101e45760603660031901126101e4576004356108d061234f565b906044359063ffffffff8216808303610a75576108eb612684565b6001600160a01b038416938415610a22573b156109cd577fdb2a4be964bb3f5ba0504bccdbceaa478be8d73af2238cd9be0ba0c8efc107ca93606093838752600160205260ff604088205460c01c16156109bf575b838752600160208181526040808a2080546001600160a01b0319166001600160a01b038716179055868a52828252808a20805463ffffffff60a01b191660a09590951b63ffffffff60a01b1694909417909355858952908152818820805460ff60c01b1916600160c01b1790558151948552840191909152820152a180f35b6109c884612583565b610940565b60405162461bcd60e51b815260206004820152602760248201527f526f6c6c757056313a205a4b207665726966696572206973206e6f74206120636044820152661bdb9d1c9858dd60ca1b6064820152608490fd5b60405162461bcd60e51b815260206004820152602560248201527f526f6c6c757056313a20496e76616c6964207a6b207665726966696572206164604482015264647265737360d81b6064820152608490fd5b8480fd5b50346101e45760203660031901126101e457604060609160043581526001602052205460ff6040519160018060a01b038116835263ffffffff8160a01c16602084015260c01c1615156040820152f35b50346101e45760203660031901126101e457602090600435815260078252604060018060a01b0391205416604051908152f35b50346101e457806003193601126101e457600d546040516001600160a01b039091168152602090f35b50346101e4576020610b3f610b3936612397565b916127a3565b604051908152f35b346110155760e036600319011261101557610b60612339565b610b6861234f565b6044356001600160a01b03811690819003611015576064356001600160a01b0381169290839003611015576084356001600160a01b038116908190036110155760a4356001600160401b03811161101557610bc79036906004016123c9565b909160c4355f516020612d6b5f395f51905f52549060ff8260401c1615976001600160401b0383168015908161100d575b6001149081611003575b159081610ffa575b50610feb5767ffffffffffffffff1983166001175f516020612d6b5f395f51905f5255610cb59289610fbf575b50600160ff195f5416175f55610c4b612b70565b610c53612b70565b610c5c8a612613565b600380546001600160a01b031916891790555f828152600160205260409020805460ff60c01b196001600160c01b03199091166001600160a01b0390931692909217600f60a11b1791909116600160c01b179055612583565b5f526009602052600160405f2055600a549182158015610fa2575b156107c457600160401b831015610f7a576001830180600a55610cf2846125e3565b50508311610f8e575f6002610d06856125e3565b5001556001610d14846125e3565b50016001600160401b038311610f7a57600160401b8311610f7a578054838255808410610f54575b5081905f5260205f20905f5b848110610f39575050505f5b828110610ecd5750505060407ffd204c7043da2bcc4dc261ed00edac3bb5e2b8c5c60c7535c4d17144759fc7329181519081525f6020820152a1600554937f0577b5b4aa3eaba75b2a919d5d7c63b7258aa507d38e346bf2ff1d48790379ff6005557f0577b5b4aa3eaba75b2a919d5d7c63b7258aa507d38e346bf2ff1d48790379ff604051957f2c5e454ab10a3bb8f13831cd35da5f0dbef2c5ac1c80c171157ab07519e097485f80a37f154dc6546aae50b4d3772d636c3f1949122dcebaeda2ba647059f85ff99f1cc880546001600160a01b031990811685179091556001600160a01b039182165f908152600c60205260409020805460ff19166001179055600d8054821693909216929092179055600e80549091169091179055610e7857005b60207fc7f505b2f371ae2175ee4913f4499e1f2633a7b5936321eed1cdaeb6115181d29168ff0000000000000000195f516020612d6b5f395f51905f5254165f516020612d6b5f395f51905f525560018152a1005b610ed6846125e3565b50610ee561060983868661255b565b60018060a01b03165f5260205260ff60405f20541661066257600190610f0a856125e3565b50610f1961060983878761255b565b838060a01b03165f5260205260405f208260ff1982541617905501610d54565b6001906020610f478461278f565b9301928185015501610d48565b815f528360205f2091820191015b818110610f6f5750610d3c565b5f8155600101610f62565b634e487b7160e01b5f52604160045260245ffd5b634e487b7160e01b5f52601160045260245ffd5b505f198301838111610f8e57610fb7906125e3565b50505f610cd0565b68ffffffffffffffffff191668010000000000000001175f516020612d6b5f395f51905f52558a610c37565b63f92ee8a960e01b5f5260045ffd5b9050158b610c0a565b303b159150610c02565b8a9150610bf8565b5f80fd5b346110155760c0366003190112611015576024356004356044356001600160401b0381116110155736602382011215611015578060040135926001600160401b038411611015573660248584010111611015576064356001600160401b0381116110155761108b9036906004016123c9565b909360a435906001600160401b0382116110155736602383011215611015578160040135946001600160401b03861161101557366024606088028501011161101557335f526009602052600160405f2054036116d357845f52600160205260ff60405f205460c01c161561168457845f526001602052600363ffffffff60405f205460a01c160163ffffffff8111610f8e5763ffffffff16840361163157831561161d57836001101561161d57602087013590846002101561161d576005548835036115c857600b5460018101809111610f8e575b600a548110156115bb57836002611176836125e3565b5001541161118b5780600191600b5501611160565b50909192939495965b61119f600b546125e3565b509588156115765760018701548060011b9080820460021490151715610f8e576003900460018101809111610f8e57891061150b576111e160843586866127a3565b995f98895b8b8b10156112f25761121e906112158e60608e028c0160448101359160ff606460248401359301351690612c54565b90939193612cd6565b60018060a01b0382165f528a602052600160ff60405f2054161515036112a1576001600160a01b03908116908216111561125d576001909a01996111e6565b606460405162461bcd60e51b815260206004820152602060248201527f526f6c6c757056313a205369676e65727320617265206e6f7420736f727465646044820152fd5b60405162461bcd60e51b815260206004820152602360248201527f526f6c6c757056313a205369676e6572206973206e6f7420612076616c6964616044820152623a37b960e91b6064820152608490fd5b50805f52600160205263ffffffff60405f205460a01c1660039060030180600311610f8e57905b8885878484106114fd5750505050505f52600160205260018060a01b0360405f2054169080602460405196633a94343960e21b8852604060048901528260448901520160648701375f60648287010152601f801991011684019160031960648685030101602486015280606484015260018060fb1b03811161101557602085606482968296839560051b8092608483013701010301915afa9081156114f2575f916114c3575b501561146f57806005556004548211156114045760207f401f796450733fd22827ddc018ca37051459a8035c4026f533c294797bb8a49e9183600455604051908152a2005b60405162461bcd60e51b815260206004820152603760248201527f526f6c6c757056313a204e657720626c6f636b20686569676874206d7573742060448201527f62652067726561746572207468616e2063757272656e740000000000000000006064820152608490fd5b60405162461bcd60e51b815260206004820152602660248201527f526f6c6c757056313a205a4b2070726f6f6620766572696669636174696f6e2060448201526519985a5b195960d21b6064820152608490fd5b6114e5915060203d6020116114eb575b6114dd818361242f565b81019061256b565b836113bf565b503d6114d3565b6040513d5f823e3d90fd5b6115069361286f565b611319565b60405162461bcd60e51b815260206004820152603f60248201527f526f6c6c757056313a204e6f7420656e6f756768207369676e6174757265732060448201527f66726f6d2076616c696461746f727320746f2076657269667920626c6f636b006064820152608490fd5b60405162461bcd60e51b815260206004820152601760248201527f526f6c6c757056313a204e6f207369676e6174757265730000000000000000006044820152606490fd5b5090919293949596611194565b60405162461bcd60e51b815260206004820152602760248201527f526f6c6c757056313a20526f6f74206861736820766572696669636174696f6e6044820152660819985a5b195960ca1b6064820152608490fd5b634e487b7160e01b5f52603260045260245ffd5b60405162461bcd60e51b815260206004820152602560248201527f526f6c6c757056313a20496e76616c6964207075626c6963496e70757473206c6044820152640cadccee8d60db1b6064820152608490fd5b60405162461bcd60e51b815260206004820152602160248201527f526f6c6c757056313a205a4b207665726966696572206e6f7420616c6c6f77656044820152601960fa1b6064820152608490fd5b60405162461bcd60e51b81526020600482015260146024820152732cb7ba9030b932903737ba103090383937bb32b960611b6044820152606490fd5b3461101557602036600319011261101557611728612339565b611730612684565b6001600160a01b0316801561175b576bffffffffffffffffffffffff60a01b600d541617600d555f80f35b60405162461bcd60e51b815260206004820152602860248201527f526f6c6c757056313a20496e76616c696420657363726f77206d616e61676572604482015267206164647265737360c01b6064820152608490fd5b34611015576020366003190112611015576117ca612339565b6117d2612684565b6001600160a01b03165f908152600c60205260409020805460ff19166001179055005b346110155760203660031901126110155761180e612339565b611816612684565b6001600160a01b03165f818152600960205260409020545f190161186857805f5260096020525f60408120557fd64d11086d859b73cf85a91ca06cbc484398acabe3d9a1b26d4366dff377d9855f80a2005b60405162461bcd60e51b815260206004820152601760248201527f41646472657373206973206e6f7420612070726f7665720000000000000000006044820152606490fd5b34611015576020366003190112611015576118c6612339565b6118ce612684565b6001600160a01b03165f908152600c60205260409020805460ff19169055005b34611015576118fc36612365565b9392335f52600c602052600160ff60405f205416151503611acc5761192485838387876126b7565b5f818152600760205260409020549095906001600160a01b0316611a7c576004541015611a26575f908152600860205260409020546001600160a01b031690611985906119728315156124ff565b61197e813033866126f8565b8483612b9b565b9160405191600183527f25bab1ec4b6635a8e0740834e52ce1aee362e9c38447738aa7b75b7e06275b0760408515968715602087015260018060a01b031694a4506119e9575f90815260076020526040902080546001600160a01b03191633179055005b60405162461bcd60e51b8152602060048201526015602482015274149bdb1b1d5c158c4e88109d5c9b8819985a5b1959605a1b6044820152606490fd5b60405162461bcd60e51b815260206004820152602860248201527f526f6c6c757056313a20426c6f636b2068656967687420616c7265616479207260448201526706f6c6c65642075760c41b6064820152608490fd5b60405162461bcd60e51b815260206004820152602260248201527f526f6c6c757056313a204275726e20616c726561647920737562737469747574604482015261195960f21b6064820152608490fd5b60405162461bcd60e51b815260206004820152602860248201527f526f6c6c757056313a20596f7520617265206e6f742061206275726e2073756260448201526739ba34ba3aba37b960c11b6064820152608490fd5b34611015575f366003190112611015576020600554604051908152f35b34611015576020366003190112611015575f60408051611b5e816123f9565b82815282602082015201526004355f526006602052606060405f20604051611b85816123f9565b815491828252604060ff600260018401549360208601948552015416920191151582526040519283525160208301525115156040820152f35b3461101557604036600319011261101557600435611bda61234f565b90611be3612684565b5f818152600860205260409020546001600160a01b0316611c2a575f90815260086020526040902080546001600160a01b0319166001600160a01b03909216919091179055005b60405162461bcd60e51b815260206004820152601e60248201527f526f6c6c757056313a20546f6b656e20616c72656164792065786973747300006044820152606490fd5b34611015575f366003190112611015575f516020612d4b5f395f51905f52546040516001600160a01b039091168152602090f35b34611015575f36600319011261101557611cbb612684565b5f516020612d4b5f395f51905f5280546001600160a01b031981169091555f906001600160a01b03167f8be0079c531659141344cd1fd0a4f28419497f9722a3daafe3b4186f6b6457e08280a3005b346110155760203660031901126110155760043560025481101561101557611d336020916123b1565b90549060031b1c604051908152f35b34611015576020366003190112611015576040600435805f526001602052611d7260ff835f205460c01c1661249a565b5f90815260016020908152908290205482516001600160a01b038216815260a09190911c63ffffffff1691810191909152f35b34611015576020366003190112611015576004355f526006602052606060405f2080549060ff600260018301549201541690604051928352602083015215156040820152f35b34611015575f36600319011261101557602060ff5f5416604051908152f35b3461101557606036600319011261101557600435602435604435825f526006602052600160405f200154611ee2577fc4adcac6a89d730f3a6da5d846bba3d858a8fc5884e0f80940a3a3b96a4ae6f191816040925f526008602052611e898260018060a01b03855f205416611e808115156124ff565b309033906126f8565b611ed58351611e97816123f9565b828152600260208201858152868301905f8252895f526006602052875f209351845551600184015551151591019060ff801983541691151516179055565b82519182526020820152a2005b60405162461bcd60e51b815260206004820152601d60248201527f526f6c6c757056313a204d696e7420616c7265616479206578697374730000006044820152606490fd5b3461101557611f3536612397565b600d546001600160a01b03163303611f9e57825f526006602052600160405f200154611ee2577fc4adcac6a89d730f3a6da5d846bba3d858a8fc5884e0f80940a3a3b96a4ae6f191816040925f526008602052611e8960018060a01b03845f20541615156124ff565b60405162461bcd60e51b815260206004820152601d60248201527f526f6c6c757056313a204f6e6c7920657363726f77206d616e616765720000006044820152606490fd5b3461101557611ffd611ff436612365565b939092916126b7565b5f526007602052602060018060a01b0360405f2054161515604051908152f35b34611015575f36600319011261101557602060406006828251612040848261242f565b82815201650526f6c6c75760d41b8152206001838351612060858261242f565b82815201603160f81b815220825190848201927f8b73c3c69bb8fe3d512ecc4cf759cc79239f7b179b0ffacaa9a75d522b39400f84528483015260608201524660808201523060a082015260a081526120ba60c08261242f565b5190209051908152f35b34611015576020366003190112611015576004355f526008602052602060018060a01b0360405f205416604051908152f35b3461101557602036600319011261101557600435612112612684565b805f52600160205261212d60ff60405f205460c01c1661249a565b5f8181526001602052604081208054908290556002546001600160a01b0390911692915b81811061218b575b7fa67e94ae6f2b34c76ff45db881989225caa876cbe2d8215c01650a104557573d6040848682519182526020820152a1005b82612195826123b1565b90549060031b1c146121a957600101612151565b905f198101908111610f8e576121d16121c46121e7926123b1565b90549060031b1c926123b1565b819391549060031b91821b915f19901b19161790565b905560025490811561223e577fa67e94ae6f2b34c76ff45db881989225caa876cbe2d8215c01650a104557573d926040925f1901612224816123b1565b8154905f199060031b1b1916905560025592819250612159565b634e487b7160e01b5f52603160045260245ffd5b346110155760203660031901126110155761226b612339565b612273612684565b6001600160a01b03165f818152600960205260408120600190557fef1fa0a4d797341645c201a742cf59be633da0589e0e3cda511cfc90cd0396849080a2005b34611015575f36600319011261101557600e546040516001600160a01b039091168152602090f35b34611015576020366003190112611015576122f4612450565b6040805161230e8161022460208201956004359087612475565b8151928391602083525180918160208501528484015e5f828201840152601f01601f19168101030190f35b600435906001600160a01b038216820361101557565b602435906001600160a01b038216820361101557565b60a0906003190112611015576004356001600160a01b0381168103611015579060243590604435906064359060843590565b606090600319011261101557600435906024359060443590565b60025481101561161d5760025f5260205f2001905f90565b9181601f84011215611015578235916001600160401b038311611015576020808501948460051b01011161101557565b606081019081106001600160401b03821117610f7a57604052565b604081019081106001600160401b03821117610f7a57604052565b90601f801991011681019081106001600160401b03821117610f7a57604052565b6040519061245f60408361242f565b60078252664369706865726160c81b6020830152565b600760c01b81528151602893929091908290602001600883015e019060088201520190565b156124a157565b60405162461bcd60e51b8152602060048201526024808201527f526f6c6c757056313a205a4b20766572696669657220646f6573206e6f7420656044820152631e1a5cdd60e21b6064820152608490fd5b91908203918211610f8e57565b1561250657565b60405162461bcd60e51b815260206004820152602760248201527f526f6c6c757056313a20546f6b656e206e6f7420666f756e6420666f72206e6f6044820152661d19481ada5b9960ca1b6064820152608490fd5b919081101561161d5760051b0190565b90816020910312611015575180151581036110155790565b600254600160401b811015610f7a576001810160025560025481101561161d5760025f527f405787fa12a823e0f2b7631cc41b3ba8828b3321ca811111fa75cd3aa3bb5ace0155565b6001600160401b038111610f7a5760051b60200190565b600a5481101561161d57600a5f52600360205f20910201905f90565b805182101561161d5760209160051b010190565b6001600160a01b03168015612671575f516020612d4b5f395f51905f5280546001600160a01b0319811683179091556001600160a01b03167f8be0079c531659141344cd1fd0a4f28419497f9722a3daafe3b4186f6b6457e05f80a3565b631e4fbdf760e01b5f525f60045260245ffd5b5f516020612d4b5f395f51905f52546001600160a01b031633036126a457565b63118cdaa760e01b5f523360045260245ffd5b9391929092604051936020850195865260018060a01b031660408501526060840152608083015260a082015260a081526126f260c08261242f565b51902090565b6040516323b872dd60e01b60208083019182526001600160a01b039485166024840152949093166044820152606480820195909552938452925f919061273f60848261242f565b519082855af1156114f2575f513d61278657506001600160a01b0381163b155b6127665750565b635274afe760e01b5f9081526001600160a01b0391909116600452602490fd5b6001141561275f565b356001600160a01b03811681036110155790565b6040805160208101928352908101839052606081019390935290916127cb8160808101610224565b51902060018201809211610f8e5760405190602082019283526040820152604081526127f860608261242f565b5190206102246126f2612809612450565b92604051928391602083019586612475565b919092612829908484612b9b565b604080515f8152821515602082015291946001600160a01b039081169416917f25bab1ec4b6635a8e0740834e52ce1aee362e9c38447738aa7b75b7e06275b079190a490565b9291909161287e84838561255b565b3580612896575050505060018101809111610f8e5790565b60028103612a4c57505060018301808411610f8e576128b690828461255b565b359160028401808511610f8e576128ce90838361255b565b35916003850190818611610f8e576128e59261255b565b3591825f52600660205281600160405f20015403612a0757825f5260066020528060405f2054036129c357825f52600660205260ff600260405f2001541661297e577f948ecd827e77afeeebdc95f4d34a294c53d7e28501dcd56c8d89e88e61b53a5091604091845f5260066020526002835f2001600160ff1982541617905582519182526020820152a260048101809111610f8e5790565b60405162461bcd60e51b815260206004820152601c60248201527f526f6c6c757056313a204d696e7420616c7265616479207370656e74000000006044820152606490fd5b606460405162461bcd60e51b815260206004820152602060248201527f526f6c6c757056313a204d696e74206e6f7465206b696e6420696e76616c69646044820152fd5b60405162461bcd60e51b815260206004820152601c60248201527f526f6c6c757056313a204d696e742076616c756520696e76616c6964000000006044820152606490fd5b909290600303612b2b5760018401808511610f8e57612a6c90838361255b565b359260028501808611610f8e57612a8490848461255b565b359260038601808711610f8e57612a9c90828561255b565b35926004870191828811610f8e57612ae2926001600160a01b0392612ac1929061255b565b351691855f5260086020528460018060a01b0360405f2054169684866126b7565b5f908152600760205260409020546001600160a01b0316908115612b1a5750612b0a9361281b565b505b60058101809111610f8e5790565b9050612b259361281b565b50612b0c565b60405162461bcd60e51b815260206004820152601e60248201527f526f6c6c757056313a20496e76616c6964206d657373616765206b696e6400006044820152606490fd5b60ff5f516020612d6b5f395f51905f525460401c1615612b8c57565b631afcd79f60e31b5f5260045ffd5b5f929183809360405190602082019363a9059cbb60e01b855260018060a01b03166024830152604482015260448152612bd560648261242f565b51925af13d15612c4c573d906001600160401b038211610f7a5760405191612c07601f8201601f19166020018461242f565b82523d5f602084013e5b15612c475780519081612c26575b5050600190565b602080612c3793830101910161256b565b15612c43575f80612c1f565b5f90565b505f90565b606090612c11565b91907f7fffffffffffffffffffffffffffffff5d576e7357a4501ddfe92f46681b20a08411612ccb579160209360809260ff5f9560405194855216868401526040830152606082015282805260015afa156114f2575f516001600160a01b03811615612cc157905f905f90565b505f906001905f90565b5050505f9160039190565b6004811015612d365780612ce8575050565b60018103612cff5763f645eedf60e01b5f5260045ffd5b60028103612d1a575063fce698f760e01b5f5260045260245ffd5b600314612d245750565b6335e2f38360e21b5f5260045260245ffd5b634e487b7160e01b5f52602160045260245ffdfe9016d09d72d40fdae2fd8ceac6b6234c7706214fd39c1cd1e609a0528c199300f0c57e16840df040f15088dc2f81fe391c3923bec73e23a9662efc9c229c6a00a2646970667358221220da8f80d4612cd3a70c68ea8c602a838ac6bfbd766a39fe5c47836459fdabef5064736f6c634300081c0033f0c57e16840df040f15088dc2f81fe391c3923bec73e23a9662efc9c229c6a00",
  "linkReferences": {},
  "deployedLinkReferences": {},
  "immutableReferences": {},
  "inputSourceName": "project/contracts/rollup/RollupV1.sol",
  "buildInfoId": "solc-0_8_28-7f15385d9c3b52f4bb5bd345f4075c74be3fb886"
}