{
  "_format": "hh3-artifact-1",
  "contractName": "RollupV1",
  "sourceName": "contracts/rollup/RollupV1.sol",
  "abi": [
    {
      "inputs": [],
      "stateMutability": "nonpayable",
      "type": "constructor"
    },
    {
      "inputs": [],
      "name": "ECDSAInvalidSignature",
      "type": "error"
    },
    {
      "inputs": [
        {
          "internalType": "uint256",
          "name": "length",
          "type": "uint256"
        }
      ],
      "name": "ECDSAInvalidSignatureLength",
      "type": "error"
    },
    {
      "inputs": [
        {
          "internalType": "bytes32",
          "name": "s",
          "type": "bytes32"
        }
      ],
      "name": "ECDSAInvalidSignatureS",
      "type": "error"
    },
    {
      "inputs": [],
      "name": "InvalidInitialization",
      "type": "error"
    },
    {
      "inputs": [],
      "name": "NotInitializing",
      "type": "error"
    },
    {
      "inputs": [
        {
          "internalType": "address",
          "name": "owner",
          "type": "address"
        }
      ],
      "name": "OwnableInvalidOwner",
      "type": "error"
    },
    {
      "inputs": [
        {
          "internalType": "address",
          "name": "account",
          "type": "address"
        }
      ],
      "name": "OwnableUnauthorizedAccount",
      "type": "error"
    },
    {
      "inputs": [
        {
          "internalType": "address",
          "name": "token",
          "type": "address"
        }
      ],
      "name": "SafeERC20FailedOperation",
      "type": "error"
    },
    {
      "anonymous": false,
      "inputs": [
        {
          "indexed": true,
          "internalType": "address",
          "name": "token",
          "type": "address"
        },
        {
          "indexed": true,
          "internalType": "bytes32",
          "name": "burn_hash",
          "type": "bytes32"
        },
        {
          "indexed": true,
          "internalType": "address",
          "name": "recipient",
          "type": "address"
        },
        {
          "indexed": false,
          "internalType": "bool",
          "name": "substitute",
          "type": "bool"
        },
        {
          "indexed": false,
          "internalType": "bool",
          "name": "success",
          "type": "bool"
        }
      ],
      "name": "Burned",
      "type": "event"
    },
    {
      "anonymous": false,
      "inputs": [
        {
          "indexed": false,
          "internalType": "uint64",
          "name": "version",
          "type": "uint64"
        }
      ],
      "name": "Initialized",
      "type": "event"
    },
    {
      "anonymous": false,
      "inputs": [
        {
          "indexed": true,
          "internalType": "bytes32",
          "name": "mint_hash",
          "type": "bytes32"
        },
        {
          "indexed": false,
          "internalType": "uint256",
          "name": "value",
          "type": "uint256"
        },
        {
          "indexed": false,
          "internalType": "bytes32",
          "name": "note_kind",
          "type": "bytes32"
        }
      ],
      "name": "MintAdded",
      "type": "event"
    },
    {
      "anonymous": false,
      "inputs": [
        {
          "indexed": true,
          "internalType": "bytes32",
          "name": "hash",
          "type": "bytes32"
        },
        {
          "indexed": false,
          "internalType": "bytes32",
          "name": "value",
          "type": "bytes32"
        },
        {
          "indexed": false,
          "internalType": "bytes32",
          "name": "note_kind",
          "type": "bytes32"
        }
      ],
      "name": "Minted",
      "type": "event"
    },
    {
      "anonymous": false,
      "inputs": [
        {
          "indexed": true,
          "internalType": "address",
          "name": "previousOwner",
          "type": "address"
        },
        {
          "indexed": true,
          "internalType": "address",
          "name": "newOwner",
          "type": "address"
        }
      ],
      "name": "OwnershipTransferred",
      "type": "event"
    },
    {
      "anonymous": false,
      "inputs": [
        {
          "indexed": true,
          "internalType": "address",
          "name": "prover",
          "type": "address"
        }
      ],
      "name": "ProverAdded",
      "type": "event"
    },
    {
      "anonymous": false,
      "inputs": [
        {
          "indexed": true,
          "internalType": "address",
          "name": "prover",
          "type": "address"
        }
      ],
      "name": "ProverRemoved",
      "type": "event"
    },
    {
      "anonymous": false,
      "inputs": [
        {
          "indexed": true,
          "internalType": "uint256",
          "name": "height",
          "type": "uint256"
        },
        {
          "indexed": false,
          "internalType": "bytes32",
          "name": "root",
          "type": "bytes32"
        }
      ],
      "name": "RollupVerified",
      "type": "event"
    },
    {
      "anonymous": false,
      "inputs": [
        {
          "indexed": true,
          "internalType": "bytes32",
          "name": "oldRoot",
          "type": "bytes32"
        },
        {
          "indexed": true,
          "internalType": "bytes32",
          "name": "newRoot",
          "type": "bytes32"
        }
      ],
      "name": "RootHashUpdated",
      "type": "event"
    },
    {
      "anonymous": false,
      "inputs": [
        {
          "indexed": false,
          "internalType": "uint256",
          "name": "index",
          "type": "uint256"
        },
        {
          "indexed": false,
          "internalType": "uint256",
          "name": "validFrom",
          "type": "uint256"
        }
      ],
      "name": "ValidatorSetAdded",
      "type": "event"
    },
    {
      "anonymous": false,
      "inputs": [
        {
          "indexed": false,
          "internalType": "bytes32",
          "name": "verificationKey",
          "type": "bytes32"
        },
        {
          "indexed": false,
          "internalType": "address",
          "name": "zkVerifierAddress",
          "type": "address"
        },
        {
          "indexed": false,
          "internalType": "uint32",
          "name": "messages_length",
          "type": "uint32"
        }
      ],
      "name": "VerifierAdded",
      "type": "event"
    },
    {
      "anonymous": false,
      "inputs": [
        {
          "indexed": false,
          "internalType": "bytes32",
          "name": "verificationKey",
          "type": "bytes32"
        },
        {
          "indexed": false,
          "internalType": "address",
          "name": "zkVerifierAddress",
          "type": "address"
        }
      ],
      "name": "VerifierRemoved",
      "type": "event"
    },
    {
      "inputs": [],
      "name": "DOMAIN_SEPARATOR",
      "outputs": [
        {
          "internalType": "bytes32",
          "name": "",
          "type": "bytes32"
        }
      ],
      "stateMutability": "view",
      "type": "function"
    },
    {
      "inputs": [
        {
          "internalType": "address",
          "name": "burnSubstitutor",
          "type": "address"
        }
      ],
      "name": "addBurnSubstitutor",
      "outputs": [],
      "stateMutability": "nonpayable",
      "type": "function"
    },
    {
      "inputs": [
        {
          "internalType": "address",
          "name": "prover",
          "type": "address"
        }
      ],
      "name": "addProver",
      "outputs": [],
      "stateMutability": "nonpayable",
      "type": "function"
    },
    {
      "inputs": [
        {
          "internalType": "bytes32",
          "name": "noteKind",
          "type": "bytes32"
        },
        {
          "internalType": "address",
          "name": "tokenAddress",
          "type": "address"
        }
      ],
      "name": "addToken",
      "outputs": [],
      "stateMutability": "nonpayable",
      "type": "function"
    },
    {
      "inputs": [
        {
          "internalType": "bytes32",
          "name": "verificationKeyHash",
          "type": "bytes32"
        },
        {
          "internalType": "address",
          "name": "verifierAddress",
          "type": "address"
        },
        {
          "internalType": "uint32",
          "name": "messages_length",
          "type": "uint32"
        }
      ],
      "name": "addZkVerifier",
      "outputs": [],
      "stateMutability": "nonpayable",
      "type": "function"
    },
    {
      "inputs": [],
      "name": "blockHeight",
      "outputs": [
        {
          "internalType": "uint256",
          "name": "",
          "type": "uint256"
        }
      ],
      "stateMutability": "view",
      "type": "function"
    },
    {
      "inputs": [],
      "name": "currentRootHash",
      "outputs": [
        {
          "internalType": "bytes32",
          "name": "",
          "type": "bytes32"
        }
      ],
      "stateMutability": "view",
      "type": "function"
    },
    {
      "inputs": [
        {
          "internalType": "bytes32",
          "name": "newRoot",
          "type": "bytes32"
        },
        {
          "internalType": "uint256",
          "name": "height",
          "type": "uint256"
        },
        {
          "internalType": "bytes32",
          "name": "otherHashFromBlockHash",
          "type": "bytes32"
        }
      ],
      "name": "debugGetIntermediateHashes",
      "outputs": [
        {
          "internalType": "bytes32",
          "name": "proposalHash",
          "type": "bytes32"
        },
        {
          "internalType": "bytes32",
          "name": "acceptMsg",
          "type": "bytes32"
        },
        {
          "internalType": "bytes32",
          "name": "sigMsg",
          "type": "bytes32"
        }
      ],
      "stateMutability": "pure",
      "type": "function"
    },
    {
      "inputs": [
        {
          "internalType": "bytes32",
          "name": "acceptMsg",
          "type": "bytes32"
        }
      ],
      "name": "debugGetPackedBytes",
      "outputs": [
        {
          "internalType": "bytes",
          "name": "",
          "type": "bytes"
        }
      ],
      "stateMutability": "pure",
      "type": "function"
    },
    {
      "inputs": [
        {
          "internalType": "bytes32",
          "name": "newRoot",
          "type": "bytes32"
        },
        {
          "internalType": "uint256",
          "name": "height",
          "type": "uint256"
        },
        {
          "internalType": "bytes32",
          "name": "otherHashFromBlockHash",
          "type": "bytes32"
        }
      ],
      "name": "debugGetSignatureMessageHash",
      "outputs": [
        {
          "internalType": "bytes32",
          "name": "",
          "type": "bytes32"
        }
      ],
      "stateMutability": "pure",
      "type": "function"
    },
    {
      "inputs": [],
      "name": "escrowManager",
      "outputs": [
        {
          "internalType": "address",
          "name": "",
          "type": "address"
        }
      ],
      "stateMutability": "view",
      "type": "function"
    },
    {
      "inputs": [
        {
          "internalType": "bytes32",
          "name": "hash",
          "type": "bytes32"
        }
      ],
      "name": "getMint",
      "outputs": [
        {
          "components": [
            {
              "internalType": "bytes32",
              "name": "note_kind",
              "type": "bytes32"
            },
            {
              "internalType": "uint256",
              "name": "amount",
              "type": "uint256"
            },
            {
              "internalType": "bool",
              "name": "spent",
              "type": "bool"
            }
          ],
          "internalType": "struct Mint",
          "name": "",
          "type": "tuple"
        }
      ],
      "stateMutability": "view",
      "type": "function"
    },
    {
      "inputs": [
        {
          "internalType": "uint256",
          "name": "from",
          "type": "uint256"
        }
      ],
      "name": "getValidatorSets",
      "outputs": [
        {
          "components": [
            {
              "internalType": "address[]",
              "name": "validators",
              "type": "address[]"
            },
            {
              "internalType": "uint256",
              "name": "validFrom",
              "type": "uint256"
            }
          ],
          "internalType": "struct PublicValidatorSet[]",
          "name": "",
          "type": "tuple[]"
        }
      ],
      "stateMutability": "view",
      "type": "function"
    },
    {
      "inputs": [
        {
          "internalType": "bytes32",
          "name": "verificationKeyHash",
          "type": "bytes32"
        }
      ],
      "name": "getZkVerifier",
      "outputs": [
        {
          "internalType": "address",
          "name": "",
          "type": "address"
        },
        {
          "internalType": "uint32",
          "name": "",
          "type": "uint32"
        }
      ],
      "stateMutability": "view",
      "type": "function"
    },
    {
      "inputs": [
        {
          "internalType": "address",
          "name": "owner",
          "type": "address"
        },
        {
          "internalType": "address",
          "name": "_escrowManager",
          "type": "address"
        },
        {
          "internalType": "address",
          "name": "_tokenAddress",
          "type": "address"
        },
        {
          "internalType": "address",
          "name": "_verifierAddress",
          "type": "address"
        },
        {
          "internalType": "address",
          "name": "prover",
          "type": "address"
        },
        {
          "internalType": "address[]",
          "name": "initialValidators",
          "type": "address[]"
        },
        {
          "internalType": "bytes32",
          "name": "verifierKeyHash",
          "type": "bytes32"
        }
      ],
      "name": "initialize",
      "outputs": [],
      "stateMutability": "nonpayable",
      "type": "function"
    },
    {
      "inputs": [
        {
          "internalType": "bytes32",
          "name": "mint_hash",
          "type": "bytes32"
        },
        {
          "internalType": "bytes32",
          "name": "value",
          "type": "bytes32"
        },
        {
          "internalType": "bytes32",
          "name": "note_kind",
          "type": "bytes32"
        }
      ],
      "name": "mint",
      "outputs": [],
      "stateMutability": "nonpayable",
      "type": "function"
    },
    {
      "inputs": [
        {
          "internalType": "bytes32",
          "name": "mint_hash",
          "type": "bytes32"
        },
        {
          "internalType": "uint256",
          "name": "value",
          "type": "uint256"
        },
        {
          "internalType": "bytes32",
          "name": "note_kind",
          "type": "bytes32"
        }
      ],
      "name": "mintClaimed",
      "outputs": [],
      "stateMutability": "nonpayable",
      "type": "function"
    },
    {
      "inputs": [
        {
          "internalType": "bytes32",
          "name": "",
          "type": "bytes32"
        }
      ],
      "name": "mints",
      "outputs": [
        {
          "internalType": "bytes32",
          "name": "note_kind",
          "type": "bytes32"
        },
        {
          "internalType": "uint256",
          "name": "amount",
          "type": "uint256"
        },
        {
          "internalType": "bool",
          "name": "spent",
          "type": "bool"
        }
      ],
      "stateMutability": "view",
      "type": "function"
    },
    {
      "inputs": [
        {
          "internalType": "bytes32",
          "name": "noteKind",
          "type": "bytes32"
        }
      ],
      "name": "noteKindTokenAddress",
      "outputs": [
        {
          "internalType": "address",
          "name": "",
          "type": "address"
        }
      ],
      "stateMutability": "view",
      "type": "function"
    },
    {
      "inputs": [],
      "name": "owner",
      "outputs": [
        {
          "internalType": "address",
          "name": "",
          "type": "address"
        }
      ],
      "stateMutability": "view",
      "type": "function"
    },
    {
      "inputs": [],
      "name": "pendingMintsCount",
      "outputs": [
        {
          "internalType": "uint256",
          "name": "",
          "type": "uint256"
        }
      ],
      "stateMutability": "view",
      "type": "function"
    },
    {
      "inputs": [],
      "name": "pendingSubstitutedBurnsCount",
      "outputs": [
        {
          "internalType": "uint256",
          "name": "",
          "type": "uint256"
        }
      ],
      "stateMutability": "view",
      "type": "function"
    },
    {
      "inputs": [
        {
          "internalType": "address",
          "name": "burnSubstitutor",
          "type": "address"
        }
      ],
      "name": "removeBurnSubstitutor",
      "outputs": [],
      "stateMutability": "nonpayable",
      "type": "function"
    },
    {
      "inputs": [
        {
          "internalType": "address",
          "name": "prover",
          "type": "address"
        }
      ],
      "name": "removeProver",
      "outputs": [],
      "stateMutability": "nonpayable",
      "type": "function"
    },
    {
      "inputs": [
        {
          "internalType": "bytes32",
          "name": "verificationKeyHash",
          "type": "bytes32"
        }
      ],
      "name": "removeZkVerifier",
      "outputs": [],
      "stateMutability": "nonpayable",
      "type": "function"
    },
    {
      "inputs": [],
      "name": "renounceOwnership",
      "outputs": [],
      "stateMutability": "nonpayable",
      "type": "function"
    },
    {
      "inputs": [],
      "name": "rootHash",
      "outputs": [
        {
          "internalType": "bytes32",
          "name": "",
          "type": "bytes32"
        }
      ],
      "stateMutability": "view",
      "type": "function"
    },
    {
      "inputs": [
        {
          "internalType": "bytes32",
          "name": "newRoot",
          "type": "bytes32"
        },
        {
          "internalType": "uint256",
          "name": "height",
          "type": "uint256"
        },
        {
          "internalType": "bytes32",
          "name": "otherHash",
          "type": "bytes32"
        },
        {
          "components": [
            {
              "internalType": "bytes32",
              "name": "r",
              "type": "bytes32"
            },
            {
              "internalType": "bytes32",
              "name": "s",
              "type": "bytes32"
            },
            {
              "internalType": "uint256",
              "name": "v",
              "type": "uint256"
            }
          ],
          "internalType": "struct Signature[]",
          "name": "signatures",
          "type": "tuple[]"
        }
      ],
      "name": "setCheckpoint",
      "outputs": [],
      "stateMutability": "nonpayable",
      "type": "function"
    },
    {
      "inputs": [
        {
          "internalType": "address",
          "name": "newEscrowManagerAddress",
          "type": "address"
        }
      ],
      "name": "setEscrowManager",
      "outputs": [],
      "stateMutability": "nonpayable",
      "type": "function"
    },
    {
      "inputs": [
        {
          "internalType": "bytes32",
          "name": "newRoot",
          "type": "bytes32"
        }
      ],
      "name": "setRoot",
      "outputs": [],
      "stateMutability": "nonpayable",
      "type": "function"
    },
    {
      "inputs": [
        {
          "internalType": "uint256",
          "name": "validFrom",
          "type": "uint256"
        },
        {
          "internalType": "address[]",
          "name": "validators",
          "type": "address[]"
        }
      ],
      "name": "setValidators",
      "outputs": [],
      "stateMutability": "nonpayable",
      "type": "function"
    },
    {
      "inputs": [
        {
          "internalType": "address",
          "name": "burnAddress",
          "type": "address"
        },
        {
          "internalType": "bytes32",
          "name": "note_kind",
          "type": "bytes32"
        },
        {
          "internalType": "bytes32",
          "name": "hash",
          "type": "bytes32"
        },
        {
          "internalType": "uint256",
          "name": "amount",
          "type": "uint256"
        },
        {
          "internalType": "uint256",
          "name": "burnBlockHeight",
          "type": "uint256"
        }
      ],
      "name": "substituteBurn",
      "outputs": [],
      "stateMutability": "nonpayable",
      "type": "function"
    },
    {
      "inputs": [
        {
          "internalType": "bytes32",
          "name": "",
          "type": "bytes32"
        }
      ],
      "name": "substitutedBurns",
      "outputs": [
        {
          "internalType": "address",
          "name": "",
          "type": "address"
        }
      ],
      "stateMutability": "view",
      "type": "function"
    },
    {
      "inputs": [],
      "name": "token",
      "outputs": [
        {
          "internalType": "contract IERC20",
          "name": "",
          "type": "address"
        }
      ],
      "stateMutability": "view",
      "type": "function"
    },
    {
      "inputs": [
        {
          "internalType": "address",
          "name": "newOwner",
          "type": "address"
        }
      ],
      "name": "transferOwnership",
      "outputs": [],
      "stateMutability": "nonpayable",
      "type": "function"
    },
    {
      "inputs": [
        {
          "internalType": "uint256",
          "name": "height",
          "type": "uint256"
        },
        {
          "internalType": "bytes32",
          "name": "verificationKeyHash",
          "type": "bytes32"
        },
        {
          "internalType": "bytes",
          "name": "aggrProof",
          "type": "bytes"
        },
        {
          "internalType": "bytes32[]",
          "name": "publicInputs",
          "type": "bytes32[]"
        },
        {
          "internalType": "bytes32",
          "name": "otherHashFromBlockHash",
          "type": "bytes32"
        },
        {
          "components": [
            {
              "internalType": "bytes32",
              "name": "r",
              "type": "bytes32"
            },
            {
              "internalType": "bytes32",
              "name": "s",
              "type": "bytes32"
            },
            {
              "internalType": "uint256",
              "name": "v",
              "type": "uint256"
            }
          ],
          "internalType": "struct Signature[]",
          "name": "signatures",
          "type": "tuple[]"
        }
      ],
      "name": "verifyRollup",
      "outputs": [],
      "stateMutability": "nonpayable",
      "type": "function"
    },
    {
      "inputs": [],
      "name": "version",
      "outputs": [
        {
          "internalType": "uint8",
          "name": "",
          "type": "uint8"
        }
      ],
      "stateMutability": "view",
      "type": "function"
    },
    {
      "inputs": [
        {
          "internalType": "address",
          "name": "burn_address",
          "type": "address"
        },
        {
          "internalType": "bytes32",
          "name": "note_kind",
          "type": "bytes32"
        },
        {
          "internalType": "bytes32",
          "name": "hash",
          "type": "bytes32"
        },
        {
          "internalType": "uint256",
          "name": "amount",
          "type": "uint256"
        },
        {
          "internalType": "uint256",
          "name": "burnBlockHeight",
          "type": "uint256"
        }
      ],
      "name": "wasBurnSubstituted",
      "outputs": [
        {
          "internalType": "bool",
          "name": "",
          "type": "bool"
        }
      ],
      "stateMutability": "view",
      "type": "function"
    },
    {
      "inputs": [],
      "name": "wrappedCBTC",
      "outputs": [
        {
          "internalType": "address",
          "name": "",
          "type": "address"
        }
      ],
      "stateMutability": "view",
      "type": "function"
    },
    {
      "inputs": [
        {
          "internalType": "uint256",
          "name": "",
          "type": "uint256"
        }
      ],
      "name": "zkVerifierKeys",
      "outputs": [
        {
          "internalType": "bytes32",
          "name": "",
          "type": "bytes32"
        }
      ],
      "stateMutability": "view",
      "type": "function"
    },
    {
      "inputs": [
        {
          "internalType": "bytes32",
          "name": "",
          "type": "bytes32"
        }
      ],
      "name": "zkVerifiers",
      "outputs": [
        {
          "internalType": "contract IVerifier",
          "name": "verifier",
          "type": "address"
        },
        {
          "internalType": "uint32",
          "name": "messages_length",
          "type": "uint32"
        },
        {
          "internalType": "bool",
          "name": "enabled",
          "type": "bool"
        }
      ],
      "stateMutability": "view",
      "type": "function"
    }
  ],
  "bytecode": "0x6080806040523460aa575f51602061316a5f395f51905f525460ff8160401c16609b576002600160401b03196001600160401b038216016049575b6040516130bb90816100af8239f35b6001600160401b0319166001600160401b039081175f51602061316a5f395f51905f525581527fc7f505b2f371ae2175ee4913f4499e1f2633a7b5936321eed1cdaeb6115181d290602090a15f80603a565b63f92ee8a960e01b5f5260045ffd5b5f80fdfe60806040526004361015610011575f80fd5b5f5f3560e01c80630d647a9a146122af578063166fc789146122875780631d49e457146122265780631d80009a1461189757806326e31a94146120ca5780632a2bc73a146120985780633520f3eb1461207b5780633644e51514611fd457806339b7933d14611f9a57806347a8d0dd14611ede5780634d76c3b914611caa5780634eeb381e14611b7f57806354fd4d5014611b6057806356dc63cb14611b1a5780635d5fa0d114611ab75780636b2bd2ec14611a7f578063715018a614611a185780638da5cb5b146119e45780639776aacf14611933578063a2ce9c1f146118b4578063a91eebf514611897578063ab1c290114611654578063b2142b5014611613578063b571d3dd1461155b578063b72e88cb14611517578063b7c8b78a14611475578063b8cdbd2714611058578063b93bb2a814610b86578063bb254e7a14610b64578063c12255c414610b3b578063c1b1535914610b08578063c34975bb14610ab8578063d82cbdd9146108f2578063dab5f340146108a7578063e795594d14610519578063ef0feff914610338578063f2fde38b1461030b578063f41686c7146102ed578063f44ff712146102cf578063f9038cf3146102085763fc0c546a146101dd575f80fd5b346102055780600319360112610205576003546040516001600160a01b039091168152602090f35b80fd5b50346102055761024561025361021d3661236b565b6040949293919451928391866020840196876040919493926060820195825260208201520152565b03601f198101835282612448565b51902090600181018091116102bb576060925060405160208101918252826040820152604081526102848482612448565b51902061028f612469565b6040516102a5816102458560208301958661248e565b5190209060405192835260208301526040820152f35b634e487b7160e01b83526011600452602483fd5b50346102055780600319360112610205576020600454604051908152f35b50346102055780600319360112610205576020600f54604051908152f35b50346102055760203660031901126102055761033561032861230d565b6103306126fc565b61268b565b80f35b503461020557602036600319011261020557600a5460043561035a818361250b565b9161036483612644565b926103726040519485612448565b808452610381601f1991612644565b01845b8181106104f5575050815b818110610449578385604051918291602083016020845282518091526040840191602060408360051b870101940192815b8383106103cd5786860387f35b919395509193603f19878203018352855190604081019180519260408352835180915260206060840194019085905b80821061042757505050600192602092838080940151910152970193019301909286959492936103c0565b82516001600160a01b03168652602095860195909201916001909101906103fc565b60016104548261265b565b500160026104618361265b565b500154604051916104718361242d565b6040519081602082549182815201918a5260208a20908a905b8082106104d35750505091816104a960019695936104cc950382612448565b825260208201526104ba868461250b565b906104c58289612677565b5286612677565b500161038f565b82546001600160a01b031684526020909301926001928301929091019061048a565b6020906040516105048161242d565b60608152878382015282828801015201610384565b5034610205576040366003190112610205576004356024356001600160401b0381116108a35761054d9036906004016123e2565b6105589291926126fc565b600a549283158015610882575b1561080357821580156107d9575b1561076e57600160401b84101561075a576001840180600a556105958561265b565b50508411610746578260026105a98661265b565b50015560016105b78561265b565b50016001600160401b03831161073257600160401b831161073257805483825580841061070c575b5085526020852081865b8481106106f157505050845b82811061063057857ffd204c7043da2bcc4dc261ed00edac3bb5e2b8c5c60c7535c4d17144759fc7326040878782519182526020820152a180f35b6106398561265b565b5061064d6106488386866125f4565b612a62565b60018060a01b03165f5260205260ff60405f2054166106a1576001906106728661265b565b506106816106488387876125f4565b838060a01b03165f5260205260405f208260ff19825416179055016105f5565b60405162461bcd60e51b815260206004820152602260248201527f526f6c6c757056313a2056616c696461746f7220616c72656164792065786973604482015261747360f01b6064820152608490fd5b60019060206106ff84612a62565b93019281850155016105e9565b818752836020882091820191015b81811061072757506105df565b87815560010161071a565b634e487b7160e01b86526041600452602486fd5b634e487b7160e01b85526011600452602485fd5b634e487b7160e01b85526041600452602485fd5b60405162461bcd60e51b815260206004820152603d60248201527f526f6c6c757056313a2076616c696446726f6d2063616e6e6f74206265206d6f60448201527f7265207468616e203330206461797320696e20746865206675747572650000006064820152608490fd5b5062278d0043018043116107ef57831115610573565b634e487b7160e01b86526011600452602486fd5b60405162461bcd60e51b815260206004820152604b60248201527f526f6c6c757056313a204e65772076616c696461746f7220736574206d75737460448201527f206861766520612076616c696446726f6d2067726561746572207468616e207460648201526a1a19481b185cdd081cd95d60aa1b608482015260a490fd5b505f1984018481116107ef57600261089a859261265b565b50015410610565565b8280fd5b5034610205576020366003190112610205576108c16126fc565b600435600554816005557f2c5e454ab10a3bb8f13831cd35da5f0dbef2c5ac1c80c171157ab07519e097485f80a380f35b50346102055760603660031901126102055760043561090f612323565b906044359063ffffffff8216808303610ab45761092a6126fc565b6001600160a01b038416938415610a61573b15610a0c577fdb2a4be964bb3f5ba0504bccdbceaa478be8d73af2238cd9be0ba0c8efc107ca93606093838752600160205260ff604088205460c01c16156109fe575b838752600160208181526040808a2080546001600160a01b0319166001600160a01b038716179055868a52828252808a20805463ffffffff60a01b191660a09590951b63ffffffff60a01b1694909417909355858952908152818820805460ff60c01b1916600160c01b1790558151948552840191909152820152a180f35b610a078461261c565b61097f565b60405162461bcd60e51b815260206004820152602760248201527f526f6c6c757056313a205a4b207665726966696572206973206e6f74206120636044820152661bdb9d1c9858dd60ca1b6064820152608490fd5b60405162461bcd60e51b815260206004820152602560248201527f526f6c6c757056313a20496e76616c6964207a6b207665726966696572206164604482015264647265737360d81b6064820152608490fd5b8480fd5b503461020557602036600319011261020557604060609160043581526001602052205460ff6040519160018060a01b038116835263ffffffff8160a01c16602084015260c01c1615156040820152f35b503461020557602036600319011261020557602090600435815260078252604060018060a01b0391205416604051908152f35b5034610205578060031936011261020557600d546040516001600160a01b039091168152602090f35b5034610205576020610b7e610b783661236b565b91612a76565b604051908152f35b346110545760e036600319011261105457610b9f61230d565b610ba7612323565b6044356001600160a01b03811690819003611054576064356001600160a01b0381169290839003611054576084356001600160a01b038116908190036110545760a4356001600160401b03811161105457610c069036906004016123e2565b909160c4355f5160206130665f395f51905f52549060ff8260401c1615976001600160401b0383168015908161104c575b6001149081611042575b159081611039575b5061102a5767ffffffffffffffff1983166001175f5160206130665f395f51905f5255610cf49289610ffe575b50600160ff195f5416175f55610c8a612e5f565b610c92612e5f565b610c9b8a61268b565b600380546001600160a01b031916891790555f828152600160205260409020805460ff60c01b196001600160c01b03199091166001600160a01b0390931692909217600f60a11b1791909116600160c01b17905561261c565b5f526009602052600160405f2055600a549182158015610fe1575b1561080357600160401b831015610fb9576001830180600a55610d318461265b565b50508311610fcd575f6002610d458561265b565b5001556001610d538461265b565b50016001600160401b038311610fb957600160401b8311610fb9578054838255808410610f93575b5081905f5260205f20905f5b848110610f78575050505f5b828110610f0c5750505060407ffd204c7043da2bcc4dc261ed00edac3bb5e2b8c5c60c7535c4d17144759fc7329181519081525f6020820152a1600554937f0577b5b4aa3eaba75b2a919d5d7c63b7258aa507d38e346bf2ff1d48790379ff6005557f0577b5b4aa3eaba75b2a919d5d7c63b7258aa507d38e346bf2ff1d48790379ff604051957f2c5e454ab10a3bb8f13831cd35da5f0dbef2c5ac1c80c171157ab07519e097485f80a37f154dc6546aae50b4d3772d636c3f1949122dcebaeda2ba647059f85ff99f1cc880546001600160a01b031990811685179091556001600160a01b039182165f908152600c60205260409020805460ff19166001179055600d8054821693909216929092179055600e80549091169091179055610eb757005b60207fc7f505b2f371ae2175ee4913f4499e1f2633a7b5936321eed1cdaeb6115181d29168ff0000000000000000195f5160206130665f395f51905f5254165f5160206130665f395f51905f525560018152a1005b610f158461265b565b50610f246106488386866125f4565b60018060a01b03165f5260205260ff60405f2054166106a157600190610f498561265b565b50610f586106488387876125f4565b838060a01b03165f5260205260405f208260ff1982541617905501610d93565b6001906020610f8684612a62565b9301928185015501610d87565b815f528360205f2091820191015b818110610fae5750610d7b565b5f8155600101610fa1565b634e487b7160e01b5f52604160045260245ffd5b634e487b7160e01b5f52601160045260245ffd5b505f198301838111610fcd57610ff69061265b565b50505f610d0f565b68ffffffffffffffffff191668010000000000000001175f5160206130665f395f51905f52558a610c76565b63f92ee8a960e01b5f5260045ffd5b9050158b610c49565b303b159150610c41565b8a9150610c37565b5f80fd5b346110545760c0366003190112611054576004356024356044356001600160401b03811161105457366023820112156110545780600401356001600160401b038111611054573660248284010111611054576064356001600160401b038111611054576110c99036906004016123e2565b909160a4356001600160401b038111611054576110ea903690600401612385565b9590335f526009602052600160405f20540361143957815f52600160205260ff60405f205460c01c16156113ea57815f526001602052600363ffffffff60405f205460a01c160163ffffffff8111610fcd5763ffffffff1684036113975783156113835783600110156113835760208501359684600210156113835760055486350361132e5761117e916084358a8a6127ae565b805f52600160205263ffffffff60405f205460a01c1660039060030180600311610fcd57905b8885878484106113205750505050505f52600160205260018060a01b0360405f2054169080602460405196633a94343960e21b8852604060048901528260448901520160648701375f60648287010152601f801991011684019160031960648685030101602486015280606484015260018060fb1b03811161105457602085606482968296839560051b8092608483013701010301915afa908115611315575f916112e6575b5015611292576020817f401f796450733fd22827ddc018ca37051459a8035c4026f533c294797bb8a49e926005556112856004548511612582565b83600455604051908152a2005b60405162461bcd60e51b815260206004820152602660248201527f526f6c6c757056313a205a4b2070726f6f6620766572696669636174696f6e2060448201526519985a5b195960d21b6064820152608490fd5b611308915060203d60201161130e575b6113008183612448565b810190612604565b8361124a565b503d6112f6565b6040513d5f823e3d90fd5b61132993612b42565b6111a4565b60405162461bcd60e51b815260206004820152602760248201527f526f6c6c757056313a20526f6f74206861736820766572696669636174696f6e6044820152660819985a5b195960ca1b6064820152608490fd5b634e487b7160e01b5f52603260045260245ffd5b60405162461bcd60e51b815260206004820152602560248201527f526f6c6c757056313a20496e76616c6964207075626c6963496e70757473206c6044820152640cadccee8d60db1b6064820152608490fd5b60405162461bcd60e51b815260206004820152602160248201527f526f6c6c757056313a205a4b207665726966696572206e6f7420616c6c6f77656044820152601960fa1b6064820152608490fd5b60405162461bcd60e51b81526020600482015260146024820152732cb7ba9030b932903737ba103090383937bb32b960611b6044820152606490fd5b346110545760203660031901126110545761148e61230d565b6114966126fc565b6001600160a01b031680156114c1576bffffffffffffffffffffffff60a01b600d541617600d555f80f35b60405162461bcd60e51b815260206004820152602860248201527f526f6c6c757056313a20496e76616c696420657363726f77206d616e61676572604482015267206164647265737360c01b6064820152608490fd5b346110545760203660031901126110545761153061230d565b6115386126fc565b6001600160a01b03165f908152600c60205260409020805460ff19166001179055005b346110545760203660031901126110545761157461230d565b61157c6126fc565b6001600160a01b03165f818152600960205260409020545f19016115ce57805f5260096020525f60408120557fd64d11086d859b73cf85a91ca06cbc484398acabe3d9a1b26d4366dff377d9855f80a2005b60405162461bcd60e51b815260206004820152601760248201527f41646472657373206973206e6f7420612070726f7665720000000000000000006044820152606490fd5b346110545760203660031901126110545761162c61230d565b6116346126fc565b6001600160a01b03165f908152600c60205260409020805460ff19169055005b346110545761166236612339565b9392335f52600c602052600160ff60405f2054161515036118415761168a858383878761272f565b5f818152600760205260409020549095906001600160a01b03166117f157600454101561179b575f908152600860205260409020546001600160a01b0316906116eb906116d8831515612518565b6116e4813033866129cb565b8483612f80565b9160405191600183527f25bab1ec4b6635a8e0740834e52ce1aee362e9c38447738aa7b75b7e06275b0760408515968715602087015260018060a01b031694a45061175e575f90815260076020526040902080546001600160a01b0319163317905560105461175990612574565b601055005b60405162461bcd60e51b8152602060048201526015602482015274149bdb1b1d5c158c4e88109d5c9b8819985a5b1959605a1b6044820152606490fd5b60405162461bcd60e51b815260206004820152602860248201527f526f6c6c757056313a20426c6f636b2068656967687420616c7265616479207260448201526706f6c6c65642075760c41b6064820152608490fd5b60405162461bcd60e51b815260206004820152602260248201527f526f6c6c757056313a204275726e20616c726561647920737562737469747574604482015261195960f21b6064820152608490fd5b60405162461bcd60e51b815260206004820152602860248201527f526f6c6c757056313a20596f7520617265206e6f742061206275726e2073756260448201526739ba34ba3aba37b960c11b6064820152608490fd5b34611054575f366003190112611054576020600554604051908152f35b34611054576020366003190112611054575f604080516118d381612412565b82815282602082015201526004355f526006602052606060405f206040516118fa81612412565b815491828252604060ff600260018401549360208601948552015416920191151582526040519283525160208301525115156040820152f35b346110545760403660031901126110545760043561194f612323565b906119586126fc565b5f818152600860205260409020546001600160a01b031661199f575f90815260086020526040902080546001600160a01b0319166001600160a01b03909216919091179055005b60405162461bcd60e51b815260206004820152601e60248201527f526f6c6c757056313a20546f6b656e20616c72656164792065786973747300006044820152606490fd5b34611054575f366003190112611054575f5160206130465f395f51905f52546040516001600160a01b039091168152602090f35b34611054575f36600319011261105457611a306126fc565b5f5160206130465f395f51905f5280546001600160a01b031981169091555f906001600160a01b03167f8be0079c531659141344cd1fd0a4f28419497f9722a3daafe3b4186f6b6457e08280a3005b346110545760203660031901126110545760043560025481101561105457611aa86020916123b5565b90549060031b1c604051908152f35b34611054576020366003190112611054576040600435805f526001602052611ae760ff835f205460c01c166124b3565b5f90815260016020908152908290205482516001600160a01b038216815260a09190911c63ffffffff1691810191909152f35b34611054576020366003190112611054576004355f526006602052606060405f2080549060ff600260018301549201541690604051928352602083015215156040820152f35b34611054575f36600319011261105457602060ff5f5416604051908152f35b3461105457606036600319011261105457600435602435604435825f526006602052600160405f200154611c65577fc4adcac6a89d730f3a6da5d846bba3d858a8fc5884e0f80940a3a3b96a4ae6f191816040925f526008602052611bfe8260018060a01b03855f205416611bf5811515612518565b309033906129cb565b611c4a8351611c0c81612412565b828152600260208201858152868301905f8252895f526006602052875f209351845551600184015551151591019060ff801983541691151516179055565b611c55600f54612574565b600f5582519182526020820152a2005b60405162461bcd60e51b815260206004820152601d60248201527f526f6c6c757056313a204d696e7420616c7265616479206578697374730000006044820152606490fd5b34611054576080366003190112611054576024356004356064356001600160401b03811161105457611ce0903690600401612385565b9091600f54611e9957601054611e4257611cfd6004548511612582565b611d0684612770565b6001611d13600b5461265b565b50018054908115611dfd57611d2a918606906123cd565b905460039190911b1c6001600160a01b03163303611dad57611d746020927f401f796450733fd22827ddc018ca37051459a8035c4026f533c294797bb8a49e9460443587856127ae565b80600554816005557f2c5e454ab10a3bb8f13831cd35da5f0dbef2c5ac1c80c171157ab07519e097485f80a383600455604051908152a2005b60405162461bcd60e51b815260206004820152602260248201527f526f6c6c757056313a2043616c6c6572206973206e6f7420746865206c65616460448201526132b960f11b6064820152608490fd5b60405162461bcd60e51b815260206004820152601760248201527f526f6c6c757056313a204e6f2076616c696461746f72730000000000000000006044820152606490fd5b60405162461bcd60e51b815260206004820152602960248201527f526f6c6c757056313a2050656e64696e672073756273746974757465642062756044820152681c9b9cc8195e1a5cdd60ba1b6064820152608490fd5b60405162461bcd60e51b815260206004820152601d60248201527f526f6c6c757056313a2050656e64696e67206d696e74732065786973740000006044820152606490fd5b3461105457611eec3661236b565b600d546001600160a01b03163303611f5557825f526006602052600160405f200154611c65577fc4adcac6a89d730f3a6da5d846bba3d858a8fc5884e0f80940a3a3b96a4ae6f191816040925f526008602052611bfe60018060a01b03845f2054161515612518565b60405162461bcd60e51b815260206004820152601d60248201527f526f6c6c757056313a204f6e6c7920657363726f77206d616e616765720000006044820152606490fd5b3461105457611fb4611fab36612339565b9390929161272f565b5f526007602052602060018060a01b0360405f2054161515604051908152f35b34611054575f36600319011261105457602060406006828251611ff78482612448565b82815201650526f6c6c75760d41b81522060018383516120178582612448565b82815201603160f81b815220825190848201927f8b73c3c69bb8fe3d512ecc4cf759cc79239f7b179b0ffacaa9a75d522b39400f84528483015260608201524660808201523060a082015260a0815261207160c082612448565b5190209051908152f35b34611054575f366003190112611054576020601054604051908152f35b34611054576020366003190112611054576004355f526008602052602060018060a01b0360405f205416604051908152f35b34611054576020366003190112611054576004356120e66126fc565b805f52600160205261210160ff60405f205460c01c166124b3565b5f8181526001602052604081208054908290556002546001600160a01b0390911692915b81811061215f575b7fa67e94ae6f2b34c76ff45db881989225caa876cbe2d8215c01650a104557573d6040848682519182526020820152a1005b82612169826123b5565b90549060031b1c1461217d57600101612125565b905f198101908111610fcd576121a56121986121bb926123b5565b90549060031b1c926123b5565b819391549060031b91821b915f19901b19161790565b9055600254908115612212577fa67e94ae6f2b34c76ff45db881989225caa876cbe2d8215c01650a104557573d926040925f19016121f8816123b5565b8154905f199060031b1b191690556002559281925061212d565b634e487b7160e01b5f52603160045260245ffd5b346110545760203660031901126110545761223f61230d565b6122476126fc565b6001600160a01b03165f818152600960205260408120600190557fef1fa0a4d797341645c201a742cf59be633da0589e0e3cda511cfc90cd0396849080a2005b34611054575f36600319011261105457600e546040516001600160a01b039091168152602090f35b34611054576020366003190112611054576122c8612469565b604080516122e2816102456020820195600435908761248e565b8151928391602083525180918160208501528484015e5f828201840152601f01601f19168101030190f35b600435906001600160a01b038216820361105457565b602435906001600160a01b038216820361105457565b60a0906003190112611054576004356001600160a01b0381168103611054579060243590604435906064359060843590565b606090600319011261105457600435906024359060443590565b9181601f84011215611054578235916001600160401b038311611054576020808501946060850201011161105457565b6002548110156113835760025f5260205f2001905f90565b8054821015611383575f5260205f2001905f90565b9181601f84011215611054578235916001600160401b038311611054576020808501948460051b01011161105457565b606081019081106001600160401b03821117610fb957604052565b604081019081106001600160401b03821117610fb957604052565b90601f801991011681019081106001600160401b03821117610fb957604052565b60405190612478604083612448565b60078252664369706865726160c81b6020830152565b600760c01b81528151602893929091908290602001600883015e019060088201520190565b156124ba57565b60405162461bcd60e51b8152602060048201526024808201527f526f6c6c757056313a205a4b20766572696669657220646f6573206e6f7420656044820152631e1a5cdd60e21b6064820152608490fd5b91908203918211610fcd57565b1561251f57565b60405162461bcd60e51b815260206004820152602760248201527f526f6c6c757056313a20546f6b656e206e6f7420666f756e6420666f72206e6f6044820152661d19481ada5b9960ca1b6064820152608490fd5b5f198114610fcd5760010190565b1561258957565b60405162461bcd60e51b815260206004820152603760248201527f526f6c6c757056313a204e657720626c6f636b20686569676874206d7573742060448201527f62652067726561746572207468616e2063757272656e740000000000000000006064820152608490fd5b91908110156113835760051b0190565b90816020910312611054575180151581036110545790565b600254600160401b811015610fb9576121a5816001612640930160025560026123cd565b9055565b6001600160401b038111610fb95760051b60200190565b600a5481101561138357600a5f52600360205f20910201905f90565b80518210156113835760209160051b010190565b6001600160a01b031680156126e9575f5160206130465f395f51905f5280546001600160a01b0319811683179091556001600160a01b03167f8be0079c531659141344cd1fd0a4f28419497f9722a3daafe3b4186f6b6457e05f80a3565b631e4fbdf760e01b5f525f60045260245ffd5b5f5160206130465f395f51905f52546001600160a01b0316330361271c57565b63118cdaa760e01b5f523360045260245ffd5b9391929092604051936020850195865260018060a01b031660408501526060840152608083015260a082015260a0815261276a60c082612448565b51902090565b600b5460018101809111610fcd575b600a548110156127aa578160026127958361265b565b500154116127aa5780600191600b550161277f565b5050565b90919492946127bc83612770565b6127c7600b5461265b565b509285156129865760018401548060011b9080820460021490151715610fcd576003900460018101809111610fcd57861061291b5761280592612a76565b935f92835b858510156129125761283e9061283560608702850160208101359060ff60408235920135168b612e8a565b90939193612f0c565b60018060a01b0382165f5284602052600160ff60405f2054161515036128c1576001600160a01b03908116908216111561287d5760019094019361280a565b606460405162461bcd60e51b815260206004820152602060248201527f526f6c6c757056313a205369676e65727320617265206e6f7420736f727465646044820152fd5b60405162461bcd60e51b815260206004820152602360248201527f526f6c6c757056313a205369676e6572206973206e6f7420612076616c6964616044820152623a37b960e91b6064820152608490fd5b50945050505050565b60405162461bcd60e51b815260206004820152603f60248201527f526f6c6c757056313a204e6f7420656e6f756768207369676e6174757265732060448201527f66726f6d2076616c696461746f727320746f2076657269667920626c6f636b006064820152608490fd5b60405162461bcd60e51b815260206004820152601760248201527f526f6c6c757056313a204e6f207369676e6174757265730000000000000000006044820152606490fd5b6040516323b872dd60e01b60208083019182526001600160a01b039485166024840152949093166044820152606480820195909552938452925f9190612a12608482612448565b519082855af115611315575f513d612a5957506001600160a01b0381163b155b612a395750565b635274afe760e01b5f9081526001600160a01b0391909116600452602490fd5b60011415612a32565b356001600160a01b03811681036110545790565b604080516020810192835290810183905260608101939093529091612a9e8160808101610245565b51902060018201809211610fcd576040519060208201928352604082015260408152612acb606082612448565b51902061024561276a612adc612469565b9260405192839160208301958661248e565b919092612afc908484612f80565b604080515f8152821515602082015291946001600160a01b039081169416917f25bab1ec4b6635a8e0740834e52ce1aee362e9c38447738aa7b75b7e06275b079190a490565b92919091612b518483856125f4565b3580612b69575050505060018101809111610fcd5790565b60028103612d2d57505060018301808411610fcd57612b899082846125f4565b359160028401808511610fcd57612ba19083836125f4565b35916003850190818611610fcd57612bb8926125f4565b3591825f52600660205281600160405f20015403612ce857825f5260066020528060405f205403612ca457825f52600660205260ff600260405f20015416612c5f577f948ecd827e77afeeebdc95f4d34a294c53d7e28501dcd56c8d89e88e61b53a5091604091845f5260066020526002835f2001600160ff19825416179055612c43600f54613039565b600f5582519182526020820152a260048101809111610fcd5790565b60405162461bcd60e51b815260206004820152601c60248201527f526f6c6c757056313a204d696e7420616c7265616479207370656e74000000006044820152606490fd5b606460405162461bcd60e51b815260206004820152602060248201527f526f6c6c757056313a204d696e74206e6f7465206b696e6420696e76616c69646044820152fd5b60405162461bcd60e51b815260206004820152601c60248201527f526f6c6c757056313a204d696e742076616c756520696e76616c6964000000006044820152606490fd5b909290600303612e1a5760018401808511610fcd57612d4d9083836125f4565b359260028501808611610fcd57612d659084846125f4565b359260038601808711610fcd57612d7d9082856125f4565b35926004870191828811610fcd57612dc3926001600160a01b0392612da292906125f4565b351691855f5260086020528460018060a01b0360405f20541696848661272f565b5f908152600760205260409020546001600160a01b0316908115612e095750612deb93612aee565b50612df7601054613039565b6010555b60058101809111610fcd5790565b9050612e1493612aee565b50612dfb565b60405162461bcd60e51b815260206004820152601e60248201527f526f6c6c757056313a20496e76616c6964206d657373616765206b696e6400006044820152606490fd5b60ff5f5160206130665f395f51905f525460401c1615612e7b57565b631afcd79f60e31b5f5260045ffd5b91907f7fffffffffffffffffffffffffffffff5d576e7357a4501ddfe92f46681b20a08411612f01579160209360809260ff5f9560405194855216868401526040830152606082015282805260015afa15611315575f516001600160a01b03811615612ef757905f905f90565b505f906001905f90565b5050505f9160039190565b6004811015612f6c5780612f1e575050565b60018103612f355763f645eedf60e01b5f5260045ffd5b60028103612f50575063fce698f760e01b5f5260045260245ffd5b600314612f5a5750565b6335e2f38360e21b5f5260045260245ffd5b634e487b7160e01b5f52602160045260245ffd5b5f929183809360405190602082019363a9059cbb60e01b855260018060a01b03166024830152604482015260448152612fba606482612448565b51925af13d15613031573d906001600160401b038211610fb95760405191612fec601f8201601f191660200184612448565b82523d5f602084013e5b1561302c578051908161300b575b5050600190565b60208061301c938301019101612604565b15613028575f80613004565b5f90565b505f90565b606090612ff6565b8015610fcd575f19019056fe9016d09d72d40fdae2fd8ceac6b6234c7706214fd39c1cd1e609a0528c199300f0c57e16840df040f15088dc2f81fe391c3923bec73e23a9662efc9c229c6a00a26469706673582212203c972a6445c6f51a4acfcd08f9748ee99f04877e403c080983d4e07ce347e6f164736f6c634300081c0033f0c57e16840df040f15088dc2f81fe391c3923bec73e23a9662efc9c229c6a00",
  "linkReferences": {},
  "deployedLinkReferences": {},
  "immutableReferences": {},
  "inputSourceName": "project/contracts/rollup/RollupV1.sol",
  "buildInfoId": "solc-0_8_28-62b7cca01b1f8379f352d5839505fe2cf49a40b9"
}