{
  "_format": "hh3-artifact-1",
  "contractName": "RollupV1",
  "sourceName": "contracts/rollup/RollupV1.sol",
  "abi": [
    {
      "inputs": [],
      "stateMutability": "nonpayable",
      "type": "constructor"
    },
    {
      "inputs": [],
      "name": "ECDSAInvalidSignature",
      "type": "error"
    },
    {
      "inputs": [
        {
          "internalType": "uint256",
          "name": "length",
          "type": "uint256"
        }
      ],
      "name": "ECDSAInvalidSignatureLength",
      "type": "error"
    },
    {
      "inputs": [
        {
          "internalType": "bytes32",
          "name": "s",
          "type": "bytes32"
        }
      ],
      "name": "ECDSAInvalidSignatureS",
      "type": "error"
    },
    {
      "inputs": [],
      "name": "InvalidInitialization",
      "type": "error"
    },
    {
      "inputs": [],
      "name": "NotInitializing",
      "type": "error"
    },
    {
      "inputs": [
        {
          "internalType": "address",
          "name": "owner",
          "type": "address"
        }
      ],
      "name": "OwnableInvalidOwner",
      "type": "error"
    },
    {
      "inputs": [
        {
          "internalType": "address",
          "name": "account",
          "type": "address"
        }
      ],
      "name": "OwnableUnauthorizedAccount",
      "type": "error"
    },
    {
      "inputs": [],
      "name": "ReentrancyGuardReentrantCall",
      "type": "error"
    },
    {
      "inputs": [
        {
          "internalType": "address",
          "name": "token",
          "type": "address"
        }
      ],
      "name": "SafeERC20FailedOperation",
      "type": "error"
    },
    {
      "anonymous": false,
      "inputs": [
        {
          "indexed": true,
          "internalType": "address",
          "name": "substituteAddress",
          "type": "address"
        },
        {
          "indexed": true,
          "internalType": "bytes32",
          "name": "substituteBurnKey",
          "type": "bytes32"
        }
      ],
      "name": "BurnClaimed",
      "type": "event"
    },
    {
      "anonymous": false,
      "inputs": [
        {
          "indexed": false,
          "internalType": "uint256",
          "name": "oldFee",
          "type": "uint256"
        },
        {
          "indexed": false,
          "internalType": "uint256",
          "name": "newFee",
          "type": "uint256"
        }
      ],
      "name": "BurnFeeUpdated",
      "type": "event"
    },
    {
      "anonymous": false,
      "inputs": [
        {
          "indexed": true,
          "internalType": "address",
          "name": "token",
          "type": "address"
        },
        {
          "indexed": true,
          "internalType": "bytes32",
          "name": "burn_hash",
          "type": "bytes32"
        },
        {
          "indexed": true,
          "internalType": "address",
          "name": "recipient",
          "type": "address"
        },
        {
          "indexed": false,
          "internalType": "bool",
          "name": "substitute",
          "type": "bool"
        },
        {
          "indexed": false,
          "internalType": "bool",
          "name": "success",
          "type": "bool"
        }
      ],
      "name": "Burned",
      "type": "event"
    },
    {
      "anonymous": false,
      "inputs": [
        {
          "indexed": true,
          "internalType": "address",
          "name": "old_escrow",
          "type": "address"
        },
        {
          "indexed": true,
          "internalType": "address",
          "name": "new_escrow",
          "type": "address"
        }
      ],
      "name": "EscrowManagerUpdated",
      "type": "event"
    },
    {
      "anonymous": false,
      "inputs": [
        {
          "indexed": true,
          "internalType": "address",
          "name": "token",
          "type": "address"
        },
        {
          "indexed": true,
          "internalType": "address",
          "name": "sink",
          "type": "address"
        },
        {
          "indexed": false,
          "internalType": "uint256",
          "name": "amount",
          "type": "uint256"
        }
      ],
      "name": "FeePaid",
      "type": "event"
    },
    {
      "anonymous": false,
      "inputs": [
        {
          "indexed": true,
          "internalType": "address",
          "name": "oldSink",
          "type": "address"
        },
        {
          "indexed": true,
          "internalType": "address",
          "name": "newSink",
          "type": "address"
        }
      ],
      "name": "FeeSinkUpdated",
      "type": "event"
    },
    {
      "anonymous": false,
      "inputs": [
        {
          "indexed": true,
          "internalType": "address",
          "name": "token",
          "type": "address"
        },
        {
          "indexed": false,
          "internalType": "uint256",
          "name": "amount",
          "type": "uint256"
        }
      ],
      "name": "FeeStuck",
      "type": "event"
    },
    {
      "anonymous": false,
      "inputs": [
        {
          "indexed": false,
          "internalType": "uint256",
          "name": "oldCap",
          "type": "uint256"
        },
        {
          "indexed": false,
          "internalType": "uint256",
          "name": "newCap",
          "type": "uint256"
        }
      ],
      "name": "GlobalTvlCapUpdated",
      "type": "event"
    },
    {
      "anonymous": false,
      "inputs": [
        {
          "indexed": false,
          "internalType": "uint64",
          "name": "version",
          "type": "uint64"
        }
      ],
      "name": "Initialized",
      "type": "event"
    },
    {
      "anonymous": false,
      "inputs": [
        {
          "indexed": true,
          "internalType": "bytes32",
          "name": "mint_hash",
          "type": "bytes32"
        },
        {
          "indexed": false,
          "internalType": "uint256",
          "name": "value",
          "type": "uint256"
        },
        {
          "indexed": false,
          "internalType": "bytes32",
          "name": "note_kind",
          "type": "bytes32"
        }
      ],
      "name": "MintAdded",
      "type": "event"
    },
    {
      "anonymous": false,
      "inputs": [
        {
          "indexed": true,
          "internalType": "bytes32",
          "name": "hash",
          "type": "bytes32"
        },
        {
          "indexed": false,
          "internalType": "bytes32",
          "name": "value",
          "type": "bytes32"
        },
        {
          "indexed": false,
          "internalType": "bytes32",
          "name": "note_kind",
          "type": "bytes32"
        }
      ],
      "name": "Minted",
      "type": "event"
    },
    {
      "anonymous": false,
      "inputs": [
        {
          "indexed": false,
          "internalType": "uint256",
          "name": "oldDelay",
          "type": "uint256"
        },
        {
          "indexed": false,
          "internalType": "uint256",
          "name": "newDelay",
          "type": "uint256"
        }
      ],
      "name": "OpenProvingDelayUpdated",
      "type": "event"
    },
    {
      "anonymous": false,
      "inputs": [
        {
          "indexed": true,
          "internalType": "address",
          "name": "previousOwner",
          "type": "address"
        },
        {
          "indexed": true,
          "internalType": "address",
          "name": "newOwner",
          "type": "address"
        }
      ],
      "name": "OwnershipTransferred",
      "type": "event"
    },
    {
      "anonymous": false,
      "inputs": [
        {
          "indexed": false,
          "internalType": "uint256",
          "name": "oldCap",
          "type": "uint256"
        },
        {
          "indexed": false,
          "internalType": "uint256",
          "name": "newCap",
          "type": "uint256"
        }
      ],
      "name": "PerMintCapUpdated",
      "type": "event"
    },
    {
      "anonymous": false,
      "inputs": [
        {
          "indexed": true,
          "internalType": "address",
          "name": "prover",
          "type": "address"
        }
      ],
      "name": "ProverAdded",
      "type": "event"
    },
    {
      "anonymous": false,
      "inputs": [
        {
          "indexed": true,
          "internalType": "address",
          "name": "prover",
          "type": "address"
        }
      ],
      "name": "ProverRemoved",
      "type": "event"
    },
    {
      "anonymous": false,
      "inputs": [
        {
          "indexed": true,
          "internalType": "uint256",
          "name": "height",
          "type": "uint256"
        },
        {
          "indexed": false,
          "internalType": "bytes32",
          "name": "root",
          "type": "bytes32"
        }
      ],
      "name": "RollupVerified",
      "type": "event"
    },
    {
      "anonymous": false,
      "inputs": [
        {
          "indexed": true,
          "internalType": "bytes32",
          "name": "oldRoot",
          "type": "bytes32"
        },
        {
          "indexed": true,
          "internalType": "bytes32",
          "name": "newRoot",
          "type": "bytes32"
        }
      ],
      "name": "RootHashUpdated",
      "type": "event"
    },
    {
      "anonymous": false,
      "inputs": [
        {
          "indexed": true,
          "internalType": "bytes32",
          "name": "key",
          "type": "bytes32"
        },
        {
          "indexed": true,
          "internalType": "bytes32",
          "name": "hash",
          "type": "bytes32"
        },
        {
          "indexed": true,
          "internalType": "address",
          "name": "burnAddr",
          "type": "address"
        },
        {
          "indexed": false,
          "internalType": "uint256",
          "name": "amount",
          "type": "uint256"
        },
        {
          "indexed": false,
          "internalType": "uint256",
          "name": "readyAt",
          "type": "uint256"
        }
      ],
      "name": "SlowBurnQueued",
      "type": "event"
    },
    {
      "anonymous": false,
      "inputs": [
        {
          "indexed": true,
          "internalType": "bytes32",
          "name": "key",
          "type": "bytes32"
        },
        {
          "indexed": true,
          "internalType": "address",
          "name": "recipient",
          "type": "address"
        },
        {
          "indexed": false,
          "internalType": "bool",
          "name": "substituted",
          "type": "bool"
        },
        {
          "indexed": false,
          "internalType": "bool",
          "name": "success",
          "type": "bool"
        }
      ],
      "name": "SlowBurnReleased",
      "type": "event"
    },
    {
      "anonymous": false,
      "inputs": [
        {
          "indexed": true,
          "internalType": "address",
          "name": "timelock",
          "type": "address"
        },
        {
          "indexed": false,
          "internalType": "uint256",
          "name": "minDelay",
          "type": "uint256"
        }
      ],
      "name": "TimelockInstalled",
      "type": "event"
    },
    {
      "anonymous": false,
      "inputs": [
        {
          "indexed": false,
          "internalType": "uint256",
          "name": "index",
          "type": "uint256"
        },
        {
          "indexed": false,
          "internalType": "uint256",
          "name": "validFrom",
          "type": "uint256"
        }
      ],
      "name": "ValidatorSetAdded",
      "type": "event"
    },
    {
      "anonymous": false,
      "inputs": [
        {
          "indexed": false,
          "internalType": "bytes32",
          "name": "verificationKey",
          "type": "bytes32"
        },
        {
          "indexed": false,
          "internalType": "address",
          "name": "zkVerifierAddress",
          "type": "address"
        },
        {
          "indexed": false,
          "internalType": "uint32",
          "name": "messages_length",
          "type": "uint32"
        }
      ],
      "name": "VerifierAdded",
      "type": "event"
    },
    {
      "anonymous": false,
      "inputs": [
        {
          "indexed": false,
          "internalType": "bytes32",
          "name": "verificationKey",
          "type": "bytes32"
        },
        {
          "indexed": false,
          "internalType": "address",
          "name": "zkVerifierAddress",
          "type": "address"
        }
      ],
      "name": "VerifierRemoved",
      "type": "event"
    },
    {
      "inputs": [],
      "name": "DOMAIN_SEPARATOR",
      "outputs": [
        {
          "internalType": "bytes32",
          "name": "",
          "type": "bytes32"
        }
      ],
      "stateMutability": "view",
      "type": "function"
    },
    {
      "inputs": [
        {
          "internalType": "address",
          "name": "burnSubstitutor",
          "type": "address"
        }
      ],
      "name": "addBurnSubstitutor",
      "outputs": [],
      "stateMutability": "nonpayable",
      "type": "function"
    },
    {
      "inputs": [
        {
          "internalType": "address",
          "name": "prover",
          "type": "address"
        }
      ],
      "name": "addProver",
      "outputs": [],
      "stateMutability": "nonpayable",
      "type": "function"
    },
    {
      "inputs": [
        {
          "internalType": "bytes32",
          "name": "",
          "type": "bytes32"
        },
        {
          "internalType": "address",
          "name": "",
          "type": "address"
        }
      ],
      "name": "addToken",
      "outputs": [],
      "stateMutability": "pure",
      "type": "function"
    },
    {
      "inputs": [
        {
          "internalType": "bytes32",
          "name": "verificationKeyHash",
          "type": "bytes32"
        },
        {
          "internalType": "address",
          "name": "verifierAddress",
          "type": "address"
        },
        {
          "internalType": "uint32",
          "name": "messages_length",
          "type": "uint32"
        }
      ],
      "name": "addZkVerifier",
      "outputs": [],
      "stateMutability": "nonpayable",
      "type": "function"
    },
    {
      "inputs": [],
      "name": "blockHeight",
      "outputs": [
        {
          "internalType": "uint256",
          "name": "",
          "type": "uint256"
        }
      ],
      "stateMutability": "view",
      "type": "function"
    },
    {
      "inputs": [
        {
          "internalType": "address",
          "name": "substituteAddress",
          "type": "address"
        },
        {
          "internalType": "bytes32",
          "name": "substituteBurnKey",
          "type": "bytes32"
        }
      ],
      "name": "burnClaimed",
      "outputs": [],
      "stateMutability": "nonpayable",
      "type": "function"
    },
    {
      "inputs": [],
      "name": "burnFee",
      "outputs": [
        {
          "internalType": "uint256",
          "name": "",
          "type": "uint256"
        }
      ],
      "stateMutability": "view",
      "type": "function"
    },
    {
      "inputs": [
        {
          "internalType": "uint256",
          "name": "value",
          "type": "uint256"
        }
      ],
      "name": "computeBurnFee",
      "outputs": [
        {
          "internalType": "uint256",
          "name": "",
          "type": "uint256"
        }
      ],
      "stateMutability": "view",
      "type": "function"
    },
    {
      "inputs": [],
      "name": "currentRootHash",
      "outputs": [
        {
          "internalType": "bytes32",
          "name": "",
          "type": "bytes32"
        }
      ],
      "stateMutability": "view",
      "type": "function"
    },
    {
      "inputs": [],
      "name": "currentTvl",
      "outputs": [
        {
          "internalType": "uint256",
          "name": "",
          "type": "uint256"
        }
      ],
      "stateMutability": "view",
      "type": "function"
    },
    {
      "inputs": [
        {
          "internalType": "bytes32",
          "name": "newRoot",
          "type": "bytes32"
        },
        {
          "internalType": "uint256",
          "name": "height",
          "type": "uint256"
        },
        {
          "internalType": "bytes32",
          "name": "otherHashFromBlockHash",
          "type": "bytes32"
        }
      ],
      "name": "debugGetIntermediateHashes",
      "outputs": [
        {
          "internalType": "bytes32",
          "name": "proposalHash",
          "type": "bytes32"
        },
        {
          "internalType": "bytes32",
          "name": "acceptMsg",
          "type": "bytes32"
        },
        {
          "internalType": "bytes32",
          "name": "sigMsg",
          "type": "bytes32"
        }
      ],
      "stateMutability": "pure",
      "type": "function"
    },
    {
      "inputs": [
        {
          "internalType": "bytes32",
          "name": "acceptMsg",
          "type": "bytes32"
        }
      ],
      "name": "debugGetPackedBytes",
      "outputs": [
        {
          "internalType": "bytes",
          "name": "",
          "type": "bytes"
        }
      ],
      "stateMutability": "pure",
      "type": "function"
    },
    {
      "inputs": [
        {
          "internalType": "bytes32",
          "name": "newRoot",
          "type": "bytes32"
        },
        {
          "internalType": "uint256",
          "name": "height",
          "type": "uint256"
        },
        {
          "internalType": "bytes32",
          "name": "otherHashFromBlockHash",
          "type": "bytes32"
        }
      ],
      "name": "debugGetSignatureMessageHash",
      "outputs": [
        {
          "internalType": "bytes32",
          "name": "",
          "type": "bytes32"
        }
      ],
      "stateMutability": "pure",
      "type": "function"
    },
    {
      "inputs": [
        {
          "internalType": "bytes32",
          "name": "",
          "type": "bytes32"
        }
      ],
      "name": "delays",
      "outputs": [
        {
          "internalType": "uint256",
          "name": "",
          "type": "uint256"
        }
      ],
      "stateMutability": "view",
      "type": "function"
    },
    {
      "inputs": [],
      "name": "escrowManager",
      "outputs": [
        {
          "internalType": "address",
          "name": "",
          "type": "address"
        }
      ],
      "stateMutability": "view",
      "type": "function"
    },
    {
      "inputs": [],
      "name": "feeSink",
      "outputs": [
        {
          "internalType": "address",
          "name": "",
          "type": "address"
        }
      ],
      "stateMutability": "view",
      "type": "function"
    },
    {
      "inputs": [
        {
          "internalType": "bytes32",
          "name": "hash",
          "type": "bytes32"
        }
      ],
      "name": "getMint",
      "outputs": [
        {
          "components": [
            {
              "internalType": "bytes32",
              "name": "note_kind",
              "type": "bytes32"
            },
            {
              "internalType": "uint256",
              "name": "amount",
              "type": "uint256"
            },
            {
              "internalType": "bool",
              "name": "spent",
              "type": "bool"
            }
          ],
          "internalType": "struct Mint",
          "name": "",
          "type": "tuple"
        }
      ],
      "stateMutability": "view",
      "type": "function"
    },
    {
      "inputs": [
        {
          "internalType": "uint256",
          "name": "from",
          "type": "uint256"
        }
      ],
      "name": "getValidatorSets",
      "outputs": [
        {
          "components": [
            {
              "internalType": "address[]",
              "name": "validators",
              "type": "address[]"
            },
            {
              "internalType": "uint256",
              "name": "validFrom",
              "type": "uint256"
            }
          ],
          "internalType": "struct PublicValidatorSet[]",
          "name": "",
          "type": "tuple[]"
        }
      ],
      "stateMutability": "view",
      "type": "function"
    },
    {
      "inputs": [
        {
          "internalType": "bytes32",
          "name": "verificationKeyHash",
          "type": "bytes32"
        }
      ],
      "name": "getZkVerifier",
      "outputs": [
        {
          "internalType": "address",
          "name": "",
          "type": "address"
        },
        {
          "internalType": "uint32",
          "name": "",
          "type": "uint32"
        }
      ],
      "stateMutability": "view",
      "type": "function"
    },
    {
      "inputs": [],
      "name": "globalTvlCap",
      "outputs": [
        {
          "internalType": "uint256",
          "name": "",
          "type": "uint256"
        }
      ],
      "stateMutability": "view",
      "type": "function"
    },
    {
      "inputs": [
        {
          "internalType": "address",
          "name": "owner_",
          "type": "address"
        },
        {
          "internalType": "address",
          "name": "escrowManager_",
          "type": "address"
        },
        {
          "internalType": "address",
          "name": "tokenAddress_",
          "type": "address"
        },
        {
          "internalType": "address",
          "name": "verifierAddress_",
          "type": "address"
        },
        {
          "internalType": "address",
          "name": "prover_",
          "type": "address"
        },
        {
          "internalType": "address[]",
          "name": "initialValidators_",
          "type": "address[]"
        },
        {
          "internalType": "bytes32",
          "name": "verifierKeyHash_",
          "type": "bytes32"
        },
        {
          "internalType": "uint256",
          "name": "perMintCap_",
          "type": "uint256"
        },
        {
          "internalType": "uint256",
          "name": "globalTvlCap_",
          "type": "uint256"
        },
        {
          "internalType": "uint256",
          "name": "openProvingDelay_",
          "type": "uint256"
        },
        {
          "internalType": "uint256",
          "name": "burnFee_",
          "type": "uint256"
        },
        {
          "internalType": "address",
          "name": "feeSink_",
          "type": "address"
        },
        {
          "internalType": "uint256",
          "name": "timelockMinDelay_",
          "type": "uint256"
        },
        {
          "internalType": "address[]",
          "name": "timelockProposers_",
          "type": "address[]"
        },
        {
          "internalType": "address[]",
          "name": "timelockExecutors_",
          "type": "address[]"
        }
      ],
      "name": "initialize",
      "outputs": [],
      "stateMutability": "nonpayable",
      "type": "function"
    },
    {
      "inputs": [],
      "name": "isProvingOpen",
      "outputs": [
        {
          "internalType": "bool",
          "name": "",
          "type": "bool"
        }
      ],
      "stateMutability": "view",
      "type": "function"
    },
    {
      "inputs": [],
      "name": "lastVerifiedAt",
      "outputs": [
        {
          "internalType": "uint256",
          "name": "",
          "type": "uint256"
        }
      ],
      "stateMutability": "view",
      "type": "function"
    },
    {
      "inputs": [
        {
          "internalType": "bytes32",
          "name": "mint_hash",
          "type": "bytes32"
        },
        {
          "internalType": "bytes32",
          "name": "value",
          "type": "bytes32"
        },
        {
          "internalType": "bytes32",
          "name": "note_kind",
          "type": "bytes32"
        }
      ],
      "name": "mint",
      "outputs": [],
      "stateMutability": "nonpayable",
      "type": "function"
    },
    {
      "inputs": [
        {
          "internalType": "bytes32",
          "name": "mint_hash",
          "type": "bytes32"
        },
        {
          "internalType": "uint256",
          "name": "value",
          "type": "uint256"
        },
        {
          "internalType": "bytes32",
          "name": "note_kind",
          "type": "bytes32"
        }
      ],
      "name": "mintClaimed",
      "outputs": [],
      "stateMutability": "nonpayable",
      "type": "function"
    },
    {
      "inputs": [
        {
          "internalType": "bytes32",
          "name": "",
          "type": "bytes32"
        }
      ],
      "name": "mints",
      "outputs": [
        {
          "internalType": "bytes32",
          "name": "note_kind",
          "type": "bytes32"
        },
        {
          "internalType": "uint256",
          "name": "amount",
          "type": "uint256"
        },
        {
          "internalType": "bool",
          "name": "spent",
          "type": "bool"
        }
      ],
      "stateMutability": "view",
      "type": "function"
    },
    {
      "inputs": [
        {
          "internalType": "bytes32",
          "name": "noteKind",
          "type": "bytes32"
        }
      ],
      "name": "noteKindTokenAddress",
      "outputs": [
        {
          "internalType": "address",
          "name": "",
          "type": "address"
        }
      ],
      "stateMutability": "view",
      "type": "function"
    },
    {
      "inputs": [],
      "name": "openProvingDelay",
      "outputs": [
        {
          "internalType": "uint256",
          "name": "",
          "type": "uint256"
        }
      ],
      "stateMutability": "view",
      "type": "function"
    },
    {
      "inputs": [],
      "name": "owner",
      "outputs": [
        {
          "internalType": "address",
          "name": "",
          "type": "address"
        }
      ],
      "stateMutability": "view",
      "type": "function"
    },
    {
      "inputs": [],
      "name": "perMintCap",
      "outputs": [
        {
          "internalType": "uint256",
          "name": "",
          "type": "uint256"
        }
      ],
      "stateMutability": "view",
      "type": "function"
    },
    {
      "inputs": [
        {
          "internalType": "bytes32",
          "name": "hash",
          "type": "bytes32"
        },
        {
          "internalType": "address",
          "name": "burnAddr",
          "type": "address"
        },
        {
          "internalType": "bytes32",
          "name": "noteKind",
          "type": "bytes32"
        },
        {
          "internalType": "uint256",
          "name": "amount",
          "type": "uint256"
        },
        {
          "internalType": "uint256",
          "name": "height",
          "type": "uint256"
        }
      ],
      "name": "releaseSlowBurn",
      "outputs": [],
      "stateMutability": "nonpayable",
      "type": "function"
    },
    {
      "inputs": [
        {
          "internalType": "address",
          "name": "burnSubstitutor",
          "type": "address"
        }
      ],
      "name": "removeBurnSubstitutor",
      "outputs": [],
      "stateMutability": "nonpayable",
      "type": "function"
    },
    {
      "inputs": [
        {
          "internalType": "address",
          "name": "prover",
          "type": "address"
        }
      ],
      "name": "removeProver",
      "outputs": [],
      "stateMutability": "nonpayable",
      "type": "function"
    },
    {
      "inputs": [
        {
          "internalType": "bytes32",
          "name": "verificationKeyHash",
          "type": "bytes32"
        }
      ],
      "name": "removeZkVerifier",
      "outputs": [],
      "stateMutability": "nonpayable",
      "type": "function"
    },
    {
      "inputs": [],
      "name": "renounceOwnership",
      "outputs": [],
      "stateMutability": "nonpayable",
      "type": "function"
    },
    {
      "inputs": [],
      "name": "rootHash",
      "outputs": [
        {
          "internalType": "bytes32",
          "name": "",
          "type": "bytes32"
        }
      ],
      "stateMutability": "view",
      "type": "function"
    },
    {
      "inputs": [
        {
          "internalType": "uint256",
          "name": "newFee",
          "type": "uint256"
        }
      ],
      "name": "setBurnFee",
      "outputs": [],
      "stateMutability": "nonpayable",
      "type": "function"
    },
    {
      "inputs": [
        {
          "internalType": "address",
          "name": "newEscrowManagerAddress",
          "type": "address"
        }
      ],
      "name": "setEscrowManager",
      "outputs": [],
      "stateMutability": "nonpayable",
      "type": "function"
    },
    {
      "inputs": [
        {
          "internalType": "address",
          "name": "newSink",
          "type": "address"
        }
      ],
      "name": "setFeeSink",
      "outputs": [],
      "stateMutability": "nonpayable",
      "type": "function"
    },
    {
      "inputs": [
        {
          "internalType": "uint256",
          "name": "newCap",
          "type": "uint256"
        }
      ],
      "name": "setGlobalTvlCap",
      "outputs": [],
      "stateMutability": "nonpayable",
      "type": "function"
    },
    {
      "inputs": [
        {
          "internalType": "uint256",
          "name": "newDelay",
          "type": "uint256"
        }
      ],
      "name": "setOpenProvingDelay",
      "outputs": [],
      "stateMutability": "nonpayable",
      "type": "function"
    },
    {
      "inputs": [
        {
          "internalType": "uint256",
          "name": "newCap",
          "type": "uint256"
        }
      ],
      "name": "setPerMintCap",
      "outputs": [],
      "stateMutability": "nonpayable",
      "type": "function"
    },
    {
      "inputs": [
        {
          "internalType": "uint256",
          "name": "validFrom",
          "type": "uint256"
        },
        {
          "internalType": "address[]",
          "name": "validators",
          "type": "address[]"
        }
      ],
      "name": "setValidators",
      "outputs": [],
      "stateMutability": "nonpayable",
      "type": "function"
    },
    {
      "inputs": [
        {
          "internalType": "address",
          "name": "burnAddress",
          "type": "address"
        },
        {
          "internalType": "bytes32",
          "name": "note_kind",
          "type": "bytes32"
        },
        {
          "internalType": "bytes32",
          "name": "hash",
          "type": "bytes32"
        },
        {
          "internalType": "uint256",
          "name": "amount",
          "type": "uint256"
        },
        {
          "internalType": "uint256",
          "name": "burnBlockHeight",
          "type": "uint256"
        }
      ],
      "name": "substituteBurn",
      "outputs": [],
      "stateMutability": "nonpayable",
      "type": "function"
    },
    {
      "inputs": [
        {
          "internalType": "bytes32",
          "name": "",
          "type": "bytes32"
        }
      ],
      "name": "substitutedBurns",
      "outputs": [
        {
          "internalType": "address",
          "name": "",
          "type": "address"
        }
      ],
      "stateMutability": "view",
      "type": "function"
    },
    {
      "inputs": [],
      "name": "timelock",
      "outputs": [
        {
          "internalType": "contract TimelockController",
          "name": "",
          "type": "address"
        }
      ],
      "stateMutability": "view",
      "type": "function"
    },
    {
      "inputs": [],
      "name": "token",
      "outputs": [
        {
          "internalType": "contract IERC20",
          "name": "",
          "type": "address"
        }
      ],
      "stateMutability": "view",
      "type": "function"
    },
    {
      "inputs": [
        {
          "internalType": "address",
          "name": "newOwner",
          "type": "address"
        }
      ],
      "name": "transferOwnership",
      "outputs": [],
      "stateMutability": "nonpayable",
      "type": "function"
    },
    {
      "inputs": [
        {
          "internalType": "uint256",
          "name": "height",
          "type": "uint256"
        },
        {
          "internalType": "bytes32",
          "name": "verificationKeyHash",
          "type": "bytes32"
        },
        {
          "internalType": "bytes",
          "name": "aggrProof",
          "type": "bytes"
        },
        {
          "internalType": "bytes32[]",
          "name": "publicInputs",
          "type": "bytes32[]"
        },
        {
          "internalType": "bytes32",
          "name": "otherHashFromBlockHash",
          "type": "bytes32"
        },
        {
          "components": [
            {
              "internalType": "bytes32",
              "name": "r",
              "type": "bytes32"
            },
            {
              "internalType": "bytes32",
              "name": "s",
              "type": "bytes32"
            },
            {
              "internalType": "uint256",
              "name": "v",
              "type": "uint256"
            }
          ],
          "internalType": "struct Signature[]",
          "name": "signatures",
          "type": "tuple[]"
        }
      ],
      "name": "verifyRollup",
      "outputs": [],
      "stateMutability": "nonpayable",
      "type": "function"
    },
    {
      "inputs": [
        {
          "internalType": "address",
          "name": "burn_address",
          "type": "address"
        },
        {
          "internalType": "bytes32",
          "name": "note_kind",
          "type": "bytes32"
        },
        {
          "internalType": "bytes32",
          "name": "hash",
          "type": "bytes32"
        },
        {
          "internalType": "uint256",
          "name": "amount",
          "type": "uint256"
        },
        {
          "internalType": "uint256",
          "name": "burnBlockHeight",
          "type": "uint256"
        }
      ],
      "name": "wasBurnSubstituted",
      "outputs": [
        {
          "internalType": "bool",
          "name": "",
          "type": "bool"
        }
      ],
      "stateMutability": "view",
      "type": "function"
    },
    {
      "inputs": [
        {
          "internalType": "uint256",
          "name": "",
          "type": "uint256"
        }
      ],
      "name": "zkVerifierKeys",
      "outputs": [
        {
          "internalType": "bytes32",
          "name": "",
          "type": "bytes32"
        }
      ],
      "stateMutability": "view",
      "type": "function"
    },
    {
      "inputs": [
        {
          "internalType": "bytes32",
          "name": "",
          "type": "bytes32"
        }
      ],
      "name": "zkVerifiers",
      "outputs": [
        {
          "internalType": "contract IVerifier",
          "name": "verifier",
          "type": "address"
        },
        {
          "internalType": "uint32",
          "name": "messages_length",
          "type": "uint32"
        },
        {
          "internalType": "bool",
          "name": "enabled",
          "type": "bool"
        }
      ],
      "stateMutability": "view",
      "type": "function"
    }
  ],
  "bytecode": "0x6080806040523460aa575f516020615a235f395f51905f525460ff8160401c16609b576002600160401b03196001600160401b038216016049575b60405161597490816100af8239f35b6001600160401b0319166001600160401b039081175f516020615a235f395f51905f525581527fc7f505b2f371ae2175ee4913f4499e1f2633a7b5936321eed1cdaeb6115181d290602090a15f80603a565b63f92ee8a960e01b5f5260045ffd5b5f80fdfe6080806040526004361015610012575f80fd5b5f905f3560e01c90816304f8356a14612bee575080630d647a9a14612b905780630f206b3614612b735780631154a4bd14612b565780631776397914612af45780631d49e45714612a935780631d80009a14611f8f57806326e31a94146129385780632a2bc73a146129065780632fefa84a146128dc5780633644e5151461283557806339b7933d146127fb57806347a8d0dd146127595780634b38474d146127315780634bf2c7c9146126cc5780634eeb381e1461257757806356dc63cb146125315780635d5fa0d1146124d1578063696c6b1b146121fc5780636b2bd2ec146121c4578063715018a61461215d57806386d6b901146120db5780638da5cb5b146120a75780639776aacf146120485780639a2d1dbe1461202b578063a2ce9c1f14611fac578063a91eebf514611f8f578063ab1c290114611d5d578063b2142b5014611d1c578063b571d3dd14611c64578063b72e88cb14611c20578063b7c8b78a14611b58578063b8cdbd2714611672578063bb254e7a14611659578063c12255c414611631578063c1b15359146115ff578063c34975bb146115b1578063d33219b414611589578063d5ca613314611528578063d82cbdd914611393578063da62e0641461131c578063e6d08b9a146112f8578063e7708fac14610a21578063e795594d14610693578063eb4a5af51461066c578063ef0feff91461048b578063f037df65146103de578063f216bb35146103c0578063f2fde38b14610393578063f44ff71214610375578063f9038cf3146102ae578063fc0c546a146102855763fce589d814610265575f80fd5b346102825780600319360112610282576020601354604051908152f35b80fd5b50346102825780600319360112610282576002546040516001600160a01b039091168152602090f35b5034610282576102eb6102f96102c336612c66565b6040949293919451928391866020840196876040919493926060820195825260208201520152565b03601f198101835282612cfe565b51902090600181018091116103615760609250604051602081019182528260408201526040815261032a8482612cfe565b519020610335612d1f565b60405161034b816102eb85602083019586612d44565b5190209060405192835260208301526040820152f35b634e487b7160e01b83526011600452602483fd5b50346102825780600319360112610282576020600354604051908152f35b5034610282576020366003190112610282576103bd6103b0612c08565b6103b861327d565b613250565b80f35b50346102825780600319360112610282576020601254604051908152f35b5034610282576020366003190112610282576004356103fb61327d565b610406811515613136565b600f548111610447577fa3c20537e58f46ff34f7c42acaf849db084d7660772071f83a7e6699caa143ed6040600e548151908152836020820152a1600e5580f35b606460405162461bcd60e51b815260206004820152602060248201527f526f6c6c757056313a207065722d6d696e7420636170203e2054564c206361706044820152fd5b503461028257602036600319011261028257600a546004356104ad8183612e1c565b916104b783613209565b926104c56040519485612cfe565b8084526104d4601f1991613209565b01845b818110610648575050815b81811061059c578385604051918291602083016020845282518091526040840191602060408360051b870101940192815b8383106105205786860387f35b919395509193603f19878203018352855190604081019180519260408352835180915260206060840194019085905b80821061057a5750505060019260209283808094015191015297019301930190928695949293610513565b82516001600160a01b031686526020958601959092019160019091019061054f565b60016105a782613220565b500160026105b483613220565b500154604051916105c483612ce3565b6040519081602082549182815201918a5260208a20908a905b8082106106265750505091816105fc600196959361061f950382612cfe565b8252602082015261060d8684612e1c565b90610618828961323c565b528661323c565b50016104e2565b82546001600160a01b03168452602090930192600192830192909101906105dd565b60209060405161065781612ce3565b606081528783820152828288010152016104d7565b503461028257602036600319011261028257602061068b6004356131f5565b604051908152f35b5034610282576040366003190112610282576004356024356001600160401b038111610a1d576106c7903690600401612c98565b6106d292919261327d565b600a5492831580156109fc575b1561097d5782158015610953575b156108e857600160401b8410156108d4576001840180600a5561070f85613220565b505084116108c05782600261072386613220565b500155600161073185613220565b50016001600160401b0383116108ac57600160401b83116108ac578054838255808410610886575b5085526020852081865b84811061086b57505050845b8281106107aa57857ffd204c7043da2bcc4dc261ed00edac3bb5e2b8c5c60c7535c4d17144759fc7326040878782519182526020820152a180f35b6107b385613220565b506107c76107c283868661300e565b613191565b60018060a01b03165f5260205260ff60405f20541661081b576001906107ec86613220565b506107fb6107c283878761300e565b838060a01b03165f5260205260405f208260ff198254161790550161076f565b60405162461bcd60e51b815260206004820152602260248201527f526f6c6c757056313a2056616c696461746f7220616c72656164792065786973604482015261747360f01b6064820152608490fd5b600190602061087984613191565b9301928185015501610763565b818752836020882091820191015b8181106108a15750610759565b878155600101610894565b634e487b7160e01b86526041600452602486fd5b634e487b7160e01b85526011600452602485fd5b634e487b7160e01b85526041600452602485fd5b60405162461bcd60e51b815260206004820152603d60248201527f526f6c6c757056313a2076616c696446726f6d2063616e6e6f74206265206d6f60448201527f7265207468616e203330206461797320696e20746865206675747572650000006064820152608490fd5b5062278d004301804311610969578311156106ed565b634e487b7160e01b86526011600452602486fd5b60405162461bcd60e51b815260206004820152604b60248201527f526f6c6c757056313a204e65772076616c696461746f7220736574206d75737460448201527f206861766520612076616c696446726f6d2067726561746572207468616e207460648201526a1a19481b185cdd081cd95d60aa1b608482015260a490fd5b505f198401848111610969576002610a148592613220565b500154106106df565b8280fd5b34611024576101e036600319011261102457610a3b612c08565b610a43612c1e565b604435906001600160a01b038216820361102457606435926001600160a01b038416840361102457608435906001600160a01b03821682036110245760a4356001600160401b03811161102457610a9e903690600401612c98565b909490936101643591906001600160a01b0383168303611024576101a4356001600160401b03811161102457610ad8903690600401612c98565b9490976001600160401b036101c4351161102457610afc366101c435600401612c98565b9890975f5160206158ff5f395f51905f52549b8c6001600160401b038116801591826112e9575b5060011490816112df575b1590816112d6575b506112c75760018d6001600160401b031916175f5160206158ff5f395f51905f525560ff8d60401c161561129b575b610b796001600160a01b03891615156130ca565b610b8e651b48eb57e000610144351115612f76565b610ba062093a80610124351015612d69565b610bad60e4351515613136565b610bbe60e435610104351015613036565b610e10610184351061124b5788156111f5578a1561119f575f5f5b8d8b80831061116d575b5050501561110e57610bf3613a00565b610bfb613a00565b610c0485613250565b610c0c613a00565b610c14613a00565b60015f5160206158df5f395f51905f5255600280546001600160a01b0319166001600160a01b038981169190911790915560c4355f818152602081905260409020805460ff60c01b196001600160c01b03199091169490931693909317600f60a11b1791909116600160c01b17909155610c8d90613081565b6001600160a01b03165f90815260096020526040902060019055600a5491821580156110f1575b1561097d57600160401b831015610fe6576001830180600a55610cd684613220565b505083116110dd575f6002610cea85613220565b5001556001610cf884613220565b50016001600160401b038311610fe657600160401b8311610fe65780548382558084106110b7575b5081905f5260205f20905f5b84811061109c575050505f5b8281106110305750505060407ffd204c7043da2bcc4dc261ed00edac3bb5e2b8c5c60c7535c4d17144759fc7329181519081525f6020820152a1600454927f0577b5b4aa3eaba75b2a919d5d7c63b7258aa507d38e346bf2ff1d48790379ff6004557f0577b5b4aa3eaba75b2a919d5d7c63b7258aa507d38e346bf2ff1d48790379ff604051947f2c5e454ab10a3bb8f13831cd35da5f0dbef2c5ac1c80c171157ab07519e097485f80a37f154dc6546aae50b4d3772d636c3f1949122dcebaeda2ba647059f85ff99f1cc880546001600160a01b03199081166001600160a01b03938416179091559181165f908152600c60209081526040909120805460ff19166001179055600d80549093169382169390931790915560e435600e5561010435600f556002546370a0823160e01b845230600485015283916024918391165afa908115610fdb575f91610ffa575b5060105542601155610124356012556101443560135560018060a01b03166bffffffffffffffffffffffff60a01b601454161760145560405193611a6391828601938685106001600160401b03861117610fe6578695610f06606094610f14945f97613e3c8b39610184358952608060208a015260808901916131a5565b9186830360408801526131a5565b92015203905ff0908115610fdb57601580546001600160a01b0319166001600160a01b03909316928317905560ff91610f4c81613474565b7fc2c0e9bcd0f08d90b5fc52b12cf2ef17f5ee2cf6fa763f8097fe98fa446ad4826020604051610184358152a260401c1615610f8457005b68ff0000000000000000195f5160206158ff5f395f51905f5254165f5160206158ff5f395f51905f52557fc7f505b2f371ae2175ee4913f4499e1f2633a7b5936321eed1cdaeb6115181d2602060405160018152a1005b6040513d5f823e3d90fd5b634e487b7160e01b5f52604160045260245ffd5b90506020813d602011611028575b8161101560209383612cfe565b81010312611024575187610e88565b5f80fd5b3d9150611008565b61103984613220565b506110486107c283868661300e565b60018060a01b03165f5260205260ff60405f20541661081b5760019061106d85613220565b5061107c6107c283878761300e565b838060a01b03165f5260205260405f208260ff1982541617905501610d38565b60019060206110aa84613191565b9301928185015501610d2c565b815f528360205f2091820191015b8181106110d25750610d20565b5f81556001016110c5565b634e487b7160e01b5f52601160045260245ffd5b505f1983018381116110dd5761110690613220565b50505f610cb4565b60405162461bcd60e51b815260206004820152603160248201527f526f6c6c757056313a206174206c65617374206f6e65206e6f6e2d7a65726f206044820152701c1c9bdc1bdcd95c881c995c5d5a5c9959607a1b6064820152608490fd5b6001600160a01b0391611186916107c29185919061300e565b1661119357600101610bd9565b505060018e8d8b610be3565b60405162461bcd60e51b815260206004820152602860248201527f526f6c6c757056313a206174206c65617374206f6e65206578656375746f72206044820152671c995c5d5a5c995960c21b6064820152608490fd5b60405162461bcd60e51b815260206004820152602860248201527f526f6c6c757056313a206174206c65617374206f6e652070726f706f736572206044820152671c995c5d5a5c995960c21b6064820152608490fd5b60405162461bcd60e51b815260206004820152602260248201527f526f6c6c757056313a2074696d656c6f636b2064656c617920746f6f2073686f6044820152611c9d60f21b6064820152608490fd5b68ffffffffffffffffff198d1668010000000000000001175f5160206158ff5f395f51905f5255610b65565b63f92ee8a960e01b5f5260045ffd5b9050158e610b36565b303b159150610b2e565b60401c60ff161591508e610b23565b34611024575f366003190112611024576020611312613116565b6040519015158152f35b3461102457602036600319011261102457611335612c08565b61133d61327d565b6001600160a01b03166113518115156130ca565b601454816001600160a01b0382167fd2c89dc18af3829a467632c4de973dc58d66903065a6b1da5f637220252662dd5f80a36001600160a01b03191617601455005b34611024576060366003190112611024576004356113af612c1e565b906044359063ffffffff8216808303611024576113ca61327d565b6001600160a01b0384169384156114d5573b15611480577fdb2a4be964bb3f5ba0504bccdbceaa478be8d73af2238cd9be0ba0c8efc107ca93606093835f525f60205260ff60405f205460c01c1615611472575b5f848152602081815260409182902080546001600160c81b0319166001600160a01b0386161760a09490941b63ffffffff60a01b1693909317600160c01b17909255805194855290840191909152820152a1005b61147b84613081565b61141e565b60405162461bcd60e51b815260206004820152602760248201527f526f6c6c757056313a205a4b207665726966696572206973206e6f74206120636044820152661bdb9d1c9858dd60ca1b6064820152608490fd5b60405162461bcd60e51b815260206004820152602560248201527f526f6c6c757056313a20496e76616c6964207a6b207665726966696572206164604482015264647265737360d81b6064820152608490fd5b346110245760203660031901126110245760043561154461327d565b611552600e54821015613036565b7f10a80e6a44228544fe36e02fc050cfef88c3469748d215afde5917717cd8afcd6040600f548151908152836020820152a1600f55005b34611024575f366003190112611024576015546040516001600160a01b039091168152602090f35b34611024576020366003190112611024576004355f525f602052606060405f205460ff6040519160018060a01b038116835263ffffffff8160a01c16602084015260c01c1615156040820152f35b34611024576020366003190112611024576004355f526006602052602060018060a01b0360405f205416604051908152f35b34611024575f36600319011261102457600d546040516001600160a01b039091168152602090f35b3461102457602061068b61166c36612c66565b9161373a565b346110245760c0366003190112611024576004356024356044356001600160401b03811161102457366023820112156110245780600401356001600160401b038111611024573660248284010111611024576064356001600160401b038111611024576116e3903690600401612c98565b909160a435946001600160401b0386116110245736602387011215611024578560040135956001600160401b03871161102457366024606089028301011161102457335f526009602052600160405f2054148015611b4a575b15611af357611749613388565b815f525f60205260ff60405f205460c01c1615611aa457815f525f602052600363ffffffff60405f205460a01c160163ffffffff81116110dd5763ffffffff168403611a51578315611a3d578360011015611a3d576020850135968460021015611a3d576004548635036119e85760246117c892016084358a8a6134c8565b805f525f60205263ffffffff60405f205460a01c16600390600301806003116110dd57905b8885878484106119da5750505050505f525f60205260018060a01b0360405f2054169080602460405196633a94343960e21b8852604060048901528260448901520160648701375f60648287010152601f801991011684019160031960648685030101602486015280606484015260018060fb1b03811161102457602085606482968296839560051b8092608483013701010301915afa908115610fdb575f916119ab575b501561195757806004556003548211156118ec5760207f401f796450733fd22827ddc018ca37051459a8035c4026f533c294797bb8a49e918360035542601155604051908152a260015f5160206158df5f395f51905f5255005b60405162461bcd60e51b815260206004820152603760248201527f526f6c6c757056313a204e657720626c6f636b20686569676874206d7573742060448201527f62652067726561746572207468616e2063757272656e740000000000000000006064820152608490fd5b60405162461bcd60e51b815260206004820152602660248201527f526f6c6c757056313a205a4b2070726f6f6620766572696669636174696f6e2060448201526519985a5b195960d21b6064820152608490fd5b6119cd915060203d6020116119d3575b6119c58183612cfe565b81019061301e565b83611892565b503d6119bb565b6119e3936137b2565b6117ed565b60405162461bcd60e51b815260206004820152602760248201527f526f6c6c757056313a20526f6f74206861736820766572696669636174696f6e6044820152660819985a5b195960ca1b6064820152608490fd5b634e487b7160e01b5f52603260045260245ffd5b60405162461bcd60e51b815260206004820152602560248201527f526f6c6c757056313a20496e76616c6964207075626c6963496e70757473206c6044820152640cadccee8d60db1b6064820152608490fd5b60405162461bcd60e51b815260206004820152602160248201527f526f6c6c757056313a205a4b207665726966696572206e6f7420616c6c6f77656044820152601960fa1b6064820152608490fd5b60405162461bcd60e51b815260206004820152602960248201527f526f6c6c757056313a206e6f742070726f76657220616e642070726f76696e67604482015268103737ba1037b832b760b91b6064820152608490fd5b50611b53613116565b61173c565b3461102457602036600319011261102457611b71612c08565b611b7961327d565b6001600160a01b03168015611bca57600d54816001600160a01b0382167f638c992bef3bdf51b5538654d5e489845fbc448ce25fe56e9a6db425bc94234b5f80a36001600160a01b03191617600d55005b60405162461bcd60e51b815260206004820152602860248201527f526f6c6c757056313a20496e76616c696420657363726f77206d616e61676572604482015267206164647265737360c01b6064820152608490fd5b3461102457602036600319011261102457611c39612c08565b611c4161327d565b6001600160a01b03165f908152600c60205260409020805460ff19166001179055005b3461102457602036600319011261102457611c7d612c08565b611c8561327d565b6001600160a01b03165f818152600960205260409020545f1901611cd757805f5260096020525f60408120557fd64d11086d859b73cf85a91ca06cbc484398acabe3d9a1b26d4366dff377d9855f80a2005b60405162461bcd60e51b815260206004820152601760248201527f41646472657373206973206e6f7420612070726f7665720000000000000000006044820152606490fd5b3461102457602036600319011261102457611d35612c08565b611d3d61327d565b6001600160a01b03165f908152600c60205260409020805460ff19169055005b3461102457611d6b36612c34565b9392919091335f52600c602052600160ff60405f205416151503611f3957611d9685848387866132b0565b5f818152600660205260409020549095906001600160a01b0316611ee9576003541015611e93575f526008602052611e05611df260018060a01b0360405f20541693611de3851515612f1a565b611dec816131f5565b90612e1c565b611dfe813033876132f1565b84846133c0565b6040805160018152911580156020840152946001600160a01b031693915f51602061589f5f395f51905f529190a4611e56575f90815260066020526040902080546001600160a01b03191633179055005b60405162461bcd60e51b8152602060048201526015602482015274149bdb1b1d5c158c4e88109d5c9b8819985a5b1959605a1b6044820152606490fd5b60405162461bcd60e51b815260206004820152602860248201527f526f6c6c757056313a20426c6f636b2068656967687420616c7265616479207260448201526706f6c6c65642075760c41b6064820152608490fd5b60405162461bcd60e51b815260206004820152602260248201527f526f6c6c757056313a204275726e20616c726561647920737562737469747574604482015261195960f21b6064820152608490fd5b60405162461bcd60e51b815260206004820152602860248201527f526f6c6c757056313a20596f7520617265206e6f742061206275726e2073756260448201526739ba34ba3aba37b960c11b6064820152608490fd5b34611024575f366003190112611024576020600454604051908152f35b34611024576020366003190112611024575f60408051611fcb81612cc8565b82815282602082015201526004355f526005602052606060405f20604051611ff281612cc8565b815491828252604060ff600260018401549360208601948552015416920191151582526040519283525160208301525115156040820152f35b34611024575f366003190112611024576020600f54604051908152f35b3461102457604036600319011261102457612061612c1e565b5060405162461bcd60e51b815260206004820152601b60248201527f526f6c6c757056313a20616464546f6b656e2064697361626c656400000000006044820152606490fd5b34611024575f366003190112611024575f5160206158bf5f395f51905f52546040516001600160a01b039091168152602090f35b34611024576040366003190112611024576120f4612c08565b6024359061210d60018060a01b03600d54163314612e29565b5f82815260066020526040812080546001600160a01b0319166001600160a01b039390931692831790557f242fe9a0f8ea86b0e5b10b2571a8863f74640585e6765a5a27e04119e85617369080a3005b34611024575f3660031901126110245761217561327d565b5f5160206158bf5f395f51905f5280546001600160a01b031981169091555f906001600160a01b03167f8be0079c531659141344cd1fd0a4f28419497f9722a3daafe3b4186f6b6457e08280a3005b3461102457602036600319011261102457600435600154811015611024576121ed602091612c80565b90549060031b1c604051908152f35b346110245760a036600319011261102457600435612218612c1e565b60443560643591612227613388565b612236608435848484886132b0565b92835f52600760205260405f205490811561248d575f858152600660205260409020546001600160a01b031680158015938491612483575b501561243e577f54cea33cdd002bb20cf77f1ba4808fa0ea58fb215b3d32b279c334961340bd4a94865f5260076020525f60408120555f52600860205260018060a01b0360405f205416906122c4821515612fc2565b6122cd836131f5565b906122d88285612e1c565b9585156124365750945b6122ed8187856133c0565b60408051871515815282151560208201526001600160a01b03989098169a91978b929186915f51602061589f5f395f51905f529190a485612352575b505060408051931515845293151560208401525050a360015f5160206158df5f395f51905f5255005b9281612389575b50506010548211905061237f5761237290601054612e1c565b6010555b85808080612329565b505f601055612376565b601454929391929091906001600160a01b0316801561241457836123ad91866133c0565b156123f35750917fbf6afbaffb3b955bebbf43430bbf8eecb8d34ff86f293f592203ab5ed79c5268602060018060a01b036014541693604051908152a35b868080612359565b92915f51602061591f5f395f51905f529150602090604051908152a26123eb565b5092915f51602061591f5f395f51905f529150602090604051908152a26123eb565b9050946122e2565b60405162461bcd60e51b815260206004820152601760248201527f526f6c6c757056313a207374696c6c20636f6f6c696e670000000000000000006044820152606490fd5b905042118861226e565b606460405162461bcd60e51b815260206004820152602060248201527f526f6c6c757056313a206e6f7420612071756575656420736c6f77206275726e6044820152fd5b34611024576020366003190112611024576040600435805f525f60205261250060ff835f205460c01c16612dc4565b5f9081526020818152908290205482516001600160a01b038216815260a09190911c63ffffffff1691810191909152f35b34611024576020366003190112611024576004355f526005602052606060405f2080549060ff600260018301549201541690604051928352602083015215156040820152f35b3461102457606036600319011261102457600435602435604435825f526005602052600160405f200154612687577fc4adcac6a89d730f3a6da5d846bba3d858a8fc5884e0f80940a3a3b96a4ae6f1916040916125d8600e54831115612e75565b6125fb826010546125f66125ec8383612ec1565b600f541015612ece565b612ec1565b6010555f81815260086020528390205461262e9083906001600160a01b0316612625811515612f1a565b309033906132f1565b61267a835161263c81612cc8565b828152600260208201858152868301905f8252895f526005602052875f209351845551600184015551151591019060ff801983541691151516179055565b82519182526020820152a2005b60405162461bcd60e51b815260206004820152601d60248201527f526f6c6c757056313a204d696e7420616c7265616479206578697374730000006044820152606490fd5b34611024576020366003190112611024576004356126e861327d565b6126fa651b48eb57e000821115612f76565b7f78f1461296bad7bd716a7673aa3e659cc091c348a7ed4cfef7ce452c3052f2fb60406013548151908152836020820152a1601355005b34611024575f366003190112611024576014546040516001600160a01b039091168152602090f35b346110245761276736612c66565b61277c60018060a01b03600d54163314612e29565b825f526005602052600160405f200154612687577fc4adcac6a89d730f3a6da5d846bba3d858a8fc5884e0f80940a3a3b96a4ae6f1916040916127c3600e54831115612e75565b6127d7826010546125f66125ec8383612ec1565b6010555f81815260086020528390205461262e906001600160a01b03161515612f1a565b346110245761281561280c36612c34565b939092916132b0565b5f526006602052602060018060a01b0360405f2054161515604051908152f35b34611024575f366003190112611024576020604060068282516128588482612cfe565b82815201650526f6c6c75760d41b81522060018383516128788582612cfe565b82815201603160f81b815220825190848201927f8b73c3c69bb8fe3d512ecc4cf759cc79239f7b179b0ffacaa9a75d522b39400f84528483015260608201524660808201523060a082015260a081526128d260c082612cfe565b5190209051908152f35b34611024576020366003190112611024576004355f526007602052602060405f2054604051908152f35b34611024576020366003190112611024576004355f526008602052602060018060a01b0360405f205416604051908152f35b346110245760203660031901126110245760043561295461327d565b805f525f60205261296e60ff60405f205460c01c16612dc4565b5f8181526020819052604081208054908290556001546001600160a01b0390911692915b8181106129cc575b7fa67e94ae6f2b34c76ff45db881989225caa876cbe2d8215c01650a104557573d6040848682519182526020820152a1005b826129d682612c80565b90549060031b1c146129ea57600101612992565b905f1981019081116110dd57612a12612a05612a2892612c80565b90549060031b1c92612c80565b819391549060031b91821b915f19901b19161790565b9055600154908115612a7f577fa67e94ae6f2b34c76ff45db881989225caa876cbe2d8215c01650a104557573d926040925f1901612a6581612c80565b8154905f199060031b1b191690556001559281925061299a565b634e487b7160e01b5f52603160045260245ffd5b3461102457602036600319011261102457612aac612c08565b612ab461327d565b6001600160a01b03165f818152600960205260408120600190557fef1fa0a4d797341645c201a742cf59be633da0589e0e3cda511cfc90cd0396849080a2005b3461102457602036600319011261102457600435612b1061327d565b612b1f62093a80821015612d69565b7fdc2bba7eb956eae04fa7b853471d3c3742300dd7cebe71b23aa194dedebbb07160406012548151908152836020820152a1601255005b34611024575f366003190112611024576020600e54604051908152f35b34611024575f366003190112611024576020601054604051908152f35b3461102457602036600319011261102457612ba9612d1f565b60408051612bc3816102eb60208201956004359087612d44565b8151928391602083525180918160208501528484015e5f828201840152601f01601f19168101030190f35b34611024575f366003190112611024576020906011548152f35b600435906001600160a01b038216820361102457565b602435906001600160a01b038216820361102457565b60a0906003190112611024576004356001600160a01b0381168103611024579060243590604435906064359060843590565b606090600319011261102457600435906024359060443590565b600154811015611a3d5760015f5260205f2001905f90565b9181601f84011215611024578235916001600160401b038311611024576020808501948460051b01011161102457565b606081019081106001600160401b03821117610fe657604052565b604081019081106001600160401b03821117610fe657604052565b90601f801991011681019081106001600160401b03821117610fe657604052565b60405190612d2e604083612cfe565b60078252664369706865726160c81b6020830152565b600760c01b81528151602893929091908290602001600883015e019060088201520190565b15612d7057565b60405162461bcd60e51b815260206004820152602660248201527f526f6c6c757056313a206f70656e2070726f76696e672064656c617920746f6f604482015265081cda1bdc9d60d21b6064820152608490fd5b15612dcb57565b60405162461bcd60e51b8152602060048201526024808201527f526f6c6c757056313a205a4b20766572696669657220646f6573206e6f7420656044820152631e1a5cdd60e21b6064820152608490fd5b919082039182116110dd57565b15612e3057565b60405162461bcd60e51b815260206004820152601d60248201527f526f6c6c757056313a204f6e6c7920657363726f77206d616e616765720000006044820152606490fd5b15612e7c57565b60405162461bcd60e51b815260206004820152601e60248201527f526f6c6c757056313a2065786365656473207065722d6d696e742063617000006044820152606490fd5b919082018092116110dd57565b15612ed557565b60405162461bcd60e51b815260206004820152601960248201527f526f6c6c757056313a2054564c206361702072656163686564000000000000006044820152606490fd5b15612f2157565b60405162461bcd60e51b815260206004820152602760248201527f526f6c6c757056313a20546f6b656e206e6f7420666f756e6420666f72206e6f6044820152661d19481ada5b9960ca1b6064820152608490fd5b15612f7d57565b60405162461bcd60e51b815260206004820152601b60248201527f526f6c6c757056313a206275726e2066656520746f6f206869676800000000006044820152606490fd5b15612fc957565b60405162461bcd60e51b815260206004820152601b60248201527f526f6c6c757056313a20556e737570706f7274656420746f6b656e00000000006044820152606490fd5b9190811015611a3d5760051b0190565b90816020910312611024575180151581036110245790565b1561303d57565b606460405162461bcd60e51b815260206004820152602060248201527f526f6c6c757056313a2054564c20636170203c207065722d6d696e74206361706044820152fd5b600154600160401b811015610fe65760018101600155600154811015611a3d5760015f527fb10e2d527612073b26eecdfd717e6a320cf44b4afac2b0732d9fcbe2b7fa0cf60155565b156130d157565b60405162461bcd60e51b815260206004820152601a60248201527f526f6c6c757056313a20696e76616c6964206665652073696e6b0000000000006044820152606490fd5b60125480156131315761312b90601154612ec1565b42101590565b505f90565b1561313d57565b60405162461bcd60e51b815260206004820152602660248201527f526f6c6c757056313a207065722d6d696e7420636170206d757374206265206e6044820152656f6e7a65726f60d01b6064820152608490fd5b356001600160a01b03811681036110245790565b916020908281520191905f905b8082106131bf5750505090565b91929091908335906001600160a01b0382168203611024576001600160a01b0390911681526020908101930191600101906131b2565b60135481811115613204575090565b905090565b6001600160401b038111610fe65760051b60200190565b600a54811015611a3d57600a5f52600360205f20910201905f90565b8051821015611a3d5760209160051b010190565b6001600160a01b0381161561326a5761326890613474565b565b631e4fbdf760e01b5f525f60045260245ffd5b5f5160206158bf5f395f51905f52546001600160a01b0316330361329d57565b63118cdaa760e01b5f523360045260245ffd5b9391929092604051936020850195865260018060a01b031660408501526060840152608083015260a082015260a081526132eb60c082612cfe565b51902090565b6040516323b872dd60e01b60208083019182526001600160a01b039485166024840152949093166044820152606480820195909552938452925f9190613338608482612cfe565b519082855af115610fdb575f513d61337f57506001600160a01b0381163b155b61335f5750565b635274afe760e01b5f9081526001600160a01b0391909116600452602490fd5b60011415613358565b60025f5160206158df5f395f51905f5254146133b15760025f5160206158df5f395f51905f5255565b633ee5aeb560e01b5f5260045ffd5b5f929183809360405190602082019363a9059cbb60e01b855260018060a01b031660248301526044820152604481526133fa606482612cfe565b51925af13d1561346c573d906001600160401b038211610fe6576040519161342c601f8201601f191660200184612cfe565b82523d5f602084013e5b15613131578051908161344b575b5050600190565b60208061345c93830101910161301e565b15613468575f80613444565b5f90565b606090613436565b5f5160206158bf5f395f51905f5280546001600160a01b039283166001600160a01b0319821681179092559091167f8be0079c531659141344cd1fd0a4f28419497f9722a3daafe3b4186f6b6457e05f80a3565b94919392946134d5613116565b61373257600b54600181018091116110dd575b600a54811015613728578260026134fe83613220565b500154116135135780600191600b55016134e8565b50909192935b613524600b54613220565b509285156136e35760018401548060011b90808204600214901517156110dd5760039004600181018091116110dd578610613678576135629261373a565b935f92835b8585101561366f5761359b9061359260608702850160208101359060ff60408235920135168b613a2b565b90939193613aad565b60018060a01b0382165f5284602052600160ff60405f20541615150361361e576001600160a01b0390811690821611156135da57600190940193613567565b606460405162461bcd60e51b815260206004820152602060248201527f526f6c6c757056313a205369676e65727320617265206e6f7420736f727465646044820152fd5b60405162461bcd60e51b815260206004820152602360248201527f526f6c6c757056313a205369676e6572206973206e6f7420612076616c6964616044820152623a37b960e91b6064820152608490fd5b50945050505050565b60405162461bcd60e51b815260206004820152603f60248201527f526f6c6c757056313a204e6f7420656e6f756768207369676e6174757265732060448201527f66726f6d2076616c696461746f727320746f2076657269667920626c6f636b006064820152608490fd5b60405162461bcd60e51b815260206004820152601760248201527f526f6c6c757056313a204e6f207369676e6174757265730000000000000000006044820152606490fd5b5090919293613519565b505092505050565b60408051602081019283529081018390526060810193909352909161376281608081016102eb565b519020600182018092116110dd57604051906020820192835260408201526040815261378f606082612cfe565b5190206102eb6132eb6137a0612d1f565b92604051928391602083019586612d44565b929190916137c184838561300e565b35806137d95750505050600181018091116110dd5790565b6002810361398f575050600183018084116110dd576137f990828461300e565b3591600284018085116110dd5761381190838361300e565b359160038501908186116110dd576138289261300e565b3591825f52600560205281600160405f2001540361394a57825f5260056020528060405f20540361390657825f52600560205260ff600260405f200154166138c1577f948ecd827e77afeeebdc95f4d34a294c53d7e28501dcd56c8d89e88e61b53a5091604091845f5260056020526002835f2001600160ff1982541617905582519182526020820152a2600481018091116110dd5790565b60405162461bcd60e51b815260206004820152601c60248201527f526f6c6c757056313a204d696e7420616c7265616479207370656e74000000006044820152606490fd5b606460405162461bcd60e51b815260206004820152602060248201527f526f6c6c757056313a204d696e74206e6f7465206b696e6420696e76616c69646044820152fd5b60405162461bcd60e51b815260206004820152601c60248201527f526f6c6c757056313a204d696e742076616c756520696e76616c6964000000006044820152606490fd5b600381949294149081156139f5575b50156139b0576139ad93613b21565b90565b60405162461bcd60e51b815260206004820152601e60248201527f526f6c6c757056313a20496e76616c6964206d657373616765206b696e6400006044820152606490fd5b60049150145f61399e565b60ff5f5160206158ff5f395f51905f525460401c1615613a1c57565b631afcd79f60e31b5f5260045ffd5b91907f7fffffffffffffffffffffffffffffff5d576e7357a4501ddfe92f46681b20a08411613aa2579160209360809260ff5f9560405194855216868401526040830152606082015282805260015afa15610fdb575f516001600160a01b03811615613a9857905f905f90565b505f906001905f90565b5050505f9160039190565b6004811015613b0d5780613abf575050565b60018103613ad65763f645eedf60e01b5f5260045ffd5b60028103613af1575063fce698f760e01b5f5260045260245ffd5b600314613afb5750565b6335e2f38360e21b5f5260045260245ffd5b634e487b7160e01b5f52602160045260245ffd5b9290613b2e84848361300e565b3591600185018086116110dd57613b4690858461300e565b3592600286018087116110dd57613b5e90868561300e565b3594600387018088116110dd57613b7690828661300e565b359360048801908189116110dd57600492613bca926001600160a01b0392613b9e929061300e565b351693865f5260086020528760018060a01b0360405f20541697613bc3891515612fc2565b86886132b0565b9114613d7d575f908152600660205260409020546001600160a01b031691613bf1856131f5565b92613bfc8487612e1c565b928115613d3b5750613c0f8382876133c0565b91855f51602061589f5f395f51905f5260405180613c3c8782919091602060408201935f83521515910152565b0390a45b613c57575b50505050600581018091116110dd5790565b9281613c8e575b505060105482119050613c8457613c7790601054612e1c565b6010555b5f808080613c45565b505f601055613c7b565b601454929391929091906001600160a01b03168015613d195783613cb291866133c0565b15613cf85750917fbf6afbaffb3b955bebbf43430bbf8eecb8d34ff86f293f592203ab5ed79c5268602060018060a01b036014541693604051908152a35b5f8080613c5e565b92915f51602061591f5f395f51905f529150602090604051908152a2613cf0565b5092915f51602061591f5f395f51905f529150602090604051908152a2613cf0565b9050613d488382876133c0565b91855f51602061589f5f395f51905f5260405180613d758782919091602060408201935f83521515910152565b0390a4613c40565b809293505f94919452600760205260405f2054613deb5761038442018042116110dd577fa0d60efcc59267d7ea11049132035a8734ecbe51f8b422ac551728a4ad6d256c91604091845f52600760205280835f205582519182526020820152a4600581018091116110dd5790565b60405162461bcd60e51b815260206004820152602260248201527f526f6c6c757056313a20736c6f77206275726e20616c72656164792071756575604482015261195960f21b6064820152608490fdfe60806040523461016657611a63803803806100198161016a565b92833981019060808183031261016657805160208201519091906001600160401b038111610166578361004d9183016101b7565b604082015190936001600160401b0382116101665761007360609161007a9385016101b7565b92016101a3565b61008330610249565b506001600160a01b038116610156575b505f5b83518110156100e0576001906100be6001600160a01b036100b78388610221565b51166102bf565b506100d9828060a01b036100d28388610221565b5116610352565b5001610096565b50905f5b82518110156101135760019061010c6001600160a01b036101058387610221565b51166103e5565b50016100e4565b7f11c24f4ead16507c69ac467fbd5e4eed5fb5c699626d2cc6d66421df253886d5604083806002558151905f82526020820152a160405161154a90816104798239f35b61015f90610249565b505f610093565b5f80fd5b6040519190601f01601f191682016001600160401b0381118382101761018f57604052565b634e487b7160e01b5f52604160045260245ffd5b51906001600160a01b038216820361016657565b9080601f83011215610166578151916001600160401b03831161018f578260051b906020806101e781850161016a565b80968152019282010192831161016657602001905b8282106102095750505090565b60208091610216846101a3565b8152019101906101fc565b80518210156102355760209160051b010190565b634e487b7160e01b5f52603260045260245ffd5b6001600160a01b0381165f9081525f516020611a435f395f51905f52602052604090205460ff166102ba576001600160a01b03165f8181525f516020611a435f395f51905f5260205260408120805460ff191660011790553391905f5160206119c35f395f51905f528180a4600190565b505f90565b6001600160a01b0381165f9081525f5160206119e35f395f51905f52602052604090205460ff166102ba576001600160a01b03165f8181525f5160206119e35f395f51905f5260205260408120805460ff191660011790553391907fb09aa5aeb3702cfd50b6b62bc4532604938f21248a27a1d5ca736082b6819cc1905f5160206119c35f395f51905f529080a4600190565b6001600160a01b0381165f9081525f516020611a235f395f51905f52602052604090205460ff166102ba576001600160a01b03165f8181525f516020611a235f395f51905f5260205260408120805460ff191660011790553391907ffd643c72710c63c0180259aba6b2d05451e3591a24e58b62239378085726f783905f5160206119c35f395f51905f529080a4600190565b6001600160a01b0381165f9081525f516020611a035f395f51905f52602052604090205460ff166102ba576001600160a01b03165f8181525f516020611a035f395f51905f5260205260408120805460ff191660011790553391907fd8aa0f3194971a2a116679f7c2090f6939c8d4e01a2a8d7e41d55e5351469e63905f5160206119c35f395f51905f529080a460019056fe6080604052600436101561001a575b3615610018575f80fd5b005b5f3560e01c806301d5062a14610b2057806301ffc9a714610ab057806307bd026514610a76578063134008d3146109c357806313bc9f20146109a5578063150b7a0214610950578063248a9ca3146109265780632ab0f529146109085780632f2ff15d146108cb57806331d50750146108ad57806336568abe14610869578063584b153e1461084157806364d62353146107dc5780637958004c146107995780638065657f1461077a5780638f2a0bb0146105f55780638f61f4f5146105bb57806391d1485414610573578063a217fddf14610559578063b08e51c01461051f578063b1c5f427146104f5578063bc197c8114610460578063c4d252f514610382578063d45c443514610358578063d547741f14610314578063e38335e5146101c8578063f23a6e61146101735763f27a0c920361000e573461016f575f36600319011261016f576020600254604051908152f35b5f80fd5b3461016f5760a036600319011261016f5761018c610bcb565b50610195610be1565b506084356001600160401b03811161016f576101b5903690600401610cc2565b5060405163f23a6e6160e01b8152602090f35b6101d136610d38565b5f80527fdae2aa361dfd1ca020a396615627d436107c35eff9fe7738a3512819782d70696020527f5ba6852781629bcdcd4bdaa6de76d786f1c64b16acdac474e55bebc0ea1579515492979196919593949260ff1615610306575b8282148015906102fc575b6102e15761024e61025591888a888789888d611002565b968761131b565b5f5b81811061026757610018876113c6565b8080887fc2617efa69bab66782fa219543714338489c4e9e178271560a91b82c3f612b5888886102d86102bf8f986001998f828e6102b28f836102ad916102b896610f89565b610fad565b97610f89565b3595610fc1565b906102cc82828787611373565b60405194859485610e65565b0390a301610257565b50869063ffb0321160e01b5f5260045260245260445260645ffd5b5087821415610237565b61030f3361124d565b61022c565b3461016f57604036600319011261016f57610018600435610333610be1565b9061035361034c825f525f602052600160405f20015490565b33906112d3565b61146c565b3461016f57602036600319011261016f576004355f526001602052602060405f2054604051908152f35b3461016f57602036600319011261016f57335f9081527fc3ad33e20b0c56a223ad5104fff154aa010f8715b9c981fd38fdc60a4d1a52fb60205260409020546004359060ff1615610429576103d681610ed3565b1561040f57805f5260016020525f60408120557fbaa1eb22f2a492ba1a5fea61b8df4d27c6c8b5f3971e63bb58fa14ff72eedb705f80a2005b635ead8eb560e01b5f52600452600460021760245260445ffd5b63e2517d3f60e01b5f52336004527ffd643c72710c63c0180259aba6b2d05451e3591a24e58b62239378085726f78360245260445ffd5b3461016f5760a036600319011261016f57610479610bcb565b50610482610be1565b506044356001600160401b03811161016f576104a2903690600401610da6565b506064356001600160401b03811161016f576104c2903690600401610da6565b506084356001600160401b03811161016f576104e2903690600401610cc2565b5060405163bc197c8160e01b8152602090f35b3461016f57602061051761050836610d38565b96959095949194939293611002565b604051908152f35b3461016f575f36600319011261016f5760206040517ffd643c72710c63c0180259aba6b2d05451e3591a24e58b62239378085726f7838152f35b3461016f575f36600319011261016f5760206040515f8152f35b3461016f57604036600319011261016f5761058c610be1565b6004355f525f60205260405f209060018060a01b03165f52602052602060ff60405f2054166040519015158152f35b3461016f575f36600319011261016f5760206040517fb09aa5aeb3702cfd50b6b62bc4532604938f21248a27a1d5ca736082b6819cc18152f35b3461016f5760c036600319011261016f576004356001600160401b03811161016f57610625903690600401610d08565b906024356001600160401b03811161016f57610645903690600401610d08565b6044929192356001600160401b03811161016f57610667903690600401610d08565b9390916064356084359560a4359261067e336111c7565b808914801590610770575b6107565761069d88848489858a8f8e611002565b986106a8858b611154565b895f5b8281106106e8575089806106bb57005b60207f20fda5fd27a1ea7bf5b9567f143ac5470bb059374a27e8f67cb44f946f6d038791604051908152a2005b806001927f4cf4410cc57040e44862ef0f45f3dd5a5e02db8eb8add648d4b0e236f1d07dca8b8b61074b8f8c61073e8f928e6107378f8f906107316102ad8f8097948195610f89565b99610f89565b3597610fc1565b9060405196879687610e2d565b0390a3018a906106ab565b908863ffb0321160e01b5f5260045260245260445260645ffd5b5081891415610689565b3461016f57602061051761078d36610c24565b94939093929192610f34565b3461016f57602036600319011261016f576107b5600435610efc565b60405160048210156107c8576020918152f35b634e487b7160e01b5f52602160045260245ffd5b3461016f57602036600319011261016f5760043530330361082e577f11c24f4ead16507c69ac467fbd5e4eed5fb5c699626d2cc6d66421df253886d560406002548151908152836020820152a1600255005b63e2850c5960e01b5f523360045260245ffd5b3461016f57602036600319011261016f57602061085f600435610ed3565b6040519015158152f35b3461016f57604036600319011261016f57610882610be1565b336001600160a01b0382160361089e576100189060043561146c565b63334bd91960e11b5f5260045ffd5b3461016f57602036600319011261016f57602061085f600435610ebc565b3461016f57604036600319011261016f576100186004356108ea610be1565b9061090361034c825f525f602052600160405f20015490565b6113e4565b3461016f57602036600319011261016f57602061085f600435610ea4565b3461016f57602036600319011261016f5760206105176004355f525f602052600160405f20015490565b3461016f57608036600319011261016f57610969610bcb565b50610972610be1565b506064356001600160401b03811161016f57610992903690600401610cc2565b50604051630a85bd0160e11b8152602090f35b3461016f57602036600319011261016f57602061085f600435610e8c565b610018610a545f610a607fc2617efa69bab66782fa219543714338489c4e9e178271560a91b82c3f612b58610a4b6109fa36610c24565b7fd8aa0f3194971a2a116679f7c2090f6939c8d4e01a2a8d7e41d55e5351469e638a9995979299949394528960205260408a208a805260205260ff60408b20541615610a68575b8884848989610f34565b9889978861131b565b6102cc82828787611373565b0390a36113c6565b610a713361124d565b610a41565b3461016f575f36600319011261016f5760206040517fd8aa0f3194971a2a116679f7c2090f6939c8d4e01a2a8d7e41d55e5351469e638152f35b3461016f57602036600319011261016f5760043563ffffffff60e01b811680910361016f57602090630271189760e51b8114908115610af5575b506040519015158152f35b637965db0b60e01b811491508115610b0f575b5082610aea565b6301ffc9a760e01b14905082610b08565b3461016f5760c036600319011261016f57610b39610bcb565b602435906044356001600160401b03811161016f577f4cf4410cc57040e44862ef0f45f3dd5a5e02db8eb8add648d4b0e236f1d07dca92610b7f5f923690600401610bf7565b94909160643594610bc16084359660a43590610b9a336111c7565b610ba889828c8a8989610f34565b998a97610bb5848a611154565b60405196879687610e2d565b0390a3806106bb57005b600435906001600160a01b038216820361016f57565b602435906001600160a01b038216820361016f57565b9181601f8401121561016f578235916001600160401b03831161016f576020838186019501011161016f57565b60a060031982011261016f576004356001600160a01b038116810361016f579160243591604435906001600160401b03821161016f57610c6691600401610bf7565b90916064359060843590565b90601f801991011681019081106001600160401b03821117610c9357604052565b634e487b7160e01b5f52604160045260245ffd5b6001600160401b038111610c9357601f01601f191660200190565b81601f8201121561016f57803590610cd982610ca7565b92610ce76040519485610c72565b8284526020838301011161016f57815f926020809301838601378301015290565b9181601f8401121561016f578235916001600160401b03831161016f576020808501948460051b01011161016f57565b60a060031982011261016f576004356001600160401b03811161016f5781610d6291600401610d08565b929092916024356001600160401b03811161016f5781610d8491600401610d08565b92909291604435906001600160401b03821161016f57610c6691600401610d08565b9080601f8301121561016f578135916001600160401b038311610c93578260051b9060405193610dd96020840186610c72565b845260208085019282010192831161016f57602001905b828210610dfd5750505090565b8135815260209182019101610df0565b908060209392818452848401375f828201840152601f01601f1916010190565b929093610e5b926080959897969860018060a01b03168552602085015260a0604085015260a0840191610e0d565b9460608201520152565b610e89949260609260018060a01b0316825260208201528160408201520191610e0d565b90565b610e9590610efc565b60048110156107c85760021490565b610ead90610efc565b60048110156107c85760031490565b610ec590610efc565b60048110156107c857151590565b610edc90610efc565b60048110156107c85760018114908115610ef4575090565b600291501490565b5f52600160205260405f205480155f14610f1557505f90565b60018103610f235750600390565b421015610f2f57600190565b600290565b94610f6a610f8394959293604051968795602087019960018060a01b03168a52604087015260a0606087015260c0860191610e0d565b91608084015260a083015203601f198101835282610c72565b51902090565b9190811015610f995760051b0190565b634e487b7160e01b5f52603260045260245ffd5b356001600160a01b038116810361016f5790565b9190811015610f995760051b81013590601e198136030182121561016f5701908135916001600160401b03831161016f57602001823603811361016f579190565b9693949190969592956040519660208801988060c08a0160a08c525260e0890192905f905b80821061111e57505050878203601f190160408901528082526001600160fb1b03811161016f579087959394929160051b8092602083013701848103606086015260208101849052600584901b8101604090810194908201915f90889036829003601e1901905b8484106110b857505050505050610f839450608084015260a083015203601f198101835282610c72565b91939597909294969850601f19601f198383030101875289358381121561016f57840190602082359201916001600160401b03811161016f57803603831361016f5761110a6020928392600195610e0d565b9b0197019401918a9896999795939161108e565b91939091908435906001600160a01b038216820361016f576001600160a01b039091168152602090810194019160010190611027565b9061115e82610ebc565b6111af576002548082106111995750420190814211611185575f52600160205260405f2055565b634e487b7160e01b5f52601160045260245ffd5b90635433660960e01b5f5260045260245260445ffd5b50635ead8eb560e01b5f52600452600160245260445ffd5b6001600160a01b0381165f9081527f3412d5605ac6cd444957cedb533e5dacad6378b4bc819ebe3652188a665066d5602052604090205460ff16156112095750565b63e2517d3f60e01b5f9081526001600160a01b03919091166004527fb09aa5aeb3702cfd50b6b62bc4532604938f21248a27a1d5ca736082b6819cc1602452604490fd5b6001600160a01b0381165f9081527fdae2aa361dfd1ca020a396615627d436107c35eff9fe7738a3512819782d7069602052604090205460ff161561128f5750565b63e2517d3f60e01b5f9081526001600160a01b03919091166004527fd8aa0f3194971a2a116679f7c2090f6939c8d4e01a2a8d7e41d55e5351469e63602452604490fd5b90815f525f60205260405f2060018060a01b0382165f5260205260ff60405f205416156112fe575050565b63e2517d3f60e01b5f5260018060a01b031660045260245260445ffd5b61132481610e8c565b1561135c57508015158061134c575b61133a5750565b63121534c360e31b5f5260045260245ffd5b5061135681610ea4565b15611333565b635ead8eb560e01b5f52600452600460245260445ffd5b6113bb935f93928493826040519384928337810185815203925af13d156113be573d9061139f82610ca7565b916113ad6040519384610c72565b82523d5f602084013e6114ec565b50565b6060906114ec565b6113cf81610e8c565b1561135c575f526001602052600160405f2055565b5f818152602081815260408083206001600160a01b038616845290915290205460ff16611466575f818152602081815260408083206001600160a01b0395909516808452949091528120805460ff19166001179055339291907f2f8788117e7eff1d82e926ec794901d17c78024a50270940304540a733656f0d9080a4600190565b50505f90565b5f818152602081815260408083206001600160a01b038616845290915290205460ff1615611466575f818152602081815260408083206001600160a01b0395909516808452949091528120805460ff19169055339291907ff6391f5c32d9c69d2a47ea670b442974b53935d1edc7fd64eb21e047a839171b9080a4600190565b909190611512575080511561150357602081519101fd5b63d6bda27560e01b5f5260045ffd5b56fea2646970667358221220ec09ed79066596ac88cf3215ede597b0b2076deaa7200ac6e408bba343b0b1c364736f6c634300081c00332f8788117e7eff1d82e926ec794901d17c78024a50270940304540a733656f0d3412d5605ac6cd444957cedb533e5dacad6378b4bc819ebe3652188a665066d5dae2aa361dfd1ca020a396615627d436107c35eff9fe7738a3512819782d7069c3ad33e20b0c56a223ad5104fff154aa010f8715b9c981fd38fdc60a4d1a52fbad3228b676f7d3cd4284a5443f17f1962b36e491b30a40b2405849e597ba5fb525bab1ec4b6635a8e0740834e52ce1aee362e9c38447738aa7b75b7e06275b079016d09d72d40fdae2fd8ceac6b6234c7706214fd39c1cd1e609a0528c1993009b779b17422d0df92223018b32b4d1fa46e071723d6817e2486d003becc55f00f0c57e16840df040f15088dc2f81fe391c3923bec73e23a9662efc9c229c6a009657334a2d3b5286789d0fb04175097ded87b257ec3453bb388503f20a3b7057a26469706673582212208925932d25d65805ab94556d612ec5971dad3751f875bc326527a9d833aaa64d64736f6c634300081c0033f0c57e16840df040f15088dc2f81fe391c3923bec73e23a9662efc9c229c6a00",
  "linkReferences": {},
  "deployedLinkReferences": {},
  "immutableReferences": {},
  "inputSourceName": "project/contracts/rollup/RollupV1.sol",
  "buildInfoId": "solc-0_8_28-4e4b0ff101b99d5115b87eaba8df98f95a17d4c4"
}